:020000040800F2
:1000000000800120692C0008B92C0008B92C0008D8
:10001000B92C0008B92C0008B92C00080000000019
:10002000000000000000000000000000B92C0008E3
:10003000B92C000800000000B92C0008592C000859
:10004000B92C0008B92C0008B92C0008B92C0008FC
:10005000B92C0008B92C0008B92C0008B92C0008EC
:10006000B92C0008B92C0008B92C0008B92C0008DC
:10007000B92C0008B92C0008B92C0008B92C0008CC
:10008000B92C0008B92C0008B92C0008B92C0008BC
:10009000B92C0008B92C0008B92C0008B92C0008AC
:1000A000B92C0008B92C0008B92C0008B92C00089C
:1000B000B92C0008B92C0008B92C0008B92C00088C
:1000C000B92C0008B92C0008B92C0008B92C00087C
:1000D000B92C0008B92C0008B92C0008B92C00086C
:1000E000B92C0008B92C0008B92C0008B92C00085C
:1000F000B92C0008B92C0008B92C0008B92C00084C
:10010000B92C0008B92C0008B92C0008B92C00083B
:10011000B92C0008B92C0008B92C0008B92C00082B
:10012000B92C0008B92C0008B92C0008B92C00081B
:10013000B92C0008B92C0008B92C0008B92C00080B
:10014000B92C0008B92C0008B92C0008B92C0008FB
:10015000B92C0008B92C0008B92C0008B92C0008EB
:10016000B92C0008B92C0008B92C0008B92C0008DB
:10017000B92C0008B92C0008B92C000800000000B8
:08018000B92C0008B92C00089D
:1001880010B5054C237833B9044B13B10448AFF3C9
:1001980000800123237010BD08000020000000002B
:1001A800082D0008084B10B51BB108480849AFF3E3
:1001B80000800848036803B910BD074B002BFBD02B
:1001C800BDE81040184700BF00000000082D0008D7
:1001D8000C000020080000200000000080B400AFE0
:1001E800164A164BD3F8883043F47003C2F88830A7
:1001F800134A134B1B6843F001031360104B002292
:100208009A600F4A0E4B1B6823F0A85323F410235F
:1002180013600B4B4FF40062DA60094A084B1B6805
:1002280023F480231360064B00229A61034B4FF09E
:1002380000629A60BD465DF8047B704700ED00E0FF
:100248000010024080B500AF084A084B1B6843F411
:1002580080731360032000F007F9002000F008F80D
:1002680002F0D8FC0023184680BD00BF00200240E1
:1002780080B582B000AF786002F060FB0246094B9F
:10028800A3FB02239B09184600F014F94FF0FF3036
:100298007968002200F0F2F8002318460837BD46B6
:1002A80080BD00BFD34D621080B400AF044B1B6803
:1002B8000133034A1360BD465DF8047B704700BFF5
:1002C8002400002080B400AF034B1B681846BD46CD
:1002D8005DF8047B704700BF2400002080B584B01F
:1002E80000AF78600023FB60FFF7ECFFF86000BF09
:1002F800FFF7E8FF0246FB68D21A7B689A42F7D3F9
:100308001037BD4680BD00BF80B485B000AF7860AF
:100318007B6803F00703FB600C4BDB68BB60BA68C3
:100328004FF6FF031340BB60FB681A02BB68134318
:1003380043F0BF6343F40033BB60044ABB68D36037
:100348001437BD465DF8047B704700BF00ED00E040
:1003580080B400AF044BDB6803F4E0631B0A184663
:10036800BD465DF8047B704700ED00E080B483B0C3
:1003780000AF03463960FB7197F90730002B0BDAA1
:100388000D49FB7903F00F03043B3A68D2B212011E
:10039800D2B20B441A7609E0084997F907303A684F
:1003A800D2B21201D2B20B4483F800230C37BD46F7
:1003B8005DF8047B704700BF00ED00E000E100E05D
:1003C80080B489B000AFF860B9607A60FB6803F068
:1003D8000703FB61FB69C3F10703042B28BF042350
:1003E800BB61FB690433062B02D9FB69033B00E0C0
:1003F80000237B61BB69012202FA03F35A1EBB6822
:100408001A407B699A407B69012101FA03F3591E5E
:100418007B680B40134318462437BD465DF8047BC0
:10042800704700BF80B582B000AF78607B68013B41
:10043800B3F1807F01D301230FE00A4A7B68013BB7
:1004480053604FF0FF300F21FFF790FF054B00225C
:100458009A60044B07221A60002318460837BD46E5
:1004680080BD00BF10E000E080B582B000AF7860CA
:100478007868FFF749FF0837BD4680BD80B586B06C
:1004880000AF0346B9607A60FB7300237B61FFF716
:100498005FFF78617869B9687A68FFF791FF02466B
:1004A80097F90F3018461146FFF760FF1837BD4619
:1004B80080BD00BF80B582B000AF78607868FFF774
:1004C800B1FF034618460837BD4680BD80B483B0E7
:1004D80000AF78607B68042B06D1094A084B1B687B
:1004E80043F00403136005E0054A054B1B6823F03D
:1004F800040313600C37BD465DF8047B704700BFEA
:1005080010E000E080B500AF00F002F880BD00BF49
:1005180080B400AFBD465DF8047B704780B487B0F7
:1005280000AF7860396000237B610023FB60002303
:100538003B617BE13B681A687B69012101FA03F39F
:100548001340FB60FB68002B00F06D813B685B6823
:10055800022B03D03B685B68122B22D17B69DA0837
:100568007B68083253F822303B617B6903F007034C
:100578009B001A460F239340DB433A6913403B61C3
:100588003B681B697A6902F00702920093403A6956
:1005980013433B617B69DA087B680832396943F8A1
:1005A80022107B681B683B617B695B001A4603234A
:1005B8009340DB433A6913403B613B685B6803F057
:1005C80003037A69520093403A6913433B617B689D
:1005D8003A691A603B685B68012B0BD03B685B6823
:1005E800022B07D03B685B68112B03D03B685B6824
:1005F800122B2FD17B689B683B617B695B001A4695
:1006080003239340DB433A6913403B613B68DB6853
:100618007A69520093403A6913433B617B683A69AF
:100628009A607B685B683B617B69012202FA03F38D
:10063800DB433A6913403B613B685B6803F0100396
:100648001A097B6902FA03F33A6913433B617B6831
:100658003A695A603B685B6803F00303032B18D1BF
:100668007B68DB6A3B617B69012202FA03F3DB43A7
:100678003A6913403B613B685B6803F00803DA089A
:100688007B6902FA03F33A6913433B617B683A6971
:10069800DA627B68DB683B617B695B001A4603238F
:1006A8009340DB433A6913403B613B689B687A6936
:1006B800520093403A6913433B617B683A69DA60B8
:1006C8003B685B6803F08053002B00F0AC805E4A07
:1006D8005D4B1B6E43F0010313665B4B1B6E03F00F
:1006E8000103BB60BB68594A7B699B08023352F817
:1006F80023303B617B6903F003039B001A460F23F9
:100708009340DB433A6913403B617B68B3F1904FF8
:1007180025D07B684E4A93421FD07B684D4A93424E
:1007280019D07B684C4A934213D07B684B4A93425A
:100738000DD07B684A4A934207D07B68494A934266
:1007480001D106230CE007230AE0052308E004236F
:1007580006E0032304E0022302E0012300E0002373
:100768007A6902F00302920093403A6913433B61AD
:1007780036497B699B0802333A6941F823203A4B92
:100788001B683B61FB68DB433A6913403B613B688C
:100798005B6803F48033002B03D03A69FB6813438A
:1007A8003B61314A3B6913602F4B5B683B61FB68D7
:1007B800DB433A6913403B613B685B6803F40033F1
:1007C800002B03D03A69FB6813433B61264A3B6917
:1007D8005360254B9B683B61FB68DB433A691340D8
:1007E8003B613B685B6803F48013002B03D03A69D4
:1007F800FB6813433B611C4A3B6993601A4BDB68F7
:100808003B61FB68DB433A6913403B613B685B68CB
:1008180003F40013002B03D03A69FB6813433B61D0
:10082800114A3B69D3607B6901337B613B681A6875
:100838007B6922FA03F3002B7FF47CAE1C37BD469C
:100848005DF8047B704700BF0010024000000140C3
:100858000004004800080048000C00480010004848
:1008680000140048001800480004014080B483B018
:1008780000AF78600B467B8013467B707B78002B3B
:1008880003D07A887B689A6102E07A887B689A62EA
:100898000C37BD465DF8047B704700BF80B400AFDD
:1008A800044B1B6803F4C0631846BD465DF8047B1F
:1008B800704700BF0070004080B485B000AF78601A
:1008C8000023FB607B68B3F5007F2DD1214B1B68AB
:1008D80003F4C063B3F5007F35D01E4A1D4B1B6877
:1008E80023F4C06343F4007313601B4B1B681B4A5B
:1008F800A2FB03239B0C322202FB03F3FB6002E002
:10090800FB68013BFB60FB68002B05D0114B5B6962
:1009180003F48063002BF3D10E4B5B6903F480630F
:10092800002B10D003230FE00A4B1B6803F4C063AD
:10093800B3F5806F07D0074A064B1B6823F4C063E2
:1009480043F480631360002318461437BD465DF8EE
:10095800047B7047007000400000002083DE1B43CA
:1009680090B5ADF51B7D00AF3B1D18600023C7F89F
:1009780060323B1D1B681B6803F01003002B00F05E
:10098800CE81BA4B9B6803F00C03002B40F0C88063
:100998000223C7F85C32D7F85C3293FAA3F3C7F89E
:1009A8005832D7F85832B3FA83F343F020035B097F
:1009B800012B02D1AD4B1B682DE00223C7F854323E
:1009C800D7F8543293FAA3F3C7F85032D7F8503215
:1009D800B3FA83F343F020035B09022B03D1A34B43
:1009E800D3F8903017E00223C7F84C32D7F84C32CE
:1009F80093FAA3F3C7F84832D7F84832B3FA83F327
:100A080043F020035B09032B03D1984BD3F89430B0
:100A180001E0964BDB690222C7F84422D7F844224A
:100A280092FAA2F2C7F84022D7F84022B2FA82F22C
:100A380002F01F02D34003F00103002B07D03B1D37
:100A48001B689B69002B02D1012301F045BA3B1DAD
:100A58001B681A6A854B1B6803F00803002B04D037
:100A6800824B1B6803F0F00305E0804BD3F8943009
:100A780003F470631B099A4227D93B1D1B681B6A44
:100A8800184601F083FF0346002B02D0012301F032
:100A980023BA764A754B1B6843F008031360734901
:100AA800724B1B6823F0F0023B1D1B681B6A134343
:100AB8000B606E496D4B5B6823F47F423B1D1B68DE
:100AC800DB691B0213434B6026E0684A674B1B68CF
:100AD80043F0080313606549644B1B6823F0F00278
:100AE8003B1D1B681B6A13430B6060495F4B5B68C7
:100AF80023F47F423B1D1B68DB691B0213434B60D9
:100B08003B1D1B681B6A184601F040FF0346002B7B
:100B180002D0012301F0E0B90020FFF7A9FBFEE0B5
:100B28003B1D1B689B69002B00F089804F4A4F4B87
:100B38001B6843F001031360FFF7C4FBC7F86002AA
:100B48000AE0FFF7BFFB0246D7F86032D31A642BDE
:100B580002D9032301F0C0B90223C7F83C32D7F801
:100B68003C3293FAA3F3C7F83832D7F83832B3FADD
:100B780083F343F020035B09012B02D13B4B1B6835
:100B88002DE00223C7F83432D7F8343293FAA3F3AE
:100B9800C7F83032D7F83032B3FA83F343F0200382
:100BA8005B09022B03D1314BD3F8903017E00223B5
:100BB800C7F82C32D7F82C3293FAA3F3C7F82832A7
:100BC800D7F82832B3FA83F343F020035B09032BE9
:100BD80003D1264BD3F8943001E0244BDB69022281
:100BE800C7F82422D7F8242292FAA2F2C7F82022C2
:100BF800D7F82022B2FA82F202F01F02D34003F0A3
:100C08000103002B9DD0194A184B1B6843F00803B9
:100C180013601649154B1B6823F0F0023B1D1B6837
:100C28001B6A13430B601149104B5B6823F47F4226
:100C38003B1D1B68DB691B0213434B606FE00B4ACB
:100C48000A4B1B6823F001031360FFF73BFBC7F84F
:100C580060020DE0FFF736FB0246D7F86032D31A80
:100C6800642B05D9032301F037B900BF00100240F7
:100C78000223C7F81C32D7F81C3293FAA3F3C7F83B
:100C88001832D7F81832B3FA83F343F020035B091C
:100C9800012B02D1C24B1B682DE00223C7F8143286
:100CA800D7F8143293FAA3F3C7F81032D7F81032F2
:100CB800B3FA83F343F020035B09022B03D1B84B4B
:100CC800D3F8903017E00223C7F80C32D7F80C326B
:100CD80093FAA3F3C7F80832D7F80832B3FA83F3C4
:100CE80043F020035B09032B03D1AD4BD3F89430B9
:100CF80001E0AB4BDB690222C7F80422D7F80422D3
:100D080092FAA2F2C7F80022D7F80022B2FA82F2C9
:100D180002F01F02D34003F00103002B9AD13B1DC0
:100D28001B681B6803F00103002B00F004829C4B36
:100D38009B6803F00C03082B0BD0994B9B6803F0BE
:100D48000C030C2B69D1964BDB6803F00303032BD0
:100D580063D14FF40033C7F8FC31D7F8FC3193FA6C
:100D6800A3F3C7F8F831D7F8F831B3FA83F343F0AF
:100D780020035B09012B02D1894B1B682FE04FF43C
:100D88000033C7F8F431D7F8F43193FAA3F3C7F86E
:100D9800F031D7F8F031B3FA83F343F020035B095D
:100DA800022B03D17E4BD3F8903018E04FF4003378
:100DB800C7F8EC31D7F8EC3193FAA3F3C7F8E83168
:100DC800D7F8E831B3FA83F343F020035B09032B28
:100DD80003D1734BD3F8943001E0714BDB694FF4C6
:100DE8000032C7F8E421D7F8E42192FAA2F2C7F852
:100DF800E021D7F8E021B2FA82F202F01F02D340D4
:100E080003F00103002B07D03B1D1B685B68002B18
:100E180002D1012301F060B88DE1614A604B1B6883
:100E280023F4803313605E4A5D4B1B6823F48023F0
:100E38001360FFF747FAC7F860020CE0FFF742FAC1
:100E48000246D7F86032D31A41F28832934202D967
:100E5800032301F041B84FF40033C7F8DC31D7F869
:100E6800DC3193FAA3F3C7F8D831D7F8D831B3FAFD
:100E780083F343F020035B09012B02D1484B1B6825
:100E88002FE04FF40033C7F8D431D7F8D43193FAB0
:100E9800A3F3C7F8D031D7F8D031B3FA83F343F0CE
:100EA80020035B09022B03D13D4BD3F8903018E0A7
:100EB8004FF40033C7F8CC31D7F8CC3193FAA3F309
:100EC800C7F8C831D7F8C831B3FA83F343F0200321
:100ED8005B09032B03D1324BD3F8943001E0304B3C
:100EE800DB694FF40032C7F8C421D7F8C42192FA5D
:100EF800A2F2C7F8C021D7F8C021B2FA82F202F0F4
:100F08001F02D34003F00103002B97D13B1D1B6840
:100F18005B68B3F5803F06D1214A214B1B6843F437
:100F28008033136024E03B1D1B685B68B3F5A02F7A
:100F380012D11B4A1A4B1B6823F480331360184ADA
:100F4800174B1B6843F480231360154A144B1B6826
:100F580043F4803313600BE0114A114B1B6823F4F0
:100F6800803313600E4A0E4B1B6823F480231360F2
:100F78003B1D1B685B68002B70D0FFF7A3F9C7F80F
:100F880060020FE0FFF79EF90246D7F86032D31AE5
:100F980041F28832934205D9032300F09DBF00BF78
:100FA800001002404FF40033C7F8BC31D7F8BC3109
:100FB80093FAA3F3C7F8B831D7F8B831B3FA83F383
:100FC80043F020035B09012B02D1C84B1B682FE0BB
:100FD8004FF40033C7F8B431D7F8B43193FAA3F318
:100FE800C7F8B031D7F8B031B3FA83F343F0200330
:100FF8005B09022B03D1BD4BD3F8903018E04FF4B6
:101008000033C7F8AC31D7F8AC3193FAA3F3C7F87B
:10101800A831D7F8A831B3FA83F343F020035B096A
:10102800032B03D1B14BD3F8943001E0AF4BDB690C
:101038004FF40032C7F8A421D7F8A42192FAA2F2FB
:10104800C7F8A021D7F8A021B2FA82F202F01F0255
:10105800D34003F00103002B94D06CE0FFF732F982
:10106800C7F860020CE0FFF72DF90246D7F86032A6
:10107800D31A41F28832934202D9032300F02CBFDD
:101088004FF40033C7F89C31D7F89C3193FAA3F397
:10109800C7F89831D7F89831B3FA83F343F02003AF
:1010A8005B09012B02D1914B1B682FE04FF40033F1
:1010B800C7F89431D7F8943193FAA3F3C7F890316D
:1010C800D7F89031B3FA83F343F020035B09022B7E
:1010D80003D1864BD3F8903018E04FF40033C7F8AB
:1010E8008C31D7F88C3193FAA3F3C7F88831D7F845
:1010F8008831B3FA83F343F020035B09032B03D150
:101108007A4BD3F8943001E0784BDB694FF4003226
:10111800C7F88421D7F8842192FAA2F2C7F880216F
:10112800D7F88021B2FA82F202F01F02D34003F00E
:101138000103002B97D13B1D1B681B6803F00203BA
:10114800002B00F0C681694B9B6803F00C03042B4D
:101158000DD0664B9B6803F00C030C2B40F08F807E
:10116800624BDB6803F00303022B40F088804FF4E6
:101178008063C7F87C31D7F87C3193FAA3F3C7F8BA
:101188007831D7F87831B3FA83F343F020035B0959
:10119800012B02D1554B1B6831E04FF48063C7F82F
:1011A8007431D7F8743193FAA3F3C7F87031D7F8CC
:1011B8007031B3FA83F343F020035B09022B03D1A8
:1011C8004A4BD3F890301AE04FF48063C7F86C317B
:1011D800D7F86C3193FAA3F207F5B4731A6007F5E0
:1011E800B4731B68B3FA83F343F020035B09032B42
:1011F80003D13E4BD3F8943001E03C4BDB6907F553
:10120800B2724FF48061116007F5B272126892FAF7
:10121800A2F107F5B072116007F5B0721268B2FA60
:1012280082F202F01F02D34003F00103002B07D023
:101238003B1D1B68DB68002B02D1012300F04CBE6C
:101248002A4C2A4B5B6823F0F8523B1D1B6819692E
:1012580007F5AE734FF0F850186007F5AE731B68CA
:1012680093FAA3F007F5AC73186007F5AC731B6825
:10127800B3FA83F301FA03F31343636029E13B1DD7
:101288001B68DB68002B00F0A380184A174B1B680B
:1012980043F480731360FFF715F8C7F860020AE09B
:1012A800FFF710F80246D7F86032D31A642B02D938
:1012B800032300F011BE07F5AA734FF480621A6089
:1012C80007F5AA731B6893FAA3F207F5A8731A60C7
:1012D80007F5A8731B68B3FA83F343F020035B098F
:1012E800012B05D1014B1B683AE000BF00100240FA
:1012F80007F5A6734FF480621A6007F5A6731B689A
:1013080093FAA3F207F5A4731A6007F5A4731B6890
:10131800B3FA83F343F020035B09022B03D1BF4BDD
:10132800D3F890301CE007F5A2734FF480621A607E
:1013380007F5A2731B6893FAA3F207F5A0731A6066
:1013480007F5A0731B68B3FA83F343F020035B0926
:10135800032B03D1B14BD3F8943001E0AF4BDB69D9
:1013680007F59E724FF48061116007F59E7212684E
:1013780092FAA2F107F59C72116007F59C72126847
:10138800B2FA82F202F01F02D34003F00103002BED
:1013980086D0A24CA14B5B6823F0F8523B1D1B681A
:1013A800196907F59A734FF0F850186007F59A73A2
:1013B8001B6893FAA3F007F59873186007F59873FC
:1013C8001B68B3FA83F301FA03F31343636080E005
:1013D800924A924B1B6823F480731360FEF772FFE6
:1013E800C7F860020AE0FEF76DFF0246D7F86032E0
:1013F800D31A642B02D9032300F06EBD07F5967348
:101408004FF480621A6007F596731B6893FAA3F28B
:1014180007F594731A6007F594731B68B3FA83F39E
:1014280043F020035B09012B02D17C4B1B6837E09A
:1014380007F592734FF480621A6007F592731B6880
:1014480093FAA3F207F590731A6007F590731B6877
:10145800B3FA83F343F020035B09022B03D16F4BEC
:10146800D3F890301CE007F58E734FF480621A6051
:1014780007F58E731B6893FAA3F207F58C731A604D
:1014880007F58C731B68B3FA83F343F020035B09F9
:10149800032B03D1614BD3F8943001E05F4BDB6938
:1014A80007F58A724FF48061116007F58A72126835
:1014B80092FAA2F107F58872116007F5887212682E
:1014C800B2FA82F202F01F02D34003F00103002BAC
:1014D80089D13B1D1B681B6803F00803002B00F033
:1014E80006813B1D1B685B69002B7FD04B4A4B4B29
:1014F800D3F8943043F00103C2F89430FEF7E2FECB
:10150800C7F860020AE0FEF7DDFE0246D7F860324F
:10151800D31A642B02D9032300F0DEBC07F58673C7
:1015280002221A6007F586731B6893FAA3F207F57F
:1015380084731A6007F584731B68B3FA83F343F066
:1015480060035B09012B02D1344B1B6835E007F5BA
:10155800827302221A6007F582731B6893FAA3F25A
:1015680007F580731A6007F580731B68B3FA83F375
:1015780043F060035B09022B03D1284BD3F890306A
:101588001BE007F1FC0302221A6007F1FC031B6849
:1015980093FAA3F207F1F8031A6007F1F8031B683E
:1015A800B3FA83F343F060035B09032B03D11B4BAE
:1015B800D3F8943001E0194BDB6907F1F4020221FA
:1015C800116007F1F402126892FAA2F107F1F00231
:1015D800116007F1F0021268B2FA82F202F01F02FB
:1015E800D34003F00103002B8DD080E00B4A0B4B56
:1015F800D3F8943023F00103C2F89430FEF762FE6A
:10160800C7F860020CE0FEF75DFE0246D7F86032CC
:10161800D31A642B04D9032300F05EBC00100240E7
:1016280007F1EC0302221A6007F1EC031B6893FA36
:10163800A3F207F1E8031A6007F1E8031B68B3FA9D
:1016480083F343F060035B09012B02D1BC4B1B6899
:1016580035E007F1E40302221A6007F1E4031B688E
:1016680093FAA3F207F1E0031A6007F1E0031B689D
:10167800B3FA83F343F060035B09022B03D1B04B49
:10168800D3F890301BE007F1DC0302221A6007F15F
:10169800DC031B6893FAA3F207F1D8031A6007F179
:1016A800D8031B68B3FA83F343F060035B09032B89
:1016B80003D1A34BD3F8943001E0A14BDB6907F1C8
:1016C800D4020221116007F1D402126892FAA2F141
:1016D80007F1D002116007F1D0021268B2FA82F263
:1016E80002F01F02D34003F00103002B8BD13B1DF6
:1016F8001B681B6803F00403002B00F01B82002307
:1017080087F867328E4B9B6D03F08053002B12D104
:101718008B4A8B4B9B6D43F080539365884B9B6D35
:1017280003F0805207F10C031A6007F10C031B68E1
:10173800012387F86732834B1B6803F48073002BFF
:101748001AD1804A7F4B1B6843F480731360FEF7FD
:10175800B9FDC7F8600209E0FEF7B4FD0246D7F804
:101768006032D31A642B01D90323B5E3754B1B6888
:1017780003F48073002BEFD0714A714BD3F890308B
:1017880023F00103C2F890306D4A6D4BD3F89030C6
:1017980023F00403C2F89030FEF794FDC7F8600206
:1017A8000BE0FEF78FFD0246D7F86032D31A41F2FC
:1017B8008832934201D903238EE307F1CC03022236
:1017C8001A6007F1CC031B6893FAA3F207F1C80368
:1017D8001A6007F1C8031B68B3FA83F343F04003A8
:1017E8005B09012B02D1564B1B6835E007F1C40396
:1017F80002221A6007F1C4031B6893FAA3F207F1E7
:10180800C0031A6007F1C0031B68B3FA83F343F0FF
:1018180040035B09022B03D1494BD3F890301BE0FE
:1018280007F1BC0302221A6007F1BC031B6893FA94
:10183800A3F207F1B8031A6007F1B8031B68B3FAFB
:1018480083F343F040035B09032B03D13C4BD3F8EC
:10185800943001E03A4BDB6907F1B40202211160D0
:1018680007F1B402126892FAA2F107F1B00211600E
:1018780007F1B0021268B2FA82F202F01F02D340F6
:1018880003F00103002B8CD13B1D1B689B68012BC7
:1018980008D12B4A2A4BD3F8903043F00103C2F801
:1018A800903043E03B1D1B689B68002B10D1244AF5
:1018B800234BD3F8903023F00103C2F89030204A2C
:1018C8001F4BD3F8903023F00403C2F890302DE07A
:1018D8003B1D1B689B68052B18D1194A184BD3F878
:1018E800903023F00103C2F89030154A144BD3F816
:1018F800903043F00403C2F89030114A104BD3F8EB
:10190800903043F00103C2F890300FE00C4A0C4BC2
:10191800D3F8903023F00103C2F89030084A084BFE
:10192800D3F8903023F00403C2F890303B1D1B68B5
:101938009B68002B7CD0FEF7C5FCC7F860020FE05F
:101948000010024000700040FEF7BCFC0246D7F8C9
:101958006032D31A41F28832934201D90323BBE2A1
:1019680007F1AC0302221A6007F1AC031B6893FA73
:10197800A3F207F1A8031A6007F1A8031B68B3FADA
:1019880083F343F040035B09012B02D1A54B1B688D
:1019980035E007F1A40302221A6007F1A4031B68CB
:1019A80093FAA3F207F1A0031A6007F1A0031B68DA
:1019B800B3FA83F343F040035B09022B03D1994B3D
:1019C800D3F890301BE007F19C0302221A6007F15C
:1019D8009C031B6893FAA3F207F198031A6007F1B6
:1019E80098031B68B3FA83F343F040035B09032BA6
:1019F80003D18C4BD3F8943001E08A4BDB6907F1B3
:101A080094020221116007F19402126892FAA2F17D
:101A180007F19002116007F190021268B2FA82F29F
:101A280002F01F02D34003F00103002B8CD077E0B3
:101A3800FEF748FCC7F860020BE0FEF743FC0246DD
:101A4800D7F86032D31A41F28832934201D903237E
:101A580042E207F18C0302221A6007F18C031B682B
:101A680093FAA3F207F188031A6007F188031B6849
:101A7800B3FA83F343F040035B09012B02D1694BAE
:101A88001B6835E007F1840302221A6007F184031A
:101A98001B6893FAA3F207F180031A6007F1800329
:101AA8001B68B3FA83F343F040035B09022B03D1AD
:101AB8005C4BD3F890301BE007F17C0302221A60DC
:101AC80007F17C031B6893FAA3F207F178031A6005
:101AD80007F178031B68B3FA83F343F040035B090B
:101AE800032B03D14F4BD3F8943001E04D4BDB6906
:101AF80007F174020221116007F17402126892FA68
:101B0800A2F107F17002116007F170021268B2FACF
:101B180082F202F01F02D34003F00103002B8CD1A4
:101B280097F86732012B05D13E4A3E4B9B6D23F057
:101B3800805393653B1D1B685B6A002B00F0CB81CB
:101B4800384B9B6803F00C030C2B00F0C2813B1D43
:101B58001B685B6A022B40F02D81324A314B1B68AF
:101B680023F080731360FEF7ADFBC7F8600209E04D
:101B7800FEF7A8FB0246D7F86032D31A642B01D9C6
:101B88000323A9E107F16C034FF000721A6007F113
:101B98006C031B6893FAA3F207F168031A6007F154
:101BA80068031B68B3FA83F343F020035B09012B36
:101BB80002D11C4B1B6839E007F164034FF0007237
:101BC8001A6007F164031B6893FAA3F207F1600334
:101BD8001A6007F160031B68B3FA83F343F020032C
:101BE8005B09022B03D10F4BD3F890301EE007F1AD
:101BF8005C034FF000721A6007F15C031B6893FAEC
:101C0800A3F207F158031A6007F158031B68B3FAE7
:101C180083F343F020035B09032B05D1014BD3F871
:101C2800943003E000100240AE4BDB6907F1540228
:101C38004FF00071116007F15402126892FAA2F194
:101C480007F15002116007F150021268B2FA82F2ED
:101C580002F01F02D34003F00103002B88D1A149F1
:101C68003B1D1B68DB6A013B1A013B1D1B681B6B94
:101C78001B021A433B1D1B685B6B1B095B041A4361
:101C88003B1D1B689B6A1A433B1D1B689B6B5B08CB
:101C9800013B5B051A433B1D1B68DB6B5B08013B83
:101CA8005B061343CB608F4A8E4B1B6843F08073EF
:101CB80013608C4A8B4BDB6843F08073D360FEF76C
:101CC80001FBC7F8600209E0FEF7FCFA0246D7F804
:101CD8006032D31A642B01D90323FDE007F14C03CA
:101CE8004FF000721A6007F14C031B6893FAA3F2D5
:101CF80007F148031A6007F148031B68B3FA83F336
:101D080043F020035B09012B02D1764B1B6837E0B7
:101D180007F144034FF000721A6007F144031B688F
:101D280093FAA3F207F140031A6007F140031B6816
:101D3800B3FA83F343F020035B09022B03D1694B09
:101D4800D3F890301CE007F13C034FF000721A60A2
:101D580007F13C031B6893FAA3F207F138031A60F2
:101D680007F138031B68B3FA83F343F020035B09D8
:101D7800032B03D15B4BD3F8943001E0594BDB695B
:101D880007F134024FF00071116007F13402126854
:101D980092FAA2F107F13002116007F130021268DD
:101DA800B2FA82F202F01F02D34003F00103002BC3
:101DB8008AD090E04B4A4B4B1B6823F0807313602A
:101DC800484A484BDB6823F00303D360454A454B38
:101DD800DB6823F0887323F48033D360FEF772FA4C
:101DE800C7F8600209E0FEF76DFA0246D7F86032DC
:101DF800D31A642B01D903236EE007F12C034FF0AB
:101E080000721A6007F12C031B6893FAA3F207F11A
:101E180028031A6007F128031B68B3FA83F343F019
:101E280020035B09012B02D12E4B1B6837E007F119
:101E380024034FF000721A6007F124031B6893FA19
:101E4800A3F207F120031A6007F120031B68B3FA15
:101E580083F343F020035B09022B03D1214BD3F812
:101E680090301CE007F11C034FF000721A6007F174
:101E78001C031B6893FAA3F207F118031A6007F111
:101E880018031B68B3FA83F343F020035B09032BA1
:101E980003D1144BD3F8943001E0124BDB6907F1FE
:101EA80014024FF00071116007F11402126892FADF
:101EB800A2F107F11002116007F110021268B2FADC
:101EC80082F202F01F02D34003F00103002B8AD1F3
:101ED80001E0012300E00023184607F51B77BD4603
:101EE80090BD00BF0010024080B5C4B000AF3B1DDC
:101EF80018603B4619600023C7F80C31CE4B1B68AD
:101F080003F007023B461B689A4280F03682CA49B2
:101F18003B461B68002B0FD03B461B68012B0BD0A0
:101F28003B461B68022B07D03B461B68032B03D09C
:101F38003B461B68042B07D1BF4B1B6823F00702E5
:101F48003B461B68134301E0BB4B1B680B60BA4B55
:101F58001B6803F007023B461B689A4202D0012324
:101F680000F033BC3B1D1B681B6803F00203002B09
:101F780009D0B249B14B9B6823F0F0023B1D1B68A6
:101F88009B6813438B603B1D1B681B6803F00103B0
:101F9800002B00F0F3833B1D1B685B68022B5DD1AF
:101FA8004FF40033C7F80831D7F8083193FAA3F390
:101FB800C7F80431D7F80431B3FA83F343F02003A8
:101FC8005B09012B02D19D4B1B682FE04FF40033B6
:101FD800C7F80031D7F8003193FAA3F3C7F8FC30FB
:101FE800D7F8FC30B3FA83F343F020035B09022BE4
:101FF80003D1924BD3F8903018E04FF40033C7F870
:10200800F830D7F8F83093FAA3F3C7F8F430D7F8D4
:10201800F430B3FA83F343F020035B09032B03D1B5
:10202800864BD3F8943001E0844BDB694FF40032DF
:10203800C7F8F020D7F8F02092FAA2F2C7F8EC20FF
:10204800D7F8EC20B2FA82F202F01F02D34003F074
:102058000103002B40F024810123B6E33B1D1B68DC
:102068005B68032B5DD14FF00073C7F8E830D7F8F1
:10207800E83093FAA3F3C7F8E430D7F8E430B3FABA
:1020880083F343F020035B09012B02D16B4B1B68E0
:102098002FE04FF00073C7F8E030D7F8E03093FA3C
:1020A800A3F3C7F8DC30D7F8DC30B3FA83F343F096
:1020B80020035B09022B03D1604BD3F8903018E062
:1020C8004FF00073C7F8D830D7F8D83093FAA3F395
:1020D800C7F8D430D7F8D430B3FA83F343F02003E9
:1020E8005B09032B03D1554BD3F8943001E0534BD4
:1020F800DB694FF00072C7F8D020D7F8D02092FAE9
:10210800A2F2C7F8CC20D7F8CC20B2FA82F202F0BB
:102118001F02D34003F00103002B40F0C1800123CC
:1021280053E33B1D1B685B68002B58D10223C7F89B
:10213800C830D7F8C83093FAA3F3C7F8C430D7F833
:10214800C430B3FA83F343F020035B09012B02D1B7
:102158003A4B1B682DE00223C7F8C030D7F8C030CF
:1021680093FAA3F3C7F8BC30D7F8BC30B3FA83F3BB
:1021780043F020035B09022B03D1304BD3F8903096
:1021880017E00223C7F8B830D7F8B83093FAA3F3AA
:10219800C7F8B430D7F8B430B3FA83F343F0200368
:1021A8005B09032B03D1254BD3F8943001E0234B73
:1021B800DB690222C7F8B020D7F8B02092FAA2F261
:1021C800C7F8AC20D7F8AC20B2FA82F202F01F02AE
:1021D800D34003F00103002B62D10123F5E24FF451
:1021E8008063C7F8A830D7F8A83093FAA3F3C7F8E4
:1021F800A430D7F8A430B3FA83F343F020035B0983
:10220800012B02D10D4B1B6833E04FF48063C7F8F4
:10221800A030D7F8A03093FAA3F3C7F89C30D7F8CA
:102228009C30B3FA83F343F020035B09022B07D1F8
:10223800024BD3F890301CE000200240001002400E
:102248004FF48063C7F89830D7F8983093FAA3F31F
:10225800C7F89430D7F89430B3FA83F343F02003E7
:102268005B09032B03D1B14BD3F8943001E0AF4B9A
:10227800DB694FF48062C7F89020D7F8902092FA73
:10228800A2F2C7F88C20D7F88C20B2FA82F202F0BA
:102298001F02D34003F00103002B01D1012394E274
:1022A800A249A24B9B6823F003023B1D1B685B6895
:1022B80013438B60FEF706F8C7F80C013B1D1B683B
:1022C8005B68022B13D10BE0FDF7FCFF0246D7F841
:1022D8000C31D31A41F28832934201D9032374E2B4
:1022E800924B9B6803F00C03082BEDD146E23B1D93
:1022F8001B685B68032B13D10BE0FDF7E3FF024675
:10230800D7F80C31D31A41F28832934201D903230A
:102318005BE2864B9B6803F00C030C2BEDD12DE29E
:102328003B1D1B685B68002B13D10BE0FDF7CAFF50
:102338000246D7F80C31D31A41F28832934201D9B8
:10234800032342E2794B9B6803F00C03002BEDD189
:1023580014E20BE0FDF7B6FF0246D7F80C31D31AAA
:1023680041F28832934201D903232EE26F4B9B68D6
:1023780003F00C03042BEDD100E23B1D1B681B6826
:1023880003F00203002B09D06849684B9B6823F0CF
:10239800F0023B1D1B689B6813438B603B1D1B6849
:1023A8001B6803F00103002B00F0BE813B1D1B6876
:1023B8005B68022B53D14FF40033C7F88830D7F845
:1023C800883093FAA3F3C7F88430D7F88430B3FA87
:1023D80083F343F020035B09012B02D1534B1B68A5
:1023E80029E04FF40033C7F88030D7F8803093FAEB
:1023F800A3F3FB67FB6FB3FA83F343F020035B0996
:10240800022B03D1494BD3F8903014E04FF400333A
:10241800BB67BB6F93FAA3F37B677B6FB3FA83F356
:1024280043F020035B09032B03D1404BD3F89430CE
:1024380001E03E4BDB694FF400323A673A6F92FA9B
:10244800A2F2FA66FA6EB2FA82F202F01F02D340E2
:1024580003F00103002B40F0FB800123B5E13B1D95
:102468001B685B68002B49D10223BB66BB6E93FADD
:10247800A3F37B667B6EB3FA83F343F020035B0917
:10248800012B02D1294B1B6825E002233B663B6EDA
:1024980093FAA3F3FB65FB6DB3FA83F343F02003D0
:1024A8005B09022B03D1214BD3F8903013E00223B0
:1024B800BB65BB6D93FAA3F37B657B6DB3FA83F3BE
:1024C80043F020035B09032B03D1184BD3F8943056
:1024D80001E0164BDB6902223A653A6D92FAA2F2E4
:1024E800FA64FA6CB2FA82F202F01F02D34003F0E7
:1024F8000103002B40F0AC80012366E13B1D1B6803
:102508005B68032B4FD14FF00073BB64BB6C93FA2D
:10251800A3F37B647B6CB3FA83F343F020035B097A
:10252800012B05D1014B1B682AE000BF00100240B7
:102538004FF000733B643B6C93FAA3F3FB63FB6BB4
:10254800B3FA83F343F020035B09022B03D1A14BB9
:10255800D3F8903014E04FF00073BB63BB6B93FA71
:10256800A3F37B637B6BB3FA83F343F020035B092C
:10257800032B03D1974BD3F8943001E0954BDB69DB
:102588004FF000723A633A6B92FAA2F2FA62FA6A70
:10259800B2FA82F202F01F02D34003F00103002BCB
:1025A80056D1012311E14FF48063BB62BB6A93FAF1
:1025B800A3F37B627B6AB3FA83F343F020035B09DE
:1025C800012B02D1834B1B6827E04FF480633B62E9
:1025D8003B6A93FAA3F3FB61FB69B3FA83F343F015
:1025E80020035B09022B03D17A4BD3F8903014E017
:1025F8004FF48063BB61BB6993FAA3F37B617B698A
:10260800B3FA83F343F020035B09032B03D1714B27
:10261800D3F8943001E06F4BDB6907F110024FF4F7
:102628008061116007F11002126892FAA2F107F1B5
:102638000C02116007F10C021268B2FA82F202F081
:102648001F02D34003F00103002B01D10123BCE09A
:102658006049604B9B6823F003023B1D1B685B6865
:1026680013438B60FDF72EFEC7F80C013B1D1B685A
:102678005B68022B13D10BE0FDF724FE0246D7F866
:102688000C31D31A41F28832934201D903239CE0DA
:10269800504B9B6803F00C03082BEDD144E03B1D25
:1026A8001B685B68032B13D10BE0FDF70BFE02469A
:1026B800D7F80C31D31A41F28832934201D9032357
:1026C80083E0444B9B6803F00C030C2BEDD12BE00B
:1026D8003B1D1B685B68002B13D10BE0FDF7F2FD77
:1026E8000246D7F80C31D31A41F28732934201D906
:1026F80003236AE0374B9B6803F00C03002BEDD1F2
:1027080012E00BE0FDF7DEFD0246D7F80C31D31AD4
:1027180041F28832934201D9032356E02D4B9B683E
:1027280003F00C03042BEDD12B493B461B68002B0F
:102738000FD03B461B68012B0BD03B461B68022B76
:1027480007D03B461B68032B03D03B461B68042B72
:1027580007D1214B1B6823F007023B461B68134334
:1027680001E01D4B1B680B601B4B1B6803F0070245
:102778003B461B689A4201D0012326E03B1D1B689B
:102788001B6803F00403002B09D01249114B9B6806
:1027980023F4E0623B1D1B68DB6813438B603B1D21
:1027A8001B681B6803F00803002B0AD00949094B72
:1027B8009B6823F460523B1D1B681B69DB001343B5
:1027C8008B600020FDF754FD0023184607F5887735
:1027D800BD4680BD001002400020024080B487B092
:1027E80000AF00237B6100233B610223BB60002311
:1027F8007B6002233B600023FB604C4B9B6803F02B
:102808000C03042B02D14A4BFB603BE0474B9B680F
:1028180003F00C03082B02D1464BFB6032E0434B1C
:102828009B6803F00C03002B0BD0404B9B6803F014
:102838000C030C2B26D13D4BDB6803F00303012B63
:1028480020D13A4B1B6803F00803002B07D1374B04
:10285800D3F8943003F470631B0A7B6105E0334BB3
:102868001B6803F0F0031B097B61334A7B6952F84C
:1028780023307B612D4B9B6803F00C03002B01D1A7
:102888007B69FB60294B9B6803F00C030C2B45D13B
:10289800264BDB6803F003037B60244BDB6803F003
:1028A80070031B0901333B607B68022B02D0032BAA
:1028B8000DD019E01E4A3B68B2FBF3F31B4AD268FD
:1028C80002F4FE42120A02FB03F33B6119E0194AC3
:1028D8003B68B2FBF3F3154AD26802F4FE42120ACF
:1028E80002FB03F33B610CE07A693B68B2FBF3F34C
:1028F8000E4AD26802F4FE42120A02FB03F33B615D
:1029080000BF0A4BDB6803F0C0635B0E01335B005A
:10291800BB603A69BB68B2FBF3F3FB60FB6818461F
:102928001C37BD465DF8047B704700BF00100240AD
:102938000024F40000127A00302D000880B582B01F
:1029480000AFFFF74BFF01460D4B9B6803F0F00209
:10295800F0237B607B6893FAA3F33B603B68B3FA90
:1029680083F322FA03F3074AD35C21FA03F3064AF6
:102978001360054B1B6818460837BD4680BD00BF6D
:1029880000100240202D00080000002080B586B00D
:1029980000AF786000237B6100233B61334B9B6D64
:1029A80003F08053002B03D0FDF778FF786114E023
:1029B8002E4A2E4B9B6D43F0805393652B4B9B6D9A
:1029C80003F08053FB60FB68FDF768FF7861274AD6
:1029D800264B9B6D23F0805393657B69B3F5007F8D
:1029E8000BD17B68802B19D97B68A02B02D90223D5
:1029F8003B6113E001233B6110E07B68802B02D927
:102A080003233B610AE07B68802B02D102233B61F0
:102A180004E07B68702B01D101233B6114493B69B9
:102A2800002B0BD03B69012B08D03B69022B05D04A
:102A38003B69032B02D03B69042B06D10C4B1B6866
:102A480023F007023B69134301E0094B1B680B6045
:102A5800074B1B6803F007023B699A4201D0012328
:102A680000E0002318461837BD4680BD001002401C
:102A78000020024080B500AFFDF7E4FB00F026F827
:102A880000F07AF80F4804210122FDF7EFFE0E4806
:102A98004FF480710122FDF7E9FE4FF4FA70FDF75B
:102AA8001DFC084804210022FDF7E0FE06484FF40B
:102AB80080710022FDF7DAFE4FF4FA70FDF70EFC84
:102AC800E0E700BF000400480010004880B596B059
:102AD80000AF0223BB614FF480737B621023BB629B
:102AE8000223FB6302233B6401237B640823BB644A
:102AF8000723FB6402233B6502237B6507F1180368
:102B08001846FDF72DFF0F237B600323BB600023CE
:102B1800FB6000233B6100237B613B1D18460321BA
:102B2800FFF7E2F9124A124B9B6D43F0805393650D
:102B38000F4B9B6D03F080533B603B684FF4007074
:102B4800FDF7BAFEFFF7FAFE02460A4BA3FB022383
:102B58009B091846FDF7AEFC0420FDF7B7FC4FF0C3
:102B6800FF3000210022FDF789FC5837BD4680BDA3
:102B780000100240D34D621080B588B000AF224AE1
:102B8800214BDB6C43F00203D3641F4BDB6C03F077
:102B98000203BB60BB681C4A1B4BDB6C43F0100391
:102BA800D364194BDB6C03F010037B607B68164A17
:102BB800154BDB6C43F00103D364134BDB6C03F060
:102BC80001033B603B680423FB6001233B61012355
:102BD8007B610323BB6107F10C030C481946FDF721
:102BE8009DFC4FF48073FB6001233B6101237B61F3
:102BF8000323BB6107F10C0305481946FDF78EFC5A
:102C08002037BD4680BD00BF0010024000040048C8
:102C18000010004880B582B000AF0C4A0B4B1B6E09
:102C280043F001031366094B1B6E03F001037B603D
:102C38007B680320FDF718FC4FF0FF3000210022CD
:102C4800FDF71CFC0837BD4680BD00BF00100240E0
:102C580080B500AFFDF728FBFDF754FC80BD00BF31
:102C6800DFF834D0002103E00C4B5B5843500431AB
:102C78000B480C4B42189A42F6D30B4A02E0002349
:102C880042F8043B094B9A42F9D3FDF7A7FA00F042
:102C980011F8FFF7EFFEFEE700800120702D000815
:102CA8000000002008000020080000202800002064
:102CB800FEE7000070B50E4B0E4CE41AA410002578
:102CC8001E46A54204D056F8253098470135F8E746
:102CD80000F016F8084C094BE41AA41000251E460B
:102CE800A54204D056F8253098470135F8E770BD5D
:102CF800602D0008602D0008642D0008602D000874
:102D0800F8B500BFF8BC08BC9E467047F8B500BFD0
:082D1800F8BC08BC9E467047A0
:102D2000000000000000000001020304060708097B
:102D3000A0860100400D0300801A060000350C003B
:102D400040420F0080841E0000093D0000127A00FE
:102D50000024F40000366E010048E801006CDC023B
:082D6000AD01000800000000B5
:082D68008901000800000000D1
:082D700000093D000000000015
:0400000508002C695A
:00000001FF
