:020000040800F2
:1000000000800010E50500083906000839060008E0
:10001000390600083906000839060008000000000B
:100020000000000000000000000000003906000889
:1000300039060008000000003906000839060008EB
:100040003906000839060008390600083906000894
:100050003906000839060008390600083906000884
:100060003906000839060008390600083906000874
:100070003906000839060008390600083906000864
:100080003906000839060008390600083906000854
:100090003906000839060008390600083906000844
:1000A0003906000839060008390600083906000834
:1000B0003906000839060008390600083906000824
:1000C0003906000839060008390600083906000814
:1000D0003906000839060008390600083906000804
:1000E00039060008390600083906000839060008F4
:1000F00039060008390600083906000839060008E4
:1001000039060008390600083906000839060008D3
:1001100039060008390600083906000839060008C3
:1001200039060008390600083906000839060008B3
:1001300039060008390600083906000839060008A3
:100140003906000839060008390600083906000893
:100150003906000839060008390600083906000883
:100160003906000839060008390600083906000873
:1001700039060008390600083906000800000000AA
:10018000390600083906000810B5054C237833B944
:10019000044B13B10448AFF300800123237010BD5A
:1001A00040020010000000002886000808B5064B39
:1001B0001BB106480649AFF300800648036813B137
:1001C000054B03B1984708BD0000000028860008D1
:1001D000440200103C02001000000000154B002BF0
:1001E00008BF134B9D46A3F5803A00218B460F466E
:1001F0001348144A121A02F06FFE0F4B002B00D066
:1002000098470E4B002B00D0984700200021040097
:100210000D000D48002802D00C48AFF3008002F01A
:1002200015FE2000290000F0ADF902F05FFC00BFD0
:100230000000080000800010000000000000000026
:1002400040020010C0040010000000000000000088
:1002500038B5142204460D46002102F03DFE20462A
:10026000294602F025FA204638BD000008B50F4E99
:100270000F4DF36872681A600E4CEB686A681A607A
:10028000E36862681A604FF07E5002F095FA3369B5
:1002900072681A602B696A681A60236962681A605A
:1002A0004FF0804002F088FAE1E700BF5C020010E6
:1002B000700200108402001008B513210548FFF7F2
:1002C000C7FF14210448FFF7C3FF15210348FFF7B8
:1002D000BFFF08BD5C020010700200108402001015
:1002E00008B572B6962002F075FA962002F072FAFE
:1002F000F8E700BF0F4A30B493689468B4F1006F18
:100300001A4604D0103030BC42F8201070470A4A18
:1003100003F5C47553F8044B42F8044FAB42F9D1CE
:100320004FF00052034B10309A6030BC42F820105E
:10033000704700BF00ED00E0FCFFFF1F70B50F4CE1
:100340002368DA68910715D4DA68520709D56FF087
:1003500004020B4E1A615D6A3368EB1AB3F57A7FBB
:1003600000D270BD00F07CF92368356005F57A7520
:100370009D6370BD02F00EFA2368E5E7F4030010F8
:1003800098020010234B30B59A6D234C42F00802BE
:100390009A659A6D83B002F008020192019A9A6BF5
:1003A00042F008029A639A6B22F008029A6301F005
:1003B000DFFE1A4A1A4B12681A492160A3FB021287
:1003C000920C0025013A4FF0FF3320466260E36053
:1003D0002561A56001F02EFC32201349FFF78AFF4A
:1003E000124B4FF480225A602946204601F084FBCC
:1003F0002046042101F080FB23680D495A6A0A60F7
:1004000002F57A729A63DA68284642F00402DA60EA
:1004100003B030BD00100240F40300108C01001046
:1004200083DE1B43000C00403D03000800E100E0B8
:100430009802001001F09CBE02480221032202F043
:1004400035B800BFA0040010022808B50BDDC21E9D
:10045000074B53F82200002143F8221028B103680B
:100460005B68984708BD002008BD4FF0FF3008BD0D
:100470009C020010022870B50C4616460FDC0E4B8D
:100480001B680BB9FFF7D8FFA51936B114F8011B8B
:100490000A4802F0E3F8AC42F8D1304670BD0338A8
:1004A000074B53F8200018B103681B68984770BDCC
:1004B0004FF0FF3070BD00BFA0030010A00400107B
:1004C0009C020010022810B50C4609DC0D4B1B687D
:1004D0008BB10D4802F0B6F801232070184610BD0C
:1004E00003380A4B53F8200040B103689B689847D3
:1004F0000346184610BDFFF79FFFEAE74FF0FF33B2
:10050000ECE700BFA0030010A00400109C02001044
:10051000022808B508DD0338064B53F8200028B13F
:100520000368DB68984708BD012008BD4FF0FF3025
:1005300008BD00BF9C020010022808B508DD033882
:10054000064B53F8200028B103681B69984708BD83
:10055000002008BD4FF0FF3008BD00BF9C02001016
:10056000022808B504D84FF400534B60002008BDA2
:1005700002F0B6FA092303604FF0FF3008BD00BF58
:10058000704700BF08B5FFF755FFFFF7F9FFBDE85B
:100590000840FFF76BBE00BF074A13681844EFF32B
:1005A0000881884202D2106018467047034B0C2223
:1005B0001A604FF0FF30704788010010BC04001033
:1005C000074C08B523680546986802F051FB23687C
:1005D000D86802F04DFB05B9FEE7FFF781FEFBE7A7
:1005E000F0010010DFF838D0002100F004B80D4B06
:1005F0005B58435004310C480C4B42189A42FFF4AC
:10060000F6AF0B4A00F003B8002342F8043B094B55
:100610009A42FFF4F9AF01F0E3FEFFF7DFFD704708
:10062000008000103486000888010010400200108D
:1006300040020010C0040010FFF7FEBF08B5074BD2
:100640001A6842F480721A60032000F017F80F2035
:10065000FFF798FE00F024F8002008BD00200240BB
:10066000024B1A6801321A60704700BF9C030010E9
:10067000014B1868704700BF9C030010074AD168FF
:100680004FF6FF030B4043F0BF6300F0070043F455
:10069000003343EA0023D360704700BF00ED00E061
:1006A000704700BF2DE9F00FD1F800C086B0BCF153
:1006B000000F00F0FE800025DFF838B22B46E2463E
:1006C0009CE05E000327D0F80090B740FF4307EAA4
:1006D0000909CDF80C90019704F0030C039F0CFA64
:1006E00006F908F1FF3847EA09094746012FC0F823
:1006F000009040F2B780BCF1030F00F0CF808A6811
:10070000C568DDF8048002FA06F608EA050747EA3C
:100710000602E700C2606CD5DFF8DCC1DCF86020BF
:1007200042F00102CCF86020DCF8605023F00302B4
:1007300002F1804205F0010502F58032059503F0D3
:100740000305059E9768AD000F26AE40B0F1904FAF
:1007500027EA060600F0B180634FB84200F0AF8090
:10076000DFF898C1604500F0AF80604FB84200F0FC
:10077000AF80DFF88C81404500F0AE80DFF884C1A7
:10078000604500F0AD805A4FB8420CBF06270727DE
:1007900007FA05F535439560DDF80880DBF8005071
:1007A000E60348BFDDF808C06FEA080254BF1540F1
:1007B0004CEA0505CBF80050A703DBF804504ABF0C
:1007C000029E15403543CBF80450E602DBF8085092
:1007D0004ABF029F15403D43CBF80850A402DBF806
:1007E0000C504ABFDDF808802A4048EA0502CBF8E1
:1007F0000C2001333AFA03FC1D465AD0012404FAB6
:1008000005F212EA0A060296F3D04C6824F01008AA
:10081000B8F1020F7FF455AFDF0800EB870703F054
:10082000070CD7F820800E694FEA8C0C4FF00F09A7
:1008300009FA0CF928EA090806FA0CFC48EA0C0641
:100840003E625E000327D0F80090B740FF4304F0FB
:10085000030C07EA09090CFA06F849EA08080197A7
:10086000C0F80080D0F80880019F07EA0808CF6828
:1008700007FA06F948EA0908C0F80880D0F8049099
:10088000C4F3001829EA020908FA05F849EA080839
:10089000BCF1030FC0F804807FF431AFD0F82C8096
:1008A000C4F3C00C28EA02020CFA05F52A43C2621E
:1008B00025E706B0BDE8F00F704700256AE74FF066
:1008C000010808FA05F565E7022707FA05F561E76B
:1008D000032707FA05F55DE7042707FA05F559E749
:1008E000052707FA05F555E700040048000C004805
:1008F00000180048000401400010024000080048B1
:100900000010004800140048024B186800F4C06052
:10091000704700BF0070004030B51F4CA36DDA0077
:1009200083B0054619D5FFF7EFFFB0F5007F26D05D
:10093000802D2BD82ED0B5F1700358425841174B5B
:100940001A6822F0070202431A601B6803F00703CB
:10095000C01A18BF012003B030BDA36D43F080530F
:10096000A365A36D03F080530193019BFFF7CCFFB8
:10097000A36DB0F5007F23F08053A365D8D1802DFF
:1009800006D9A12D34BF01200220D8E70320D6E7E5
:100990000020D4E70220D2E70010024000200240ED
:1009A0002DE9F0430368DC0683B005465BD5B64EFF
:1009B000B36813F00C0F40F09881022393FAA3F36D
:1009C000B3FA83F343F02003C3F34213012B00F087
:1009D0001583022393FAA3F3B3FA83F3022393FA62
:1009E000A3F3B3FA83F343F02003C3F34213032BBF
:1009F000A54B0CBFD3F89420DA69022393FAA3F332
:100A0000B3FA83F303F01F0322FA03F3D80703D5E5
:100A1000AB69002B00F038829B4B286A1A681107DB
:100A200040F151831B6803F0F003834280F034836C
:100A3000FFF772FF002840F02782934B1A6842F0BC
:100A400008021A6019682A6A21F0F0010A431A6044
:100A50005968EA6921F47F4141EA02225A600F2075
:100A6000FFF790FC2B68D8074AD5874A916801F0B8
:100A70000C01082900F0D481916801F00C010C29C7
:100A800000F0C881804E336823F4803333603368CC
:100A900023F480233360FFF7EBFD4FF40034074667
:100AA00021E094FAA4F3B3FA83F394FAA4F3B3FA2B
:100AB00083F343F02003C3F34213032B0CBFD6F898
:100AC0009420F26994FAA4F3B3FA83F303F01F03BA
:100AD00022FA03F3DA0740F19482FFF7C9FDC01B45
:100AE000C82800F23C8194FAA4F3B3FA83F343F0EC
:100AF0002003C3F34213012BD3D13268E2E72B6802
:100B0000990700F1A480190735D56B695E4E002B5B
:100B100000F0F581D6F8943043F00103C6F8943024
:100B2000FFF7A6FD0224074605E0FFF7A1FDC01B65
:100B3000642800F2148194FAA4F3B3FA83F394FACC
:100B4000A4F3B3FA83F394FAA4F3B3FA83F343F070
:100B50006003C3F34213032B0CBFD6F89420F26951
:100B600094FAA4F3B3FA83F303F01F0322FA03F316
:100B7000DA07DAD52B685E0740F1FD80424B9A6DAB
:100B8000D40000F1DE829A6D42F080529A659B6D2E
:100B900003F080530193019B4FF001093B4C236804
:100BA000D80510D4236843F480732360FFF760FDF9
:100BB000064605E0FFF75CFD801B642800F2CF804D
:100BC0002368D905F6D5304ED6F8903023F00103CE
:100BD000C6F89030D6F8903023F00403C6F8903071
:100BE000FFF746FD0224804641F288371EE094FA62
:100BF000A4F3B3FA83F343F04003C3F34213032B8C
:100C00000CBFD6F89420F26994FAA4F3B3FA83F3F4
:100C100003F01F0322FA03F3DA0740F19582FFF78E
:100C200027FDC8EB0000B84200F2998094FAA4F3C3
:100C3000B3FA83F394FAA4F3B3FA83F343F04003D3
:100C4000C3F34213022BD2D1D6F89020DCE70E4A30
:100C5000916801F00C01042900F08C81916801F089
:100C60000C010C2900F08081EB68074E002B00F08E
:100C70003082336843F480733360FFF7F9FC4FF43C
:100C80008064074625E000BF00100240007000406D
:100C900094FAA4F3B3FA83F394FAA4F3B3FA83F3C4
:100CA00043F02003C3F34213032B0CBFD6F8942068
:100CB000F26994FAA4F3B3FA83F303F01F0322FA60
:100CC00003F3DB0700F11D83FFF7D2FCC01B642890
:100CD00045D894FAA4F3B3FA83F343F02003C3F3A3
:100CE0004213012BD4D13268E3E78369002B00F073
:100CF000CF80336843F001033360FFF7B9FC02246F
:100D0000074620E094FAA4F3B3FA83F394FAA4F329
:100D1000B3FA83F343F02003C3F34213032B0CBF56
:100D2000D6F89420F26994FAA4F3B3FA83F303F0AB
:100D30001F0322FA03F3DA0700F15382FFF798FC4E
:100D4000C01B64280BD894FAA4F3B3FA83F343F0DE
:100D50002003C3F34213012BD4D13268E3E703200D
:100D600003B0BDE8F083B9F1000F04D0C94B9A6D10
:100D700022F080529A656A6A002A00F0F180C54B21
:100D8000996801F00C010C297ED0022A1A6822F021
:100D900080721A6000F0CE82DA6822F00302DA6014
:100DA000DA6822F0887222F48032DA601D46FFF79A
:100DB0005FFC4FF00074064620E094FAA4F3B3FA07
:100DC00083F394FAA4F3B3FA83F343F02003C3F359
:100DD0004213032B0CBFD5F89420EA6994FAA4F3CC
:100DE000B3FA83F303F01F0322FA03F3DB0740F1A6
:100DF000B780FFF73DFC801B6428B0D894FAA4F3B9
:100E0000B3FA83F343F02003C3F34213012BD4D18D
:100E10002A68E3E7D26802F00302032A7FF432AEC5
:100E20004FF4003292FAA2F2B2FA82F242F02002B9
:100E3000C2F34212012A00F07A824FF4003292FA91
:100E4000A2F2B2FA82F24FF4003292FAA2F2B2FAAD
:100E500082F242F02002C2F34212032A8D4A0CBFF2
:100E6000D2F89410D1694FF4003292FAA2F2B2FA99
:100E700082F202F01F0221FA02F2D1077FF540AEA2
:100E80006A68002A7FF43CAE012003B0BDE8F0831D
:100E9000336823F001033360FFF7EAFB02240746BF
:100EA00021E094FAA4F3B3FA83F394FAA4F3B3FA27
:100EB00083F343F02003C3F34213032B0CBFD6F894
:100EC0009420F26994FAA4F3B3FA83F303F01F03B6
:100ED00022FA03F3DB0740F18281FFF7C9FBC01B55
:100EE00064283FF63CAF94FAA4F3B3FA83F343F0DB
:100EF0002003C3F34213012BD3D13268E2E7D6F8C3
:100F0000943023F00103C6F89430FFF7B1FB0224BC
:100F1000074605E0FFF7ACFBC01B64283FF61FAF98
:100F200094FAA4F3B3FA83F394FAA4F3B3FA83F331
:100F300094FAA4F3B3FA83F343F06003C3F34213C8
:100F4000032B0CBFD6F89420F26994FAA4F3B3FAF9
:100F500083F303F01F0322FA03F3DB07DAD409E675
:100F6000002003B0BDE8F083D26802F00302022A39
:100F70007FF47AAE4FF4806292FAA2F2B2FA82F271
:100F800042F02002C2F34212012A00F007824FF41D
:100F9000806292FAA2F2B2FA82F24FF4806292FA7E
:100FA000A2F2B2FA82F242F02002C2F34212032A03
:100FB000384A0CBFD2F89410D1694FF4806292FA8B
:100FC000A2F2B2FA82F202F01F0221FA02F2D20772
:100FD00003D5EA68002A3FF457AF2E4A4FF0F85481
:100FE000506894FAA4F4B4FA84F42A692949E4B262
:100FF00020F0F850A24002434A6084E5254B1A686D
:10100000FBE46B68B3F5803F00F0FF80B3F5A02FE1
:1010100000F0C7811F4E326822F48032326032689D
:1010200022F480223260002B40F0F780FFF720FB93
:101030004FF40034074621E094FAA4F3B3FA83F3A3
:1010400094FAA4F3B3FA83F343F02003C3F34213F7
:10105000032B0CBFD6F89420F26994FAA4F3B3FAE8
:1010600083F303F01F0322FA03F3D8077FF547AD9C
:10107000FFF7FEFAC01BC8283FF671AE94FAA4F33E
:10108000B3FA83F343F02003C3F34213012BD3D10C
:101090003268E2E700100240CA4B1A6842F00802C8
:1010A0001A601A6822F0F00202431A605968EA696D
:1010B00021F47F4141EA02225A60FFF72DFC00280B
:1010C0003FF4CDACE0E6D3F8943003F470631B0931
:1010D000ABE4336823F480733360FFF7C9FA4FF44D
:1010E0008064074621E094FAA4F3B3FA83F394FAF8
:1010F000A4F3B3FA83F343F02003C3F34213032BA7
:101100000CBFD6F89420F26994FAA4F3B3FA83F3EF
:1011100003F01F0322FA03F3D80740F10581FFF71C
:10112000A7FAC01B64283FF61AAE94FAA4F3B3FAE8
:1011300083F343F02003C3F34213012BD3D132686E
:10114000E2E74FF0000929E5AB68012B00F09A8037
:10115000002B40F039819B4ED6F8903023F00103EC
:10116000C6F89030D6F8903023F00403C6F89030DB
:10117000FFF77EFA0224804641F288371EE094FA97
:10118000A4F3B3FA83F343F04003C3F34213032BF6
:101190000CBFD6F89420F26994FAA4F3B3FA83F35F
:1011A00003F01F0322FA03F3D8077FF5DCADFFF746
:1011B0005FFAC8EB0000B8423FF6D1AD94FAA4F351
:1011C000B3FA83F394FAA4F3B3FA83F343F040033E
:1011D000C3F34213022BD2D1D6F89020DCE72B6860
:1011E00041E4784B1A6842F008021A6019682A6ACA
:1011F00021F0F0010A431A605968EA6921F47F413D
:1012000041EA02225A602B682DE403F1804303F582
:1012100088331A6842F480321A60FFF729FA4FF4D3
:1012200000340746674E21E094FAA4F3B3FA83F33F
:1012300094FAA4F3B3FA83F343F02003C3F3421305
:10124000032B0CBFD6F89420F26994FAA4F3B3FAF6
:1012500083F303F01F0322FA03F3DB073FF54FACE0
:10126000FFF706FAC01BC8283FF679AD94FAA4F33D
:10127000B3FA83F343F02003C3F34213012BD3D11A
:101280003268E2E74F4BD3F8902042F00102C3F8F6
:101290009020FFF7EDF9022480464A4E41F288374C
:1012A0001EE094FAA4F3B3FA83F343F04003C3F3CC
:1012B0004213032B0CBFD6F89420F26994FAA4F3DE
:1012C000B3FA83F303F01F0322FA03F3DB073FF5BE
:1012D0004AADFFF7CDF9C8EB0000B8423FF63FAD8D
:1012E00094FAA4F3B3FA83F394FAA4F3B3FA83F36E
:1012F00043F04003C3F34213022BD2D1D6F890201F
:10130000DCE7304B4FF0F850596890FAA0F0B0FA93
:1013100080F02B692B4AC0B221F0F85183400B4377
:1013200053602B68FFF7EFBB2B68FFF7ECBB254A38
:10133000116898E51E46FFF79BF94FF000740746C9
:1013400020E094FAA4F3B3FA83F394FAA4F3B3FA83
:1013500083F343F02003C3F34213032B0CBFD6F8EF
:101360009430F36994FAA4F2B2FA82F202F01F0206
:1013700023FA02F2D10737D5FFF77AF9C01B6428A8
:101380003FF6EDAC94FAA4F3B3FA83F343F02003F1
:10139000C3F34213012BD4D13368E3E7094A116840
:1013A0000BE603F18043A3F53C331A6822F4803244
:1013B0001A601A6842F480221A601A6842F4803275
:1013C0001A602AE700100240052B374BD3F8902013
:1013D00022F00102C3F89020D3F8902058D022F0D8
:1013E0000402C3F8902054E705F1280358CB05F117
:1013F000340007C843EA0623013C43EA041300090A
:10140000490843EA404301395208274D43EA415312
:10141000013A43EA4263EB602B6843F080732B6030
:10142000EB6843F08073EB60FFF722F94FF0007434
:10143000064621E094FAA4F3B3FA83F394FAA4F3F2
:10144000B3FA83F343F02003C3F34213032B0CBF1F
:10145000D5F89420EA6994FAA4F3B3FA83F303F07D
:101460001F0322FA03F3DA073FF57AADFFF700F91D
:10147000801B64283FF673AC94FAA4F3B3FA83F3A9
:1014800043F02003C3F34213012BD3D12A68E2E7D0
:1014900042F00402C3F89020D3F8902042F00102F9
:1014A000C3F89020F5E600BF00100240C24B1A6856
:1014B00002F007028A422DE9F0410C46054610D29F
:1014C0001A68BD4B04299CBF22F007020A431A6028
:1014D0001B6803F007038B4200F087800120BDE802
:1014E000F08103689E0706D5B44A8168906820F0B1
:1014F000F00001439160D80751D56B68022B00F0D2
:10150000DB80002B40F0FE80022292FAA2F2B2FAB7
:1015100082F242F02002C2F34212012A00F0BC81A2
:10152000022292FAA2F2B2FA82F2022292FAA2F213
:10153000B2FA82F242F02002C2F34212032A9F4A18
:101540000CBFD2F89410D169022292FAA2F2B2FA38
:1015500082F202F01F0221FA02F2D107BED5974FA4
:10156000BA6822F003021343BB60FFF781F86B688F
:10157000022B064600F04D81032B00F05981002B11
:1015800040F00B8141F2873805E0FFF771F8801BCE
:10159000404500F28880BB6813F00C0FF5D1042C95
:1015A00040F28480844B1A68834B1A601B6803F0F6
:1015B0000703A34292D12B685A0706D57F4AE968F0
:1015C000906820F4E060014391601B0707D57B4BD6
:1015D00029699A6822F4605242EAC1029A600F2097
:1015E000FEF7D0FE0020BDE8F0810368990706D51C
:1015F000724A8168906820F0F00001439160DA0738
:10160000DAD56B68022B00F02281032B00F0D88022
:10161000002B40F06981022292FAA2F2B2FA82F221
:1016200042F02002C2F34212012A00F08B81022212
:1016300092FAA2F2B2FA82F2022292FAA2F2B2FA7A
:1016400082F242F02002C2F34212032A5B4A0CBF2C
:10165000D2F89410D169022292FAA2F2B2FA82F27E
:1016600002F01F0221FA02F2D7077FF537AF534E7F
:10167000B26822F003021343B360FEF7F9FF6B6810
:10168000022B044641F2883764D0032B79D0002B1B
:101690006CD0B36803F00C03042B8CD0FEF7E8FF8A
:1016A000001BB842F5D90320BDE8F081424B1A680F
:1016B00022F00702224377E74FF4003292FAA2F2B7
:1016C000B2FA82F242F02002C2F34212012A00F082
:1016D00030814FF4003292FAA2F2B2FA82F24FF461
:1016E000003292FAA2F2B2FA82F242F02002C2F37F
:1016F0004212032A314A0CBFD2F89410D1694FF438
:10170000003222E7032B00F0CA804FF4806292FA85
:10171000A2F2B2FA82F242F02002C2F34212012A8D
:1017200074D04FF4806292FAA2F2B2FA82F24FF4CD
:10173000806292FAA2F2B2FA82F242F02002C2F37E
:101740004212032A1D4A0CBFD2F89410D1694FF4FB
:101750008062FAE6B36803F00C03082B3FF42BAF6A
:10176000FEF786FF001BB842F4D99CE7B36813F07C
:101770000C0F3FF420AFFEF77BFF001BB842F5D9FA
:1017800091E7B36803F00C030C2B3FF414AFFEF7A2
:101790006FFF001BB842F4D985E741F2883805E0B5
:1017A000FEF766FF801B40453FF67DAFBB6803F048
:1017B0000C03042BF4D1F2E600200240001002409A
:1017C0004FF0007292FAA2F2B2FA82F242F02002D4
:1017D000C2F34212012A00F0BB804FF0007292FA6D
:1017E000A2F2B2FA82F24FF0007292FAA2F2B2FAC8
:1017F00082F242F02002C2F34212032A564A0CBF80
:10180000D2F89410D1694FF0007225E7524A11685E
:101810009DE741F2883805E0FEF72AFF801B40452E
:101820003FF641AFBB6803F00C03082BF4D1B6E6DA
:1018300041F2883805E0FEF71BFF801B40453FF66C
:1018400032AFBB6803F00C030C2BF4D1A7E64FF4C6
:10185000003292FAA2F2B2FA82F242F02002C2F30D
:101860004212012A68D04FF4003292FAA2F2B2FA80
:1018700082F24FF4003292FAA2F2B2FA82F242F00D
:101880002002C2F34212032A334A0CBFD2F894104A
:10189000D1694FF40032DFE62F4A116854E64FF069
:1018A000007292FAA2F2B2FA82F242F02002C2F37D
:1018B0004212012A43D04FF0007292FAA2F2B2FA19
:1018C00082F24FF0007292FAA2F2B2FA82F242F081
:1018D0002002C2F34212032A1F4A0CBFD2F894100E
:1018E000D1694FF0007230E64FF4806292FAA2F2B2
:1018F000B2FA82F242F02002C2F34212012A24D04C
:101900004FF4806292FAA2F2B2FA82F24FF480624D
:1019100092FAA2F2B2FA82F242F02002C2F342122A
:10192000032A0D4A0CBFD2F89410D1694FF480629B
:1019300092E6094A1168E2E6074A1168A9E7064AF1
:101940001168CEE7044A116885E6034A1168EDE79D
:10195000014A116857E700BF001002403B4B9A68EC
:1019600002F00C02042A10B452D09A6802F00C0261
:10197000082A50D09A6812F00C0F1ED1334B1A6807
:10198000120754BFD3F894101968304B304A9B6843
:1019900054BFC1F30321C1F3031113F00C0F52F82C
:1019A00021100CBF08460020284B9A6802F00C0258
:1019B0000C2A0FD05DF8044B70479A6802F00C02B5
:1019C0000C2A34D0214B9A6802F00C0200200C2A19
:1019D0000146EFD1DA68DC6802F00302C4F30214B6
:1019E000022A04F1010428D0032A17D0D868B1FBD9
:1019F000F4F1C0F3062000FB01F0144B5DF8044B3A
:101A0000DB68C3F3416301335B00B0FBF3F0704765
:101A100010480021C8E710480021C5E7D8680E4BE0
:101A2000C0F30620B3FBF4F400FB04F0E5E7DB6849
:101A300003F00303012BC5D1A0E7D868054BC0F321
:101A40000620B3FBF4F400FB04F0D6E700100240DC
:101A5000947E00080024F40000127A0008B5FFF715
:101A60007DFF094BF0229B6892FAA2F2B2FA82F251
:101A700003F0F003D2B223FA02F20449044B8A5C69
:101A8000D040186008BD00BF00100240847E0008EE
:101A90008C01001008B5FFF7E1FF084A4FF4E0633E
:101AA000926893FAA3F3B3FA83F302F4E062DBB231
:101AB00022FA03F3024AD35CD84008BD001002406A
:101AC000687E000808B5FFF7C9FF084A4FF4605365
:101AD000926893FAA3F3B3FA83F302F46052DBB291
:101AE00022FA03F3024AD35CD84008BD001002403A
:101AF000687E0008704700BF0368164A186A10B471
:101B0000012404FA01F120EA01001862186A9342E4
:101B100041EA0001196217D002F50062934213D026
:101B200002F5406293420FD002F5806293420BD0DF
:101B300002F58062934207D01A685DF8044B42F0C8
:101B4000010200201A6070475A6C42F400425A6445
:101B5000F2E700BF002C0140344A0368904270B4A1
:101B600045D0B0F1804F24D0A2F59432904220D0DD
:101B700002F5806290421CD002F58062904218D03B
:101B800002F59432904242D002F54062904214D065
:101B900002F58062904210D002F5806290420CD033
:101BA0008C680A680360C46282620123436170BC6E
:101BB00070474A6823F070031343CA688D680C6845
:101BC00023F440731A431A4B02609842C562846240
:101BD00007D003F58063984203D003F580639842F1
:101BE000E3D10B6903630123436170BC70474C6808
:101BF000CA6823F070031C4324F44074224302603B
:101C00008B68C3620B6883620B690363EBE74C6804
:101C1000CA688E680D6823F070031C4324F4407476
:101C200022430260C6628562DBE700BF002C0140F0
:101C30000040014010B50446B0B190F8393003F0CF
:101C4000FF0263B12146022351F8040B84F83930B6
:101C5000FFF782FF012384F83930002010BD80F89F
:101C60003820FFF747FFEDE7012010BD704700BFA8
:101C70002DE9F8430646806831693468F269D4F882
:101C80000090AE4BD6F80C80B769AD4D0843716932
:101C9000084340EA020109EA03030B432360636837
:101CA00023F4405343EA0803AC4263604BD0A0687E
:101CB000336AA44920F430603B4303438C42A36061
:101CC0006DD0A14B9C4200F0BD80A04B9C4200F027
:101CD00096809F4B9C421CD09E4B9C4206D0B2F5F6
:101CE000004F00F0B8800120BDE8F88303F5E03331
:101CF000D3F8883003F44073B3F5807F79D012D9DC
:101D0000B3F5007F00F08680B3F5407F00F0AD8032
:101D1000E5E703F5E233D3F8883003F0C003402B46
:101D200067D000F29D80002BD9D1B2F5004F00F0B2
:101D3000C980FFF7AFFE7368B0FBF3F083B2E360D6
:101D40000020BDE8F883A268834B22F43062174379
:101D5000A760D3F8884004F44064B4F5806F00F0C5
:101D6000E48040F2D880B4F5006F00F09180B4F5C3
:101D7000406FB8D108244FF40043726802EB42016F
:101D80009942B0D8B3EB023FADD8082C00F2C18025
:101D9000DFE804F0BCBFB7BFAABFBFBF9B006E4B5C
:101DA0006E49D3F8883003F00303CB5CB2F5004FE3
:101DB0003FD0082B97D801A151F823F0331D00081C
:101DC0002D1E00081B1E0008E71C0008F91D000856
:101DD000E71C0008E71C0008E71C0008E11D0008DC
:101DE00073684FF40042B2FBF3F3E3600020BDE8F8
:101DF000F883B2F5004F4ED0FFF7B0FD9BE703F537
:101E0000E433D3F8883003F03003102BF1D08AD9B3
:101E1000202B3AD1B2F5004F4ED07368504AB2FB36
:101E2000F3F39BB2E3600020BDE8F883FFF74AFEBE
:101E300081E7082B0FD8DFE803F045423F0E2E0E56
:101E40000E0E1B0003F5E6334649D3F8883003F045
:101E50000C03CB5CAAE700230120E360BDE8F88314
:101E6000802BD7D0C02B7FF43AAFB2F5004FB7D15B
:101E700073684FF48032B2FBF3F292B2C2F34203C2
:101E800022F00F0213430020E7E7302BEDD026E7C6
:101E90000224334B71E7FFF761FD7368346840003B
:101EA000B0FBF3F39AB2C2F3420322F00F021343E2
:101EB0000020E360BDE8F88373682B4ADBE7FFF797
:101EC00001FEEAE7FFF7E6FDE7E74FF40003B3FBA7
:101ED000F2F30020254AA3F5407191423FF603AF8B
:101EE0003268D360BDE8F883FFF738FD050E0402C1
:101EF000002372682046294605F0D4FC03460020E2
:101F0000E8E71B4B0020B3FBF2F3E3E7FFF7C2FD6A
:101F1000ECE70120DEE7002C7FF4E5AEFFF7BAFD29
:101F20000346002B7FF429AF60E7FFF717FD034658
:101F30000424002B7FF421AF58E700BFF369FFEFC3
:101F4000008000400038014000440040004800404C
:101F5000004C00400050004000100240807E00080D
:101F60000024F400707E00080048E801FFFC0F0028
:101F7000000024F4436ADA0710B406D50268816AC7
:101F8000546824F40034214351609C0706D502684C
:101F9000C16A546824F4803421435160590706D53E
:101FA0000268016B546824F48024214351601A07AD
:101FB00006D50268416B546824F400442143516003
:101FC000DC0606D50268816B946824F480542143B2
:101FD0009160990606D50268C16B946824F4005498
:101FE000214391605A0609D50268016C546824F4B3
:101FF00080140C43B1F5801F54600BD01B0606D52E
:102000000368816C5A6822F400220A435A605DF822
:10201000044B70475468416C24F4C0042143516060
:10202000ECE700BF2DE9F041174606460C461D4679
:10203000FEF71EFB80468FB9326801E0691C18D19B
:10204000D3692340A342F9D10020BDE8F081C5B196
:10205000FEF70EFBC8EB0000854211D3326801E0A9
:102060006B1CF4D1D3692340A342F9D00020BDE812
:10207000F08135B1FEF7FCFAC8EB00008542DBD2F7
:102080003268136823F080031360136823F0200381
:102090001360136823F4807313609068012120F0AB
:1020A000010000239060032086F8691086F86830EC
:1020B000BDE8F0810022036810B5C26619680907FF
:1020C000044609D41B685B070FD40123002084F861
:1020D000693084F8680010BD4FF400116FF07E4342
:1020E000FFF7A0FF68B1032010BD20464FF4800128
:1020F00000226FF07E43FFF795FF0028E5D0032014
:1021000010BD2368DEE700BF10B5044628B390F881
:10211000693003F0FF0213B32368022284F86920B8
:102120001A6822F001021A602046FFF7A1FD01287B
:1021300013D0636AC3B923685A6822F490425A6084
:102140009A6822F02A029A601A6842F00102204638
:102150001A60BDE81040FFF7ADBF012010BD80F848
:102160006820FFF783FDD7E72046FFF703FFE2E78C
:10217000254B26491A681207234A54BFD3F8940006
:102180001868936854BFC0F30320C0F3031003F032
:102190000C03082B51F8201010D00C2B10D01C4A27
:1021A000042B14BF0B461346174A1A4891681A4A63
:1021B000C1F30311415CCB4013607047174BF3E749
:1021C000D068D36800F00302C3F30213022A03F1BC
:1021D000010312D0032A14D11049B1FBF3F30A4AC8
:1021E000D068D268C2F341620132C0F306205200C7
:1021F00000FB03F3B3FBF2F3D6E70549B1FBF3F3BE
:10220000EDE7B1FBF3F3EAE700100240947E00082B
:102210000024F400847E00088C01001000127A0073
:10222000F0B5002397B019460446402206A8019352
:10223000029303930493059300F04EFE4FF48063E2
:1022400093FAA3F3B3FA83F343F02003C3F34213E7
:10225000012B61D04FF4806393FAA3F3B3FA83F3B5
:102260004FF4806393FAA3F3B3FA83F343F02003AC
:10227000C3F34213032B2C4B0CBFD3F89430DB6910
:102280004FF4806191FAA1F1B1FA81F101F01F01DF
:1022900023FA01F111F0010102D0002017B0F0BDC6
:1022A00016AD012345F8543D2846FFF7FFF80323F8
:1022B0000693002C33D04FF4A02307931822072352
:1022C0004FF0000E02210424032601270DEB02002B
:1022D0001393CDF824E010960F9111971292149455
:1022E0001594FEF75DFB03460028D6D10F22284641
:1022F000214603930493059302960192FFF7D6F8C3
:1023000003460028C9D1102206A80C930F93069209
:10231000FEF746FB3846C1E7034B1B68B0E74FF4B6
:1023200080330793CAE700BF00100240F0B50023D6
:1023300097B01946402206A8019302930393049391
:10234000059300F0C9FD0422012306A80692089314
:10235000FEF726FB20B91B4B1A6842F004021A60F4
:102360000123002402224FF0130E072106A8602744
:10237000282604250C9310931193CDF818E00794A8
:1023800009940D940E970F9215921296139114952D
:10239000FEF706FB034610B1204617B0F0BD03223E
:1023A00029460F240DEB0500039304930593019434
:1023B0000292FFF77BF8D0F1010038BF002017B080
:1023C000F0BD00BF0010024008B50120FFF728FF54
:1023D00000B108BDFFF7AAFF0028FAD1FEE700BF51
:1023E000174B1848D3F8882070B542F47002164C89
:1023F000C3F888202268154D002142F001022260B6
:10240000A160226822F0A85222F410224FF4006644
:102410002260E66026684FF0006226F4802626607F
:10242000A1619A600560FEF709F9FFF7CDFFA36B84
:1024300043F00803A363A36B23F00803A36370BDF9
:1024400000ED00E08C0100100010024000093D008A
:10245000F8B5144B90F91970026804698668C5686C
:102460001A604FF400610022DC60013744695E604D
:102470009D601C6119629A61DA6110D090F9182090
:1024800001320CBF04220C225A610648FFF73CFEC1
:1024900000B9F8BD0448BDE8F84000F0F7B80822DC
:1024A0005A61F2E730040010C47E0008F0B504461B
:1024B00087B008460E465749154600F051F956496F
:1024C0000746284600F04CF90146384600F036F938
:1024D000411C206000F08680504B4FF41652984209
:1024E000A26056D04E4B984232D04E4B984268D1A3
:1024F00003F5E4339A6D42F480229A659B6D03F4F0
:1025000080230293029A022363603046414900F01F
:10251000F3F82846404900F0EFF8721C03D030462B
:10252000012100F055FA6B1C03D02846012100F070
:102530004FFA0023E36023616361267665762046C7
:10254000FFF786FF364A2368934230D007B0F0BDCC
:1025500003F5E6339A6D42F400329A659B6D03F4FD
:1025600000330193019A012363602F4B9842CCD131
:1025700003F5C833DA6D42F00102DA65DB6D03F072
:1025800001030593059B4FF416420523A260636087
:10259000BBE703F558431A6E42F480421A661B6E7D
:1025A00003F4804300930023009A6360DDE71F4B30
:1025B0001F4821461C2201241C6000F084FC07B047
:1025C000F0BD1C4B984214D103F5E2339A6D42F4EE
:1025D00000229A659B6D03F4002303930323039A5F
:1025E000636092E714481549552200F043F82068CB
:1025F00072E7134B9842B8D103F5E0339A6D42F479
:1026000080129A659B6D03F4801304930423049A4B
:1026100063607AE758810008E080000800380140D4
:10262000004400400048004000800040A00300102B
:10263000A0040010004C0040DC7E0008F87E00087A
:10264000005000400268D3699B06FCD5024B908C79
:102650001A60C0B2704700BF300400100268D3692E
:102660001B06FCD5024BC9B211851A60704700BF2A
:102670003004001010B40C461346014622460248AE
:102680005DF8044B00F002B8A07F00080FB400B55D
:10269000064B83B004AA1B6852F8041BD868019249
:1026A00000F058FE012000F021FA00BFF0010010F8
:1026B00038B50D46044600F0ABF8013510D094F95A
:1026C000003001330DD0236962681A602046012171
:1026D00000F0BAF820460021BDE8384000F0B0B85C
:1026E00038BD034803493522FFF7C4FFEBE700BFBD
:1026F000D47F0008EC7F0008431C10B5044619D0B5
:1027000091F90030581C04D10FE011F90C3F5A1C0C
:102710000BD09C42F9D12046896800F029F9204667
:102720000021BDE8104000F053B90348BDE8104057
:10273000FFF7ACBF10BD00BF5C800008884208B541
:102740000AD0431C07D0013106D00448FFF79EFF92
:102750004FF0FF3008BD084608BD00BF708000087C
:1027600008B5431C0DD091F900305A1C04D109E082
:1027700011F90C3F5A1C05D09842F9D14868411C08
:1027800000D008BD0248FFF781FF4FF0FF30F8E7A7
:1027900084800008014800F07FB900BFD88000089D
:1027A00038B5054600F04EF9044600F04BF9001B21
:1027B000A842FAD338BD00BF07EE100ADFED047A55
:1027C00067EE277AFDEEE77A17EE900AFFF7E8BF8B
:1027D000002474494FF47A7303FB00F0FFF7E0BF65
:1027E000431C10B5044608D02046002100F0C0F874
:1027F00004F00F040120A04010BD03480349272224
:10280000FFF738FFF0E700BFD0810008E48100083F
:1028100070B504464B1C0D46217010D0C1F3031057
:1028200000F032F806462846FFF7DAFF06F11002FC
:1028300006F1180328366060A260E360266170BD6F
:1028400090F9000000F0C4B838B5054690F90000D2
:10285000431C0C460BD0012C04D00021BDE83840AD
:1028600000F086B82146BDE8384000F081B8044841
:1028700004494722FFF7FEFE95F90000EBE700BF91
:10288000D47F0008E481000800B587B007285AD833
:10289000DFE800F012212F3D4B5959042D4B2E48F3
:1028A000DA6C42F08002DA64DB6C03F0800305939B
:1028B000059B07B05DF804FB264BDA6C42F0010281
:1028C000DA64DB6C03F001030093009B4FF090404F
:1028D00007B05DF804FB1F4B2048DA6C42F002029F
:1028E000DA64DB6C03F002030193019B07B05DF82F
:1028F00004FB184B1A48DA6C42F00402DA64DB6C11
:1029000003F004030293029B07B05DF804FB114B34
:102910001448DA6C42F00802DA64DB6C03F0080356
:102920000393039B07B05DF804FB0A4B0E48DA6C77
:1029300042F01002DA64DB6C03F010030493049B92
:1029400007B05DF804FB0948FFF7A0FE002007B0C0
:102950005DF804FB00100240001C00480004004821
:1029600000080048000C004800100048848200085D
:1029700030B5431C87B005460C461CD0C5F3031088
:10298000FFF782FF05F00F0504F00F0201210D4B48
:1029900001FA05F553F8223001950322C4F302151C
:1029A00001A9C4F3C3140293039505940492FDF79F
:1029B00079FE07B030BD044804495F22FFF75AFE94
:1029C000DCE700BF4C820008D0810008A882000824
:1029D00038B5431C04460D4618D0C4F30310FFF766
:1029E00053FF04F00F04C268022D4FEA44044FF075
:1029F000030198BFA54001FA04F422EA0404C4606C
:102A0000C26888BF00251543C56038BD0248034928
:102A10008422FFF72FFEE0E7D0810008A88200089B
:102A2000054B186800B17047044A0549116001223E
:102A30001A60FDF7A7BC00BFE8030010AC0300104C
:102A4000000C004008B5044B1B680BB9FFF7E8FF0A
:102A5000024B586A08BD00BFE8030010000C00409C
:102A6000034B1B685863DA6842F00202DA60704771
:102A7000AC030010034B1B68DA6822F00202DA6034
:102A8000704700BFAC030010024B1B686FF00202DE
:102A90001A617047AC03001038B50368DB68044660
:102AA000984763685B6883B122681D6853689847DC
:102AB000281A002862680CDC50681168836853602B
:102AC0000029F0D040688847EBE723689B68984767
:102AD00038BD236852681B691068984738BD00BF2D
:102AE000014B1868704700BFF001001008B5074B94
:102AF000044613B10021AFF30080054B1868836AC8
:102B000003B198472046FDF75BFD00BF00000000C1
:102B1000708300088A892DE9F041054610070C46AC
:102B200057D44B68002B02DC0B6C002B18DDE66AD7
:102B3000B6B102F48052002392B22F682B600AB122
:102B4000626D10E0216A28460123B047411C02460D
:102B500009D12B683BB11D2B01D0162B46D12F601C
:102B60000020BDE8F081A3895B0705D56368D21A10
:102B7000636B0BB1236CD21AE66A216A28460023E4
:102B8000B047461CA28905D12B681BB11D2B01D073
:102B9000162B19D100236360D1042369236004D567
:102BA000421C01D12B6803B96065616B2F6000295D
:102BB000D6D004F14403994202D0284600F094F99B
:102BC00000206063BDE8F08142F04002A281BDE8D0
:102BD000F0810E69002EC3D00B680E60C6EB0308AF
:102BE00093070CBF4B6900238B6012E0A38943F06D
:102BF0004003A3814FF0FF30BDE8F081A76A216A4E
:102C0000284632464346B8470028EFDD0644C0EB6D
:102C10000808B8F1000FF1DCA2E7000038B50B6935
:102C200005460C46DBB118B183690BB900F086F894
:102C30000C4B9C4201D16C6808E00B4B9C4201D1CB
:102C4000AC6803E0094B9C4208BFEC68B4F90C3057
:102C50002BB128462146BDE83840FFF75BBF002076
:102C600038BD00BF0C8300082C8300084C8300088B
:102C7000014620B9044B0549186800F0C9B8044B57
:102C80001868FFF7CBBF00BF708300081D2C000839
:102C9000F0010010F8B5074600F1480494B1A568AA
:102CA0006668013E0CD4AB89012B07D9B5F90E300B
:102CB000013303D038462946FFF7B0FF6835F0E707
:102CC0002468EBE7F8BD0000002310B5044603605C
:102CD0004360836081814366C28103614361836194
:102CE00019465C30082200F0F7F8054B6362054B8B
:102CF000A362054BE362054B2462236310BD00BF52
:102D0000393000085B30000893300008B730000805
:102D100070B54B1E68255D430E4605F1740100F049
:102D200027F9044640B1002180E842000C30A06041
:102D300005F1680200F0D0F8204670BD836910B537
:102D4000044633BB8364C3640365124B124A1B6899
:102D50008262984204BF0123836100F01FF8606023
:102D6000204600F01BF8A060204600F017F8042170
:102D7000E06000226068FFF7A7FFA0680921012238
:102D8000FFF7A2FFE06812210222FFF79DFF012357
:102D9000A36110BD70830008952C0008F8B51B4B8B
:102DA0001E68B369074613B93046FFF7C7FF4836B8
:102DB000B4687368013B04D4B4F90C5075B168343D
:102DC000F8E733682BB938460421FFF7A1FF3060DC
:102DD00008B13668ECE70C233B60F8BD4FF6FF7393
:102DE000E3810123A38165662560A5606560256197
:102DF0006561A56104F15C002946082200F06CF8C9
:102E00006563A563A564E5642046F8BD708300088A
:102E10002DE9F8438046894600F14804002694B124
:102E2000A5686768013F0CD4AB89012B07D9B5F9B8
:102E30000E30013303D040462946C8470643683563
:102E4000F0E72468EBE73046BDE8F88370B50E4B39
:102E50000E4DED1AAD1000241E46AC4204D056F8BB
:102E6000242090470134F8E704F0F2FF084D094BA5
:102E7000ED1AAD1000241E46AC4204D056F82420B2
:102E800090470134F8E770BD3002001030020010A6
:102E90003802001030020010024B0146186800F0A2
:102EA00067B800BFF001001010B5C9B202449042EB
:102EB000034606D01C788C4200F10100F7D1184679
:102EC00010BD002010BD10B50023934203D0CC5C90
:102ED000C4540133F9E710BD02440346934202D0C3
:102EE00003F8011BFAE7704730B500293CD051F8D0
:102EF000042C0B1F1D49002AB8BF9B180A680C46FA
:102F000012B95A600B6030BD93420DD2196858183F
:102F1000904203D15A581144426819605A602360A4
:102F200030BD994203D80A4651680029F9D1146886
:102F300015199D420AD11B682344D018884213609A
:102F400012D10868034413604B680CE002D90C23CB
:102F5000036030BD18681C188C4203D10C684968A6
:102F6000204418605960536030BD00BFF00300106A
:102F700070B5CD1C25F0030508350C2D38BF0C2588
:102F8000002D06463FDB8D423DD3214B1C68184681
:102F90002146A1B10B685B1B0ED40B2B03D90B6030
:102FA000CC18CD501FE08C4202D1626802601AE05A
:102FB0004B6863600C4616E00C464968E9E7154C1F
:102FC00023681BB9304600F027F8206029463046B8
:102FD00000F022F8431C014615D0C41C24F0030461
:102FE00084420AD1256004F10B00231D20F0070064
:102FF000C31A0BD05A42E25070BD3046611A00F03D
:103000000BF80130EED10C233360002070BD00BFFF
:10301000F0030010EC03001038B5064C0023054601
:1030200008462360FDF7B8FA431C02D1236803B1B8
:103030002B6038BDBC04001010B50C46B1F90E1061
:1030400002F086FB002803DB636D0344636510BD5B
:10305000A38923F48053A38110BD2DE9F0411D46BF
:103060008B89DB0507460C46164605D5B1F90E10CF
:103070000022022301F0C0FEA389B4F90E1023F44C
:103080008053A381384632462B46BDE8F04100F01C
:10309000D7BF10B50C46B1F90E1001F0ADFE431CC0
:1030A000A38903D123F48053A38110BD43F480533B
:1030B000A381606510BDB1F90E1001F041B803465F
:1030C00013F8012B002AFBD1181A0138704770B58C
:1030D00092B10B4605461C7810F8016BB44201F121
:1030E000010101D1012A03D128781B78C01A70BDD3
:1030F000013A002CEDD1F7E7104670BD9368013B13
:10310000002B10B5936005DA9469A34208DBCBB2BB
:103110000A2B05D01368581C10601970C8B210BD76
:10312000BDE8104000F038BFF8B505460E4614461D
:10313000D718BC4208D0284614F8011B3246FFF7C6
:10314000DDFF431CF5D100E00020F8BD2DE9F04380
:103150009DB00D4617460393064618B183690BB917
:10316000FFF7ECFD734B9D4201D1756808E0724B8F
:103170009D4201D1B56803E0704B9D4208BFF568E0
:10318000AB8918070AD52B6943B100230993202383
:103190008DF8293030238DF82A3038E03046294622
:1031A00000F060FF0028F0D04FF0FF30BFE0039A3E
:1031B000111D12680391002A70DB079201342378F5
:1031C0002E2B7DD05E4F217838460322FFF76CFE10
:1031D00030B1C71B049B4020B84003430493013423
:1031E000217858488DF828100622671CFFF75CFEEE
:1031F000002800F08A80544B002B7DD1039B0733BD
:1032000023F0070308330393099B434409933B4688
:103210001C4613F8012B1AB9B4EB07090ED002E0D3
:10322000252AF5D1F8E7304629463A464B46FFF7BE
:103230007BFF013076D0099B4B4409932378002B08
:1032400070D000234FF0FF3204930793059206934A
:103250008DF853301A9304F101094C463B4F217805
:1032600038460522FFF720FE09F10109049B28B129
:10327000C71B0120B84003430493EEE7D90644BFBF
:1032800020228DF853201A0744BF2B228DF853209B
:1032900022782A2A8BD0079B214605E0524243F030
:1032A00002030792049389E70C4601312278303AF1
:1032B000092A03D80A2000FB0323F5E707937EE7DA
:1032C00063782A2B0AD1039B1A1D1B680392002BDB
:1032D00004F10204B8BF4FF0FF330BE0611C002380
:1032E0000C4601312278303A092A03D80A2000FB23
:1032F0000323F5E7059365E703AB0093304604A984
:103300002A46134B00F0C8F807E003AB00933046A1
:1033100004A92A460E4B00F03FFBB0F1FF3F804668
:103320007FF472AFAB895B063FF53EAF09981DB0E5
:10333000BDE8F0830C8300082C8300084C83000850
:103340007A8300087E83000899340008748300089B
:103350002931000830B51346044A05460C4610686A
:1033600029462246BDE83040FFF7F0BEF0010010CC
:103370002DE9F04788B0002B14461D46109E129987
:10338000139F05DA05F100431D4614462D2300E086
:1033900000230B70149B23F0200ABAF1460F04D0CF
:1033A000BAF1450F03D1013601E0032300E0022307
:1033B0008DE8C80006AB039307AB049322462B4667
:1033C00000F05EFFBAF1470F804602D1119BDB0788
:1033D00025D5BAF1460F08EB06090FD198F8003051
:1033E000302B09D1204629460022002304F090F911
:1033F00010B9C6F101063E603B6899442046294653
:103400000022002304F084F908B1CDF81C90079B3A
:103410004B4504D25A1C079230221A70F7E7079BDB
:10342000C8EB0302159B40461A6008B0BDE8F08760
:10343000034673B5002903F8022B03DA49421A4602
:103440002D2401E01A462B24092944701ADD0DF1C0
:1034500006040A2691FBF6F506FB15113031092DFD
:10346000234604F801192946F3DC05F1300103F87D
:10347000011D0DF107018B420AD213F8011B02F85E
:10348000011BF6E730241A46214402F8024B59701A
:10349000101A02B070BD00002DE9F04F8FB00C463D
:1034A00016461F46DDF86090054601F0A1FCD0F8F5
:1034B00000A05046FFF703FE00230C93D9F800301C
:1034C0000990073323F00703D3E9000103F1080251
:1034D00094F81880C9F80020C4E9120102F04AF9F2
:1034E0000128D4E9120117D10022002304F01AF9AF
:1034F00010B12D2384F84330904B914AB8F1470F17
:103500008CBF9146994603232361236823F004036B
:1035100023604FF0000B86E002F02CF9236848B9D5
:10352000884A8949B8F1470F8CBF894691460322E2
:103530002261EBE76268511C28F0200B01D10622C2
:1035400004E0BBF1470F02D10AB901226260606852
:10355000CDF8108043F480618DE803000DF12B005D
:1035600002900BA803900CA8059000202160069003
:10357000D4E912232846FFF7FBFEBBF1470F814633
:103580000B9909D1C81C02DB6368994230DDA8F1B0
:1035900002085FFA88F802E0B8F1650F12D8013925
:1035A000424604F150000B91FFF742FF0C9A83183A
:1035B000012A8346236102DC2268D2072DD501331C
:1035C00023612AE0B8F1660F14D10029636807DD92
:1035D000216113B92268D0071CD501330B4418E0D0
:1035E00013B92268D20701D5023312E0012310E09B
:1035F0004FF067080C9A914205DB23682161D807D8
:1036000008D54B1C05E00029D4BFC1F102030123FA
:1036100013442361A1654FF0000B9DF82B3013B1CB
:103620002D2384F843300097284621460DAA3346BF
:1036300000F040F9013002D14FF0FF3036E123684D
:103640005A0504D4284631464A46236908E1B8F1B0
:10365000650F40F2CB80D4E912010022002304F070
:1036600057F800282AD028463146384A0123B8475F
:103670000130E1D00C9B0B9A9A4207DB2368D807F4
:1036800004D423689B0700F1F880FDE0284631460A
:103690005246099BB8470130CED04FF000080C9B32
:1036A000013B9845EDDA2846314604F11A02012320
:1036B000B8470130C0D008F10108F0E70B9B002BA0
:1036C00028DC28463146214A0123B8470130B3D0CF
:1036D0000B9B23B90C9B13B92368D907D1D5284676
:1036E00031465246099BB8470130A5D04FF000083B
:1036F0000B9B5B4298452846314608DA04F11A02D2
:103700000123B847013097D008F10108F0E74A4695
:103710000C9BA5E0A36D0C9A9A42B4BF93469B46BE
:10372000BBF1000F02DC4FF000081CE028463146D8
:103730004A465B46B8470130F5D17DE785830008EE
:10374000898300088D830008918300089583000811
:103750002846314604F11A020123B84701303FF4EC
:103760006BAF08F10108A36D2BEAEB729A1A904532
:10377000EEDB09EB03080B9A0C9B9A420FDB2368E4
:10378000DA070CD40C9B0B9A9944C8EB09099B1AD5
:103790009945A8BF9946B9F1000F08DC0FE028460B
:1037A00031465246099BB8470130EBD144E72846E1
:1037B000314642464B46B84701303FF43DAF4FF0EB
:1037C00000080AE02846314604F11A020123B847EE
:1037D00001303FF431AF08F101080B9B0C9A29EA44
:1037E000E971D31A5B1A9845ECDB4AE70C9A012A77
:1037F00001DCDB0739D5284631464A460123B84764
:1038000001303FF419AF284631465246099BB8476C
:1038100001303FF411AFD4E912010022002303F07C
:1038200077FF10B14FF0000811E00C9B284631469D
:1038300009F10102013B1CE02846314604F11A025D
:103840000123B84701303FF4F7AE08F101080C9BA3
:10385000013B9845F0DB2846314604F150025B46B7
:10386000B84701307FF40DAFE6E6284631464A46B8
:103870000123B8470130EED1DEE64FF00008E268E0
:103880000D9BD31A984505DBE0680D9B9842B8BFA5
:1038900018460BE02846314604F119020123B847C7
:1038A00001303FF4C9AE08F10108E8E70FB0BDE808
:1038B000F08F00BF2DE9F84315461F468A680B6953
:1038C000DDF820809A42A8BF13462B6091F8432070
:1038D00006460C460AB101332B602368990602D5CF
:1038E0002B6802332B60236813F006091DD094F86F
:1038F00043302268003318BF012392061FD5E11818
:103900005A1C302081F84300224494F8451082F874
:103910004310023313E03046394604F11902012303
:10392000C047013007D009F10109E2682B68D31ABA
:103930009945F0DBDBE74FF0FF30BDE8F883304618
:10394000394604F14302C0470130F4D023682A68A5
:10395000E16803F00603042B08BFC2EB01052369ED
:10396000A2680CBF25EAE57500259A42C4BFC3EBE7
:103970000203ED184FF00009A9450ADA304639462E
:1039800004F11A020123C0470130D4D009F1010922
:10399000F2E70020BDE8F8832DE9FF470E7E0C9D7D
:1039A0006E2E80460C4691469A4601F1430000F087
:1039B000A58011D8632E22D009D8002E00F0AF8048
:1039C000582E40F0BF8081F845607B4A4FE0642E5E
:1039D0001ED0692E1CD0B5E0732E00F0A48009D84B
:1039E0006F2E2BD0702E40F0AD800B6843F020037B
:1039F0000B6038E0752E21D0782E34D0A2E02B68F1
:103A00001A1D1B682A6001F1420781F842309DE0CF
:103A100022682B6812F0800F03D01A1D2A601D68DF
:103A200005E05106F9D51A1D2A60B3F90050002DA2
:103A300039DA2D236D4284F8433034E022682B6854
:103A400012F0800F03D01A1D2A601D6804E0520690
:103A5000F9D51A1D2A601D88237E574A6F2B14BF83
:103A60000A2308231BE07823544A84F8453023684E
:103A7000296813F0800F01F104062E6001D00D6853
:103A800002E05F06FBD50D88DE0744BF43F020034C
:103A900023601DB9236823F0200323601023002135
:103AA00084F8431001E0444A0A236668A660002EA9
:103AB00003DB216821F00401216005B96EB104F136
:103AC0004201B5FBF3F603FB16550F46555D01F8B1
:103AD00001593546002EF4D100E00746082B0AD1E3
:103AE0002368DD0707D5626823699A4203DC302327
:103AF00007F8013C013FC01B20612CE009682B68DE
:103B0000626911F0800F04D0191D29601B681A60CA
:103B100005E04906F8D5191D29601B681A800023A5
:103B20002361074617E02B681A1D2A601F68384674
:103B3000FFF7C5FA63682061984288BF2361236953
:103B4000636005E004F1420784F8426001232361C9
:103B5000002384F84330CDF800A04046214603AA54
:103B60004B46FFF7A7FE013002D14FF0FF301FE0B8
:103B7000404649463A462369D0470130F5D023688C
:103B80009B0705D4E068039B9842B8BF18460FE036
:103B90000025E268039BD31A9D42F3DA404649466A
:103BA00004F119020123D0470130DED00135F0E7DE
:103BB00004B0BDE8F08700BF97830008A883000821
:103BC0002DE9F04F164687B08A680293531EB3F56D
:103BD000AE7F07460C4606D96FF4AE731A4440F226
:103BE0005D138B6000E000222368A04643F4F0637D
:103BF00048F81C3B4FF0000B4546DA46CDF814B0B0
:103C0000CDF810B0D946CDF80CB0A168002900F06D
:103C1000E98033681B78492B75D016D8392B0DD81D
:103C2000312B3ED22D2B45D002D82B2B42D0D9E0C0
:103C30002E2B00F09780302B23D0D3E0452B00F0C3
:103C40009A80462B7CD0412B0CE0652B00F09380B2
:103C50000AD8542B7AD002D84E2B33D0C2E0592B3D
:103C60007AD0612B49D0BDE06E2B2BD004D8662BC7
:103C700066D0692B47D0B5E0742B67D0792B6BD019
:103C8000B0E0206810F4807F0BD020F0800020602E
:103C900009F10109002A00F08C800131013AA1608C
:103CA00087E00AEB0B01002940F09C80216821F499
:103CB000C07105E02168080640F1948021F0800180
:103CC000216074E0BAF1000F0ED1B9F1000F0ED1EE
:103CD000216801F4E060B0F5E06F08D121F4F061F3
:103CE00021604FF0010A62E0BAF1020F5DD0BBF132
:103CF000010F20D0BBF1040F1CE0BAF1010F71D10C
:103D00004FF0020A53E0BBF1000F0ED1B9F1000FE2
:103D10006BD1216801F4E060B0F5E06F69D121F466
:103D2000F06121604FF0010B41E0BBF1030F02D0C5
:103D3000BBF1050F56D10BF1010B5FFA8BFB36E09F
:103D4000BBF1020F4ED14FF0030B30E0BBF1060F79
:103D500048D14FF0070B2AE0BBF1070F42D14FF0DB
:103D6000080B24E0216888053CD521F420712160EE
:103D7000CDF80C901BE0216801F4A060B0F5806FD5
:103D800004D048052ED5B9F1000F32D0880504D4EF
:103D900003980595C0EB0900049021F4F06141F40B
:103DA000C07121604FF0000901E04FF0030A2B7051
:103DB0000135A368013BA360236901332361736864
:103DC000013B002B736003DD3368013333601CE774
:103DD0000192D4F88031384631469847019A00283C
:103DE0003FF413AFB9F1000F03D0236823F48073BD
:103DF00023600AF1FF3ABAF1010F10D845452A466F
:103E00000BD9D4F87C3112F8011C38463246984759
:103E10002369013B013D2361F0E70126B5E00BF189
:103E2000FF33062B2CD8BBF1020F1AD9ABF1030BD1
:103E30005FFA8BFBAA46CBEB050CE2450ED0D4F81B
:103E40007C311AF8011DCDF804C038463246984737
:103E50002369DDF804C0013B2361EEE7CBEB0505E8
:103E60000EE045452A46D8D9D4F87C3112F8011C19
:103E70003846324698472369013B013D2361F0E70C
:103E80002368DA052ED55B050ED545452A46C4D9EB
:103E9000D4F87C3112F8011C384632469847236921
:103EA000013B013D2361F0E715F8011C23696529F9
:103EB00003F1FF3305F1FF3A23610DD045290BD003
:103EC000D4F87C31384632469847236915F8021CED
:103ED000013BA5F1020A2361D4F87C313846324611
:103EE00098475546266816F010064DD12E70236867
:103EF00003F4C063B3F5806F05D10399C1EB0903E7
:103F00005A4263B915E0049D9DB1059D3246691C76
:103F100038460A2302F0C8FA049D421B059D04F2AC
:103F20006F139D4228BF04F5B7752846194901F063
:103F300047FC41460022384601F09AFC2268029D67
:103F400012F0020F804689462B6802D01A1D2A60A3
:103F500006E0029D12F0040F03F104022A6003D070
:103F60001B68C3E900890BE01D6801F003FC10B970
:103F700001F022FC03E04046494603F043FC286080
:103F8000E3680133E36000E00026304607B0BDE897
:103F9000F08F00BFB983000870B50E461446054681
:103FA00018B183690BB9FEF7C9FE224B9C4201D1BF
:103FB0006C6808E0204B9C4201D1AC6803E01F4BC9
:103FC0009C4208BFEC68A369A360A3891A0709D5BE
:103FD00023693BB123692068C01A63699842F6B22D
:103FE0000FDB08E02846214600F03CF80028F1D01D
:103FF0004FF0FF3070BD28462146FEF70FFE002827
:10400000F6D1A368013BA36023685A1C22601E708E
:1040100063690130984204D0A389DB0707D50A2ED3
:1040200005D128462146FEF7F9FD0028E0D13046AB
:1040300070BD00BF0C8300082C8300084C8300086F
:1040400038B5074C054600202060084611461A4640
:10405000FCF710FA431C02D1236803B12B6038BD72
:10406000BC040010324B70B51D6806460C4625B1E5
:10407000AB6913B92846FEF761FE2E4B9C4201D175
:104080006C6808E02C4B9C4201D1AC6803E02B4BE0
:104090009C4208BFEC68A28993B2190720D4DD06C0
:1040A00005D4092342F040023360A2813BE0580767
:1040B00012D5616B41B104F14403994202D03046FC
:1040C000FEF712FF00236363A38923F02403A38177
:1040D0000023636023692360A38943F00803A3815D
:1040E00023694BB9A38903F42073B3F5007F03D090
:1040F0003046214600F092FEA38913F0010205D05C
:104100000022A26062695242A26103E0990758BF8F
:104110006269A26022694AB903F0800080B230B1BE
:1041200043F04003A3814FF0FF3070BD002070BD0D
:10413000F00100100C8300082C8300084C83000859
:1041400038B5064C0023054608462360FCF77CF989
:10415000431C02D1236803B12B6038BDBC0400109E
:104160002DE9F74F03690C69A3428046C0F28180B4
:10417000013C01F11407A20000F1140591460092E0
:1041800057F824602A44019255F824200136B2FBE6
:10419000F6F6B944002E3AD04FF0000E3A462846C3
:1041A000F34652F804CB03681FFA8CFA4FEA1C4C12
:1041B0000AFB06EA0CFB06FC0CEB1A4C1FFA8AFA07
:1041C000CAEB0B0A4FEA1C4E1FFA8CFC1AFA83FA50
:1041D000CCEB134C0CEB2A4C1FFA8AFA4AEA0C4A35
:1041E0004A454FEA2C4B40F804ABDAD9009AAB5859
:1041F0006BB9019A131FAB421A4602D8C8F8104097
:1042000005E01268043B002AF8D1013CF3E7404680
:1042100001F0C5F800282ADB01362B46002057F8AC
:1042200004CB1A681FFA8CF1411A4FEA1C4C11FAA0
:1042300082F1CCEB124202EB214289B210144F45BD
:1042400041EA024243F8042BE9D955F8242005EB52
:10425000840362B9043BAB421A4602D8C8F8104046
:1042600005E01268043B002AF8D1013CF3E7304630
:1042700000E0002003B0BDE8F08F00000000000067
:104280002DE9F04F456A9BB08246279CCDE9042377
:1042900045B91020FEF700FECAF82400456085608D
:1042A0000560C560DAF82430196861B15B684B605D
:1042B000012202FA03F38B60504600F04DFEDAF85B
:1042C000243000221A600599002905DA012321F023
:1042D00000422360059201E000232360059F9C4A71
:1042E00027F000431B0D1B0593421DD12699049A0C
:1042F00042F20F730B6042B9964B974AC7F3130013
:1043000000280CBF1046184600E09248289F002F56
:1043100000F06885C37813B100F1080300E0C31C06
:10432000289F3B6000F05EBDDDE904450022204689
:104330002946002303F0ECF9804658B1269F01235B
:104340003B60289F002F00F04A8584483860013880
:1043500000F048BD19AB009318AB019350462246BC
:104360002B4601F00CF9C7F30A5683465EB1C5F33C
:10437000130343F07F51204641F44011A6F2FF366B
:10438000CDF854801CE0199B189E1E446FF4826384
:104390009E4209DB04991F3306F212409B1B21FA4F
:1043A00000F09F40384304E06D48049A801B02FAF5
:1043B00000F002F0CFFE0127A1F1F871013E159740
:1043C0000022684B02F088FD5BA3D3E9002302F0D2
:1043D00037FF5BA3D3E9002302F080FD044630469B
:1043E0000D4602F0C7FE58A3D3E9002302F028FFD0
:1043F00002460B462046294602F070FD04460D4653
:1044000003F0B8F92946814600222046002303F034
:1044100089F958B1484602F0ADFE02460B462046E7
:10442000294603F075F908B909F1FF39B9F1160FFA
:104430000DD84D4B03EBC903D3E90001DDE904239B
:1044400003F08EF930B109F1FF39002700E00127B0
:10445000149700E01490189B9E1B013E099604D50A
:10446000774208970027099701E000270897B9F1DC
:10447000000F07DB099FCDF844904F4409970027B0
:104480000E9708E0089FC9EB07070897C9F10007D6
:104490000E9700271197249F092F28D8052FC4BFF6
:1044A000043F2497249FA7F10203CCBF00250125D8
:1044B000032B21D8DFE803F0060F0204012702E0F6
:1044C000012709E000270F97259F002F1EDD0B977E
:1044D00007973B461FE000270F97259F4F440B97F8
:1044E00001373B460797012BB8BF012313E0012595
:1044F000002724970F9501E001270F974FF0FF3712
:104500000B97079700271223259704E001270B97A5
:1045100007973B462597DAF8244000226260042181
:1045200001F114029A4221D86268013262604900A6
:10453000F6E700BFAFF3008061436F63A787D23F08
:10454000B3C8608B288AC63FFB799F501344D33F82
:104550000000F07FC8840008BF840008968300082C
:10456000EEFBFFFF0000F83FD8840008504661686A
:1045700000F0BDFCDAF82430079F20601B680A9326
:104580000E2F00F26981002D00F066819DED047B05
:10459000B9F1000F8DED127B31DD804A09F00F0378
:1045A00002EBC30393ED007B4FEA2914E0068DED87
:1045B0000C7B0CD57A4BDDE91201D3E9082302F01C
:1045C00069FF04F00F04CDE90401032700E002278E
:1045D000734D6CB1E10708D5DDE90C01D5E9002385
:1045E00002F02EFECDE90C01013764100835F0E72A
:1045F000DDE90401DDE90C2302F04CFF1BE0C9F109
:104600000004DCB1654B664D04F00F0203EBC203FE
:10461000DDE91201D3E9002302F012FE2411022782
:104620004CB1E20704D5D5E90023013702F008FEBA
:1046300064100835F4E7CDE9040100E0022714997D
:10464000E1B1DDE90445002220462946554B03F03F
:1046500069F8C0B1079ADAB10B9B002B40F3F880E0
:1046600009F1FF3110910022204629464E4B02F0FD
:10467000E7FD0137CDE904010B9A0CE0079BCDF86B
:1046800040900C9308E00799CDF840900C9103E01E
:10469000079ACDF840900C92384602F06BFDDDE9A8
:1046A000042302F0CDFD0022404B02F017FC0C9FCA
:1046B0000446A1F15075CFB900223D4BDDE904015C
:1046C00002F00AFC22462B4606460F4603F048F845
:1046D000002840F04B82224605F10043304639461F
:1046E00003F020F8002840F03782B1E00C9F2B4BFC
:1046F0007A1E0F9F03EBC203002F5DD0D3E9002386
:1047000000202C4902F0C6FE22462B4602F0E4FBB4
:10471000DDE90467DDF8288004460D463946304659
:1047200003F028F8029002F025FD02460B463046C1
:10473000394602F0D1FBDDF808C00CF1300308F86F
:10474000013B22462B4606460F4602F0EBFF0028AF
:1047500040F0338332463B460020124902F0BCFB56
:1047600022462B4602F0DEFF002840F0D4800A9952
:104770000C9AC1EB080393426ADA204629460022CC
:10478000094B02F05DFD002204460D4630463946D5
:10479000054B02F055FD06460F46BFE7D8840008DA
:1047A000A08500080000F03F0000244000001C40ED
:1047B000000014400000E03FD3E9000122462B46F0
:1047C00002F03EFDDDF828800C9B0A9CCDE9160125
:1047D000DDE9046798443946304602F0CBFF0546D0
:1047E00002F0C8FC303502460B463046394602F02E
:1047F00073FB04F8015B444506460F4621D10022B5
:10480000874BDDE9160102F069FB02460B46304694
:10481000394602F0A5FF00287DD1DDE916230020EE
:104820007F4902F059FB02460B463046394602F0FA
:1048300079FF68B1A046013C18F8013C302BF9D053
:10484000BBE20022774B02F0FBFC06460F46C2E7B4
:104850009DED127B8DED047B199B002B7CDBB9F168
:104860000E0F79DC704B259F03EBC903002FD3E9B2
:10487000004514DA079F002F11DC40F06F812046BD
:1048800029460022694B02F0DBFCDDE9042302F03B
:104890005DFF079D2C46002840F062816AE1DDE95A
:1048A0000467DDF8288022462B463046394602F060
:1048B000F1FD02F05FFF049002F05CFC22462B4603
:1048C00002F0BEFC02460B463046394602F004FBBD
:1048D000049F07F1300608F8016B0A9FC7EB080632
:1048E000079FBE4202460B4629D102F0F7FA224644
:1048F0002B4606460F4602F033FF70B93046394664
:1049000022462B4602F004FF002800F05882049F44
:10491000FB0702D453E2DDF8409043469846013B42
:1049200018F8012C392A06D10A9F9F42F6D130226D
:1049300009F101093A701A7801321A703FE2002237
:10494000384B02F07DFC0022002306460F4602F0A1
:10495000DFFE0028A7D032E20F9F002F30D0249F27
:10496000012F0ADC159F17B103F2334302E0189BB5
:10497000C3F136030E9D089E16E0079F7D1E0E9F15
:10498000AF4201DB7D1B06E00E9F0E95EB1B119FD6
:104990001F4411970025079F002F03DA0899002371
:1049A000CE1B01E0089E079B089F1F440897099FA4
:1049B00050461F440121099700F0AEFB044602E077
:1049C0000E9D089E0F9C6EB1099F002F0ADD3B468D
:1049D000089FB342A8BF3346FF1A0897099FFF1AE2
:1049E000F61A09970E9F002F28DD0F9F07B3002DA1
:1049F00010DD21462A46504600F030FC04465A4657
:104A00002146504600F091FB59460746504600F0BB
:104A1000A3FABB460E9F7A1B10D0504659460AE0B7
:104A20000000E03F00002440D8840008000014404B
:104A30000E9A5046594600F011FC8346504601211B
:104A400000F06AFB119F002F054605DD2946504600
:104A50003A4600F003FC0546249F012F12DC04991E
:104A600081B9059AC2F3130373B922F000473F0DD1
:104A70003F0557B1089F01370897099F01370997EC
:104A8000012702E0002700E0049F119941B12B6942
:104A900005EB8303186900F0F2FAC0F1200000E092
:104AA0000120099B034413F01F0308D0C3F1200227
:104AB000042A02DDC3F11C0302E008D013461C33B4
:104AC000089A09991A44194408921E440991089AAF
:104AD000002A04DD5946504600F00EFC8346099B2F
:104AE000002B05DD294650461A4600F005FC054618
:104AF0001499E1B15846294600F051FC002816DA15
:104B000059460A225046002300F03DFA0F9A09F157
:104B1000FF3983464AB12146002350460A2200F05D
:104B200032FA0B9B0793044601E00B990791079A11
:104B3000002A29DC249B022B26DD8AB9294605227E
:104B4000079B504600F01FFA05462946584600F0DC
:104B500026FC00280EDC03E00C9D00E000252C461E
:104B6000259FDDF828806FEA07090AE00C9DDDF833
:104B700040902C460A9F312307F101083B7009F150
:104B800001092746002407E10F99002900F0BB80A6
:104B9000002E05DD21465046324600F0ADFB0446AE
:104BA0009FB16168504600F0A2F9226902320646C0
:104BB00004F10C0192000C30FEF785F950463146A5
:104BC000012200F099FB074600E027460A9E29468D
:104BD0005846FFF7C5FA214600F1300C804658468A
:104BE000CDF808C000F0DBFB3A4608902946504655
:104BF00000F0F2FBC368DDF808C002464BB911466D
:104C00005846039200F0CBFB039ADDF808C0034638
:104C100000E00123504611460393CDF808C000F090
:104C20009BF9039BDDF808C063B9249A52B9049933
:104C300001F0010232B9BCF1390F35D0089B002BCD
:104C400024DC25E00899002902DA002B08DC1FE0AB
:104C500023D1249A0ABB049901F00102EAB9F4E7CE
:104C6000594601225046CDF808C000F045FB2946C0
:104C7000834600F094FB0028DDF808C003DC07D170
:104C80001CF0010F04D0BCF1390F0DD008F1310C2C
:104C900006F1010886F800C07EE0002B06F101084D
:104CA00009DDBCF1390F03D13923337001365BE0E4
:104CB0000CF1010368E00A9A07994646C2EB080323
:104CC0008B4206F801CC3CD059460A2200235046BC
:104CD00000F059F9BC428346214650464FF00A0283
:104CE0004FF0000304D100F04EF9044607466EE78A
:104CF00000F049F9394604460A225046002300F0E4
:104D000042F9074663E70F9E58462946FFF728FAFF
:104D10000A9F00F1300C07F806C0079F0136BE421B
:104D200007DB0A9E012FACBFF61901362746002487
:104D300007E0594650460A22002300F024F9834632
:104D4000E2E7594601225046CDF808C000F0D4FAF7
:104D50002946834600F023FB0028DDF808C003DC69
:104D600014D11CF0010F11D016F8013C392BB046BC
:104D700006F1FF3607D10A99B142F5D1312309F185
:104D800001090B7008E00133337005E0B046013EC5
:104D900018F8013C302BF9D05046294600F0DCF8D9
:104DA0006FB12CB1BC4203D05046214600F0D4F87C
:104DB0005046394600F0D0F801E0DDF8409050460A
:104DC000594600F0C9F80023269F88F8003009F101
:104DD00001033B60289F27B1C7F8008001E003482A
:104DE00000E00A981BB0BDE8F08F00BF9583000873
:104DF00000487047F801001038B5074C0546002000
:104E00002060084611461A46FBF796FB431C02D168
:104E1000236803B12B6038BDBC040010F0B58B894A
:104E20009E0791B005460C4626D4B1F90E10002914
:104E300009DAA38913F0800F4FF0000714BF402652
:104E40004FF480660DE001AA01F0FAFC0028F0DBC7
:104E5000029F07F47047B7F500514F424F414FF49E
:104E6000806628463146FEF783F860B9A3899A0523
:104E70001DD443F00203A38104F14703236023619F
:104E80000123636113E00B4BAB62A389206043F005
:104E90008003A381206166614FB12846B4F90E10EA
:104EA00001F0FCFF18B1A38943F00103A38111B005
:104EB000F0BD00BF952C0008814270B501D30023DE
:104EC0000EE08C18A042FAD28518134613F1FF3376
:104ED00005D3514266182944F65CCE54F6E770BDFE
:104EE000934203D0CC5CC4540133F9E770BD70B574
:104EF000456A04460E463DB91020FDF7CDFF6062BD
:104F0000456085600560C560656AEB6843B1636AAA
:104F1000DA6852F8260078B1016842F8261017E0E6
:104F200020460421212200F0DEFB636AE860DB6892
:104F3000002BECD1002070BD012101FA06F56A1D9D
:104F40002046920000F0CFFB0028F3D04660856039
:104F500000220261C26070BD70B5446A06460D460B
:104F60003CB91020FDF798FF7062446084600460D3
:104F7000C4603DB1736A6A68DB6853F82210296027
:104F800043F8225070BD2DE9F0410C461E460D69D4
:104F900007461431002308681FFA80FC000C02FB4E
:104FA0000C6C504300EB1C4001331FFA8CFC060CC8
:104FB000AB420CEB004041F8040BECDBD6B1A3682C
:104FC0009D4212DB616838460131FFF790FF22698C
:104FD000023204F10C01804692000C30FDF773FFA1
:104FE00021463846FFF7B8FF444604EB85030135F8
:104FF0005E6125612046BDE8F0812DE9F843144645
:10500000984603F1080209230D4692FBF3F2064687
:10501000012300219A4202DD5B000131FAE73046AC
:10502000FFF765FF089B4361092C4FF00103014620
:10503000036111DD05F109094F46254417F8013BCD
:1050400030460A22303BFFF79EFFAF420146F5D1C2
:1050500009EB0407083F02E005F10A070924254689
:10506000454509DA3B1B30465B5D0A22303BFFF7C2
:105070008AFF01350146F3E70846BDE8F883030CD3
:105080001B0413B90004102300E0002310F07F4F2D
:1050900004BF0002083310F0704F04BF0001043356
:1050A00010F0404F04BF80000233002803DB4200B1
:1050B00003D5581C70471846704720207047036876
:1050C00013F007020BD0D90722D49A0703D55B0847
:1050D0000360012070479B0803600220704799B26B
:1050E00009B91B0C102213F0FF0F04BF1B0A083272
:1050F000190704BF1B090432990704BF9B08023239
:10510000D90702D45B0805D001320360104670470E
:10511000002070472020704710B50C460121FFF792
:10512000E6FE01224461026110BD2DE9F04F1646F2
:105130000A6933699A4285B00D4601DA35460E4652
:10514000D5F810803769AB68696808EB07049C42A2
:10515000C8BF0131FFF7CBFE00F1140303EB84015C
:1051600001911A46DDF804A0524503D2002142F80D
:10517000041BF7E705F1140106F1140201EB88089E
:1051800002EB8707CDF808800397039EB2421546CD
:1051900056D2B5F800C00432BCF1000F25D00F463E
:1051A0001D46002657F8049BD5F800801FFA89FB9E
:1051B0001FFA88FA0CFB0BAA4FEA19494FEA184864
:1051C000B2440CFB098808EB1A481FFA8AFA4AEA2B
:1051D000084A4FEA1846DDF80880AB46B8454BF858
:1051E00004AB01D95D46DDE76E6032F8028CB8F1A0
:1051F000000F23D01E680F461D464FF00009B7F878
:1052000000A0B5F802C008FB0ACCE144B6B2AC4637
:1052100046EA09464CF8046B57F8046BB5F804A04D
:10522000360C08FB06A6DDF808A006EB1946574524
:105230004FEA164901D26546E1E76E600433A4E700
:10524000019B002C03DC046105B0BDE8F08F53F82E
:10525000042D002AF7D1013CF3E7000012F003030C
:105260002DE9F04105460E46174607D0013B214A7D
:1052700052F823200023FFF786FE0646BF1035D0E4
:105280006C6A3CB91020FDF707FE686244608460D8
:105290000460C460D5F82480D8F808407CB928465A
:1052A00040F27121FFF738FF0023C8F808000446D8
:1052B000036004E07F1019D0206870B10446FB073A
:1052C000F8D5314622462846FFF72FFF3146804663
:1052D0002846FFF741FE4646ECE72846214622468F
:1052E000FFF723FF002320600360E7E73046BDE8B7
:1052F000F08100BFC88500082DE9F0470C464FEA51
:10530000621A236949680AEB0309A36880461546B7
:1053100009F101079F4202DD01315B00FAE74046D7
:10532000FFF7E5FD0023064600F11402534504DAB9
:10533000002142F823100133F8E720692AEAEA71D4
:1053400004F1140315F01F0C02EB810103EB800E36
:1053500016D0CCF1200A002518680A4600FA0CF095
:10536000054342F8045B53F8045B734525FA0AF5DC
:1053700001D21146F0E74D6045B109F1020705E0A1
:1053800053F8042B41F8042B7345F9D3013F4046F1
:1053900037612146FFF7E0FD3046BDE8F08702693E
:1053A0000B69D21A10B513D19C00143001F114020C
:1053B0000319224453F8044D52F8041D8C4203D0C3
:1053C00008D24FF0FF3010BD9842F3D3002010BD3B
:1053D000104610BD012010BD2DE9F04706460C46D1
:1053E000084611461546FFF7DAFF071E08D130467A
:1053F0003946FFF77CFD012303614761BDE8F08773
:1054000001DB002703E0234601272C461D46616887
:105410003046FFF76CFD22692B69C760143405F133
:10542000140606EB830A04EB820C00F1140300213E
:1054300054F8047B56F8049B11FA87F11FFA89F59A
:105440004FEA1949C5EB0108C9EB174707EB284795
:105450001FFA88F83914B24548EA0747254643F849
:10546000047BE5D865450DD255F8044B11FA84F656
:10547000240C04EB2644B6B2211446EA044443F853
:10548000044BEFE753F8041D09B9013AFAE702614A
:10549000BDE8F0870F4B0B40A3F15073002B01DDEB
:1054A000194609E05B421B15132B4FF0000105DC88
:1054B0004FF4002242FA03F100207047322B4FF0E4
:1054C0000102DABFC3F1330302FA03F313461846AD
:1054D000704700BF0000F07F2DE9F041066900F140
:1054E000140707EB8606884656F8044C2046FFF75B
:1054F000C6FDC0F120030A28A6F10405C8F8003053
:1055000014DCBD42C0F10B0188BF56F8085C24FAD8
:1055100001FC98BF002515304CF07F5325FA01F1AE
:10552000844043F4401341EA040224E0BD4286BFB4
:10553000A6F1080556F8081C0021B0F10B0615D09D
:10554000B440C0F12B0044F07F5444F4401421FADD
:1055500000FCBD4244EA0C038CBF55F8044C002407
:1055600024FA00F0B14040EA010204E044F07F5325
:1055700043F440130A4610461946BDE8F0812DE970
:10558000F74301211D46DDF82890DDF82C801446F4
:10559000FFF7ADFCC5F30A570646C5F313030FB179
:1055A00043F480130193D4B102A840F8084D684633
:1055B000FFF785FD009B48B1019AC0F1200102FA76
:1055C00001F10B43C2407361019200E07361019BE2
:1055D000B361002B0CBF01240224346107E001A851
:1055E000FFF76DFD0124019B7361346120303FB1F1
:1055F000A7F233470744C9F80070C0F135000AE04C
:1056000006EB8403A0F23240C9F800001869FFF7E6
:1056100036FDC0EB4410C8F80000304603B0BDE8CA
:10562000F0832DE9F3410E4669468046FFF754FFAB
:105630000D46044601A93046FFF74EFF009F0B467A
:10564000019902467F1AD8F810003169411A07EB18
:1056500041110029CCBF05EB0155A3EB01532046B6
:10566000294601F017FF02B0BDE8F08110B50139FD
:1056700002F1140349111269013100EB810103EBBE
:105680008202934204D253F8044B40F8044BF8E7EB
:10569000884203D2002340F8043BF9E710BD00F133
:1056A000140200694B11834210B50CDC0CDA11F0C6
:1056B0001F0109D052F8230020FA01F404FA01F185
:1056C00081420ED100E0034602EB83039342194668
:1056D00005D951F8041C043B0029F7D001E0002053
:1056E00010BD012010BD38B502FB01F42146FDF7C5
:1056F0003FFC054618B100212246FDF7EDFB284688
:1057000038BDF8B5064614460D4621B91146BDE828
:10571000F840FDF72DBC1AB9FDF7E6FB2046F8BDB1
:1057200001F0CCFBA0420ED230462146FDF720FC12
:10573000074650B129462246FDF7C5FB30462946AB
:10574000FDF7D2FB01E02846F8BD3846F8BD000061
:1057500038B5074C054600202060084611461A4619
:10576000FAF7B0FE431C02D1236803B12B6038BDA9
:10577000BC04001031F0004310B500D178B10C4AE0
:10578000A3F5801494420CD9B3F5801F0BD3094ABA
:1057900093420AD1D0F1010038BF002010BD022091
:1057A00010BD042010BD032010BD002010BD00BF9F
:1057B000FFFFDF7F0000F07F004870470000C07FE0
:1057C0000EB400B59CB04FF40271ADF814106FF038
:1057D0000041049107914FF6FF711DABADF8161013
:1057E000084953F8042B029006900868019302A917
:1057F00000F038FF029B00221A701CB05DF804EB29
:1058000003B07047F001001030B5026811F8015B79
:10581000541C55B153782246A3F14104192C98BF6A
:105820002033AB42F2D0002030BD0460012030BDF7
:105830002DE9F0410D469046FFF72CFE06460F4637
:10584000B8F1000F0FD0C5F30A53C3F16B03002B5F
:1058500009DD1C0504F17F5303F54013002201F01C
:10586000EFFCBDE8F08130463946BDE8F08100002C
:105870002DE9F04F9FB000238146049115921A93B1
:105880004FF0000A4FF0000B1991199A13780D2B65
:1058900005D8092B14D2002B00F0B18113E02B2B7B
:1058A00007D02D2B02D0202B0DD109E0012609961F
:1058B00001E000270997531C199353782BB99EE1F7
:1058C00001321992E1E700260996199C2378302BC2
:1058D0005AD16378582B01D0782B49D11AAB099F44
:1058E00000930197484619A99C4A1BAB01F004F8A4
:1058F00010F00706054600F0AD85062E02D10134F2
:1059000019947EE11A9A3AB11CA83521FFF7AEFE30
:1059100048461A99FFF720FB1B9A062E21D8DFE88C
:1059200006F0040D08171C0D04004FF0000BDA46BA
:1059300017E0DDF870A0DDF874B012E01D9BDDF813
:1059400070A002F2334223F4801343EA025B08E0C2
:10595000DFF80CB24FF0000A03E06FF0004B4FF09D
:10596000FF3A2B0740F176854BF0004B00F072BDFB
:10597000199B5A1C19925B78302BF9D0002B00F040
:1059800069850123059301E0002605964FF0000884
:10599000199F0797CDF80C804446199E3578A5F1DC
:1059A0003003DAB2092A10D8082CD8BF039F4FF071
:1059B0000A02D8BF02FB073706F10106D4BF0397DE
:1059C00002FB083801341996E7E74846FFF710FA5A
:1059D00007684846FFF70CFA0068FDF770FB394688
:1059E00002463046FDF773FB064628B100232A46DF
:1059F000194625460A935FE04846199DFFF7F8F9D6
:105A00000068FDF75CFB2B1819932A5C002C45D12C
:105A10002346302A05D1199A511C19910133527825
:105A2000F7E7A2F13101082942D8199E07961946D5
:105A300000231D46303A03F1010029D001446E1CB9
:105A4000771B874210DA771E082F06DC039F4FF082
:105A50000A0C0CFB07F7039704E0102EDCBF0A27A3
:105A600007FB08F80136EBE7002BACBFEB182B1C4B
:105A7000082B03F1010505DC039E0A2303FB062620
:105A8000039604E0102DDCBF0A2303FB0828002046
:105A9000199B5A1C19925A78034602E02546334650
:105AA0003146A2F130000928C4D901270A9703E042
:105AB0000025012029460A9022F02006452E53D1C8
:105AC00025B91BB9059E002E00F09980199F0497F7
:105AD0007A1C19927A782B2A04D02D2A05D0002618
