:020000040800F2
:1000000000800010ED0500084106000841060008C8
:1000100041060008410600084106000800000000F3
:100020000000000000000000000000004106000881
:1000300041060008000000004106000841060008D3
:100040004106000841060008410600084106000874
:100050004106000841060008410600084106000864
:100060004106000841060008410600084106000854
:100070004106000841060008410600084106000844
:100080004106000841060008410600084106000834
:100090004106000841060008410600084106000824
:1000A0004106000841060008410600084106000814
:1000B0004106000841060008410600084106000804
:1000C00041060008410600084106000841060008F4
:1000D00041060008410600084106000841060008E4
:1000E00041060008410600084106000841060008D4
:1000F00041060008410600084106000841060008C4
:1001000041060008410600084106000841060008B3
:1001100041060008410600084106000841060008A3
:100120004106000841060008410600084106000893
:100130004106000841060008410600084106000883
:100140004106000841060008410600084106000873
:100150004106000841060008410600084106000863
:100160004106000841060008410600084106000853
:100170004106000841060008410600080000000092
:10018000410600084106000810B5054C237833B934
:10019000044B13B10448AFF300800123237010BD5A
:1001A00040020010000000007C860008084B10B5DB
:1001B0001BB108480849AFF300800848036803B939
:1001C00010BD074B002BFBD0BDE81040184700BF07
:1001D000000000007C860008440200103C02001071
:1001E00000000000154B002B08BF134B9D46A3F5E4
:1001F000803A00218B460F461348144A121A02F027
:100200005DFE0F4B002B00D098470E4B002B00D00B
:1002100098470020002104000D000D48002802D05E
:100220000C48AFF3008002F001FE2000290000F02E
:10023000ADF902F05FFC00BF000008000080001074
:10024000000000000000000040020010C004001088
:10025000000000000000000038B5142204460D46DE
:10026000002102F02BFE2046294602F025FA204606
:1002700038BD000008B50F4E0F4DF36872681A6064
:100280000E4CEB686A681A60E36862681A604FF0A7
:100290007E5002F095FA336972681A602B696A68B9
:1002A0001A60236962681A604FF0804002F088FA91
:1002B000E1E700BF5C020010700200108402001031
:1002C00008B513210548FFF7C7FF14210448FFF7BD
:1002D000C3FF15210348FFF7BFFF08BD5C020010F4
:1002E000700200108402001008B572B6962002F069
:1002F00075FA962002F072FAF8E700BF0F4A30B4A0
:1003000093689468B4F1006F1A4604D0103030BC82
:1003100042F8201070470A4A03F5C47553F8044B9D
:1003200042F8044FAB42F9D14FF00052034B10306A
:100330009A6030BC42F82010704700BF00ED00E02A
:10034000FCFFFF1F70B50F4C2368DA68910715D4C6
:10035000DA68520709D56FF004020B4E1A615D6A24
:100360003368EB1AB3F57A7F00D270BD00F07CF9E8
:100370002368356005F57A759D6370BD02F00EFA4D
:100380002368E5E7F403001098020010234B30B512
:100390009A6D234C42F008029A659A6D83B002F080
:1003A00008020192019A9A6B42F008029A639A6BD2
:1003B00022F008029A6301F0DFFE1A4A1A4B126813
:1003C0001A492160A3FB0212920C0025013A4FF05A
:1003D000FF3320466260E3602561A56001F02EFCDA
:1003E00032201349FFF78AFF124B4FF480225A60E4
:1003F0002946204601F084FB2046042101F080FBC1
:1004000023680D495A6A0A6002F57A729A63DA68BB
:10041000284642F00402DA6003B030BD001002400A
:10042000F40300108C01001083DE1B43000C00401D
:100430004503000800E100E09802001001F09CBEB6
:1004400002480221032202F035B800BFA0040010C8
:10045000022808B50BDDC21E074B53F8220000210D
:1004600043F8221028B103685B68984708BD002054
:1004700008BD4FF0FF3008BD9C020010022870B587
:100480000C4616460FDC0E4B1B680BB9FFF7D8FF66
:10049000A51936B114F8011B0A4802F0E3F8AC4282
:1004A000F8D1304670BD0338074B53F8200018B11F
:1004B00003681B68984770BD4FF0FF3070BD00BFE8
:1004C000A0030010A00400109C020010022810B528
:1004D0000C4609DC0D4B1B688BB10D4802F0B6F8D9
:1004E00001232070184610BD03380A4B53F8200032
:1004F00040B103689B6898470346184610BDFFF754
:100500009FFFEAE74FF0FF33ECE700BFA0030010C6
:10051000A00400109C020010022808B508DD033872
:10052000064B53F8200028B10368DB68984708BDE4
:10053000012008BD4FF0FF3008BD00BF9C02001035
:10054000022808B508DD0338064B53F8200028B10F
:1005500003681B69984708BD002008BD4FF0FF30B5
:1005600008BD00BF9C020010022808B504D84FF453
:1005700000534B60002008BD02F0B6FA0923036067
:100580004FF0FF3008BD00BF704700BF08B5FFF750
:1005900055FFFFF7F9FFBDE80840FFF76BBE00BF4E
:1005A000074A13681844EFF30881884202D21060AA
:1005B00018467047034B0C221A604FF0FF3070470B
:1005C00088010010BC040010074C08B523680546DC
:1005D000986802F051FB2368D86802F04DFB05B91A
:1005E000FEE7FFF781FEFBE7F0010010DFF838D0EF
:1005F000002100F004B80D4B5B58435004310C4807
:100600000C4B42189A42FFF4F6AF0B4A00F003B8C5
:10061000002342F8043B094B9A42FFF4F9AF01F082
:10062000E3FEFFF7DFFD70470080001088860008BA
:10063000880100104002001040020010C0040010A9
:10064000FFF7FEBF08B5074B1A6842F480721A60C4
:10065000032000F017F80F20FFF798FE00F024F8B1
:10066000002008BD00200240024B1A6801321A60C7
:10067000704700BF9C030010014B1868704700BF13
:100680009C030010074AD1684FF6FF030B4043F06C
:10069000BF6300F0070043F4003343EA0023D36054
:1006A000704700BF00ED00E0704700BF2DE9F00F7C
:1006B000D1F800C086B0BCF1000F00F0FE8000252C
:1006C000DFF838B22B46E2469CE05E000327D0F804
:1006D0000090B740FF4307EA0909CDF80C90019755
:1006E00004F0030C039F0CFA06F908F1FF3847EAFF
:1006F00009094746012FC0F8009040F2B780BCF1CD
:10070000030F00F0CF808A68C568DDF8048002FA24
:1007100006F608EA050747EA0602E700C2606CD55C
:10072000DFF8DCC1DCF8602042F00102CCF8602088
:10073000DCF8605023F0030202F1804205F001056D
:1007400002F58032059503F00305059E9768AD001C
:100750000F26AE40B0F1904F27EA060600F0B180B8
:10076000634FB84200F0AF80DFF898C1604500F0F9
:10077000AF80604FB84200F0AF80DFF88C81404519
:1007800000F0AE80DFF884C1604500F0AD805A4FC4
:10079000B8420CBF0627072707FA05F535439560D1
:1007A000DDF80880DBF80050E60348BFDDF808C03C
:1007B0006FEA080254BF15404CEA0505CBF800501B
:1007C000A703DBF804504ABF029E15403543CBF81F
:1007D0000450E602DBF808504ABF029F15403D4333
:1007E000CBF80850A402DBF80C504ABFDDF80880B3
:1007F0002A4048EA0502CBF80C2001333AFA03FC00
:100800001D465AD0012404FA05F212EA0A0602969D
:10081000F3D04C6824F01008B8F1020F7FF455AF04
:10082000DF0800EB870703F0070CD7F820800E697C
:100830004FEA8C0C4FF00F0909FA0CF928EA090865
:1008400006FA0CFC48EA0C063E625E000327D0F86C
:100850000090B740FF4304F0030C07EA09090CFAC3
:1008600006F849EA08080197C0F80080D0F8088027
:10087000019F07EA0808CF6807FA06F948EA09085D
:10088000C0F80880D0F80490C4F3001829EA0209DF
:1008900008FA05F849EA0808BCF1030FC0F804801B
:1008A0007FF431AFD0F82C80C4F3C00C28EA0202E8
:1008B0000CFA05F52A43C26225E706B0BDE8F00F41
:1008C000704700256AE74FF0010808FA05F565E76B
:1008D000022707FA05F561E7032707FA05F55DE743
:1008E000042707FA05F559E7052707FA05F555E73F
:1008F00000040048000C00480018004800040140B3
:100900000010024000080048001000480014004891
:10091000024B186800F4C060704700BF00700040D0
:1009200030B51F4CA36DDA0083B0054619D5FFF72B
:10093000EFFFB0F5007F26D0802D2BD82ED0B5F15B
:10094000700358425841174B1A6822F007020243BD
:100950001A601B6803F00703C01A18BF012003B018
:1009600030BDA36D43F08053A365A36D03F08053A6
:100970000193019BFFF7CCFFA36DB0F5007F23F03F
:100980008053A365D8D1802D06D9A12D34BF012075
:100990000220D8E70320D6E70020D4E70220D2E7E0
:1009A00000100240002002402DE9F0430368DC06FD
:1009B00083B005465BD5B64EB36813F00C0F40F01C
:1009C0009881022393FAA3F3B3FA83F343F020034D
:1009D000C3F34213012B00F01583022393FAA3F310
:1009E000B3FA83F3022393FAA3F3B3FA83F343F046
:1009F0002003C3F34213032BA54B0CBFD3F8942061
:100A0000DA69022393FAA3F3B3FA83F303F01F0323
:100A100022FA03F3D80703D5AB69002B00F0388224
:100A20009B4B286A1A68110740F151831B6803F039
:100A3000F003834280F03483FFF772FF002840F018
:100A40002782934B1A6842F008021A6019682A6AD2
:100A500021F0F0010A431A605968EA6921F47F41E4
:100A600041EA02225A600F20FFF790FC2B68D8075A
:100A70004AD5874A916801F00C01082900F0D48119
:100A8000916801F00C010C2900F0C881804E336898
:100A900023F480333360336823F480233360FFF71B
:100AA000EBFD4FF40034074621E094FAA4F3B3FAC7
:100AB00083F394FAA4F3B3FA83F343F02003C3F36C
:100AC0004213032B0CBFD6F89420F26994FAA4F3D6
:100AD000B3FA83F303F01F0322FA03F3DA0740F1BA
:100AE0009482FFF7C9FDC01BC82800F23C8194FA2C
:100AF000A4F3B3FA83F343F02003C3F34213012BAF
:100B0000D3D13268E2E72B68990700F1A480190776
:100B100035D56B695E4E002B00F0F581D6F8943028
:100B200043F00103C6F89430FFF7A6FD0224074600
:100B300005E0FFF7A1FDC01B642800F2148194FAC0
:100B4000A4F3B3FA83F394FAA4F3B3FA83F394FA15
:100B5000A4F3B3FA83F343F06003C3F34213032B0C
:100B60000CBFD6F89420F26994FAA4F3B3FA83F395
:100B700003F01F0322FA03F3DA07DAD52B685E07C6
:100B800040F1FD80424B9A6DD40000F1DE829A6DF7
:100B900042F080529A659B6D03F080530193019B54
:100BA0004FF001093B4C2368D80510D4236843F467
:100BB00080732360FFF760FD064605E0FFF75CFDEC
:100BC000801B642800F2CF802368D905F6D5304E0B
:100BD000D6F8903023F00103C6F89030D6F8903064
:100BE00023F00403C6F89030FFF746FD0224804648
:100BF00041F288371EE094FAA4F3B3FA83F343F08A
:100C00004003C3F34213032B0CBFD6F89420F269C0
:100C100094FAA4F3B3FA83F303F01F0322FA03F365
:100C2000DA0740F19582FFF727FDC8EB0000B842D4
:100C300000F2998094FAA4F3B3FA83F394FAA4F33C
:100C4000B3FA83F343F04003C3F34213022BD2D130
:100C5000D6F89020DCE70E4A916801F00C010429D7
:100C600000F08C81916801F00C010C2900F080816A
:100C7000EB68074E002B00F03082336843F480733A
:100C80003360FFF7F9FC4FF48064074625E000BFAE
:100C9000001002400070004094FAA4F3B3FA83F30A
:100CA00094FAA4F3B3FA83F343F02003C3F342139B
:100CB000032B0CBFD6F89420F26994FAA4F3B3FA8C
:100CC00083F303F01F0322FA03F3DB0700F11D8314
:100CD000FFF7D2FCC01B642845D894FAA4F3B3FAFA
:100CE00083F343F02003C3F34213012BD4D13268C2
:100CF000E3E78369002B00F0CF80336843F0010302
:100D00003360FFF7B9FC0224074620E094FAA4F30D
:100D1000B3FA83F394FAA4F3B3FA83F343F0200312
:100D2000C3F34213032B0CBFD6F89420F26994FA54
:100D3000A4F3B3FA83F303F01F0322FA03F3DA07F1
:100D400000F15382FFF798FCC01B64280BD894FA7B
:100D5000A4F3B3FA83F343F02003C3F34213012B4C
:100D6000D4D13268E3E7032003B0BDE8F083B9F1E2
:100D7000000F04D0C94B9A6D22F080529A656A6ABE
:100D8000002A00F0F180C54B996801F00C010C2994
:100D90007ED0022A1A6822F080721A6000F0CE8299
:100DA000DA6822F00302DA60DA6822F0887222F44C
:100DB0008032DA601D46FFF75FFC4FF00074064694
:100DC00020E094FAA4F3B3FA83F394FAA4F3B3FA09
:100DD00083F343F02003C3F34213032B0CBFD5F876
:100DE0009420EA6994FAA4F3B3FA83F303F01F039F
:100DF00022FA03F3DB0740F1B780FFF73DFC801BCD
:100E00006428B0D894FAA4F3B3FA83F343F0200330
:100E1000C3F34213012BD4D12A68E3E7D26802F06E
:100E20000302032A7FF432AE4FF4003292FAA2F2A8
:100E3000B2FA82F242F02002C2F34212012A00F01A
:100E40007A824FF4003292FAA2F2B2FA82F24FF4AE
:100E5000003292FAA2F2B2FA82F242F02002C2F317
:100E60004212032A8D4A0CBFD2F89410D1694FF474
:100E7000003292FAA2F2B2FA82F202F01F0221FAD2
:100E800002F2D1077FF540AE6A68002A7FF43CAEDB
:100E9000012003B0BDE8F083336823F00103336021
:100EA000FFF7EAFB0224074621E094FAA4F3B3FA21
:100EB00083F394FAA4F3B3FA83F343F02003C3F368
:100EC0004213032B0CBFD6F89420F26994FAA4F3D2
:100ED000B3FA83F303F01F0322FA03F3DB0740F1B5
:100EE0008281FFF7C9FBC01B64283FF63CAF94FA30
:100EF000A4F3B3FA83F343F02003C3F34213012BAB
:100F0000D3D13268E2E7D6F8943023F00103C6F873
:100F10009430FFF7B1FB0224074605E0FFF7ACFB76
:100F2000C01B64283FF61FAF94FAA4F3B3FA83F30F
:100F300094FAA4F3B3FA83F394FAA4F3B3FA83F321
:100F400043F06003C3F34213032B0CBFD6F8942085
:100F5000F26994FAA4F3B3FA83F303F01F0322FABD
:100F600003F3DB07DAD409E6002003B0BDE8F08321
:100F7000D26802F00302022A7FF47AAE4FF4806254
:100F800092FAA2F2B2FA82F242F02002C2F34212C4
:100F9000012A00F007824FF4806292FAA2F2B2FABC
:100FA00082F24FF4806292FAA2F2B2FA82F242F036
:100FB0002002C2F34212032A384A0CBFD2F894101E
:100FC000D1694FF4806292FAA2F2B2FA82F202F090
:100FD0001F0221FA02F2D20703D5EA68002A3FF481
:100FE00057AF2E4A4FF0F854506894FAA4F4B4FA6C
:100FF00084F42A692949E4B220F0F850A24002435F
:101000004A6084E5254B1A68FBE46B68B3F5803FC2
:1010100000F0FF80B3F5A02F00F0C7811F4E3268AB
:1010200022F480323260326822F480223260002B57
:1010300040F0F780FFF720FB4FF40034074621E033
:1010400094FAA4F3B3FA83F394FAA4F3B3FA83F310
:1010500043F02003C3F34213032B0CBFD6F89420B4
:10106000F26994FAA4F3B3FA83F303F01F0322FAAC
:1010700003F3D8077FF547ADFFF7FEFAC01BC8287A
:101080003FF671AE94FAA4F3B3FA83F343F020036E
:10109000C3F34213012BD3D13268E2E700100240C0
:1010A000CA4B1A6842F008021A601A6822F0F0026D
:1010B00002431A605968EA6921F47F4141EA022239
:1010C0005A60FFF72DFC00283FF4CDACE0E6D3F8E2
:1010D000943003F470631B09ABE4336823F480732A
:1010E0003360FFF7C9FA4FF48064074621E094FAB1
:1010F000A4F3B3FA83F394FAA4F3B3FA83F343F0BB
:101100002003C3F34213032B0CBFD6F89420F269DB
:1011100094FAA4F3B3FA83F303F01F0322FA03F360
:10112000D80740F10581FFF7A7FAC01B64283FF6F6
:101130001AAE94FAA4F3B3FA83F343F02003C3F393
:101140004213012BD3D13268E2E74FF0000929E5C1
:10115000AB68012B00F09A80002B40F039819B4E48
:10116000D6F8903023F00103C6F89030D6F89030CE
:1011700023F00403C6F89030FFF77EFA022480467D
:1011800041F288371EE094FAA4F3B3FA83F343F0F4
:101190004003C3F34213032B0CBFD6F89420F2692B
:1011A00094FAA4F3B3FA83F303F01F0322FA03F3D0
:1011B000D8077FF5DCADFFF75FFAC8EB0000B84257
:1011C0003FF6D1AD94FAA4F3B3FA83F394FAA4F3FF
:1011D000B3FA83F343F04003C3F34213022BD2D19B
:1011E000D6F89020DCE72B6841E4784B1A6842F08F
:1011F00008021A6019682A6A21F0F0010A431A608D
:101200005968EA6921F47F4141EA02225A602B6859
:101210002DE403F1804303F588331A6842F48032E9
:101220001A60FFF729FA4FF400340746674E21E0B1
:1012300094FAA4F3B3FA83F394FAA4F3B3FA83F31E
:1012400043F02003C3F34213032B0CBFD6F89420C2
:10125000F26994FAA4F3B3FA83F303F01F0322FABA
:1012600003F3DB073FF54FACFFF706FAC01BC828B6
:101270003FF679AD94FAA4F3B3FA83F343F0200375
:10128000C3F34213012BD3D13268E2E74F4BD3F8BB
:10129000902042F00102C3F89020FFF7EDF90224FC
:1012A00080464A4E41F288371EE094FAA4F3B3FA1E
:1012B00083F343F04003C3F34213032B0CBFD6F870
:1012C0009420F26994FAA4F3B3FA83F303F01F03B2
:1012D00022FA03F3DB073FF54AADFFF7CDF9C8EB80
:1012E0000000B8423FF63FAD94FAA4F3B3FA83F39B
:1012F00094FAA4F3B3FA83F343F04003C3F3421325
:10130000022BD2D1D6F89020DCE7304B4FF0F850CA
:10131000596890FAA0F0B0FA80F02B692B4AC0B25D
:1013200021F0F85183400B4353602B68FFF7EFBB6C
:101330002B68FFF7ECBB254A116898E51E46FFF7BE
:101340009BF94FF00074074620E094FAA4F3B3FA37
:1013500083F394FAA4F3B3FA83F343F02003C3F3C3
:101360004213032B0CBFD6F89430F36994FAA4F21D
:10137000B2FA82F202F01F0223FA02F2D10737D545
:10138000FFF77AF9C01B64283FF6EDAC94FAA4F39A
:10139000B3FA83F343F02003C3F34213012BD4D1F8
:1013A0003368E3E7094A11680BE603F18043A3F5CC
:1013B0003C331A6822F480321A601A6842F48022A0
:1013C0001A601A6842F480321A602AE7001002405C
:1013D000052B374BD3F8902022F00102C3F8902060
:1013E000D3F8902058D022F00402C3F8902054E79C
:1013F00005F1280358CB05F1340007C843EA06235A
:10140000013C43EA04130009490843EA4043013917
:101410005208274D43EA4153013A43EA4263EB60E5
:101420002B6843F080732B60EB6843F08073EB60B4
:10143000FFF722F94FF00074064621E094FAA4F376
:10144000B3FA83F394FAA4F3B3FA83F343F02003DB
:10145000C3F34213032B0CBFD5F89420EA6994FA26
:10146000A4F3B3FA83F303F01F0322FA03F3DA07BA
:101470003FF57AADFFF700F9801B64283FF673ACA7
:1014800094FAA4F3B3FA83F343F02003C3F34213B3
:10149000012BD3D12A68E2E742F00402C3F890207E
:1014A000D3F8902042F00102C3F89020F5E600BF87
:1014B00000100240C24B1A6802F007028A422DE96E
:1014C000F0410C46054610D21A68BD4B04299CBF5A
:1014D00022F007020A431A601B6803F007038B42DD
:1014E00000F087800120BDE8F08103689E0706D5E3
:1014F000B44A8168906820F0F00001439160D807F9
:1015000051D56B68022B00F0DB80002B40F0FE8091
:10151000022292FAA2F2B2FA82F242F02002C2F35E
:101520004212012A00F0BC81022292FAA2F2B2FA1F
:1015300082F2022292FAA2F2B2FA82F242F020027F
:10154000C2F34212032A9F4A0CBFD2F89410D16909
:10155000022292FAA2F2B2FA82F202F01F0221FAF9
:1015600002F2D107BED5974FBA6822F003021343A7
:10157000BB60FFF781F86B68022B064600F04D81D7
:10158000032B00F05981002B40F00B8141F287388A
:1015900005E0FFF771F8801B404500F28880BB68CA
:1015A00013F00C0FF5D1042C40F28480844B1A68A0
:1015B000834B1A601B6803F00703A34292D12B6888
:1015C0005A0706D57F4AE968906820F4E060014335
:1015D00091601B0707D57B4B29699A6822F46052FA
:1015E00042EAC1029A600F20FEF7D0FE0020BDE85B
:1015F000F0810368990706D5724A8168906820F0E7
:10160000F00001439160DA07DAD56B68022B00F035
:101610002281032B00F0D880002B40F06981022248
:1016200092FAA2F2B2FA82F242F02002C2F342121D
:10163000012A00F08B81022292FAA2F2B2FA82F21F
:10164000022292FAA2F2B2FA82F242F02002C2F32D
:101650004212032A5B4A0CBFD2F89410D1690222CD
:1016600092FAA2F2B2FA82F202F01F0221FA02F218
:10167000D7077FF537AF534EB26822F0030213430A
:10168000B360FEF7F9FF6B68022B044641F288371E
:1016900064D0032B79D0002B6CD0B36803F00C031B
:1016A000042B8CD0FEF7E8FF001BB842F5D90320CD
:1016B000BDE8F081424B1A6822F00702224377E727
:1016C0004FF4003292FAA2F2B2FA82F242F0200211
:1016D000C2F34212012A00F030814FF4003292FA34
:1016E000A2F2B2FA82F24FF4003292FAA2F2B2FA05
:1016F00082F242F02002C2F34212032A314A0CBFA6
:10170000D2F89410D1694FF4003222E7032B00F095
:10171000CA804FF4806292FAA2F2B2FA82F242F0E8
:101720002002C2F34212012A74D04FF4806292FA6E
:10173000A2F2B2FA82F24FF4806292FAA2F2B2FA04
:1017400082F242F02002C2F34212032A1D4A0CBF69
:10175000D2F89410D1694FF48062FAE6B36803F0CE
:101760000C03082B3FF42BAFFEF786FF001BB8429B
:10177000F4D99CE7B36813F00C0F3FF420AFFEF7E9
:101780007BFF001BB842F5D991E7B36803F00C0367
:101790000C2B3FF414AFFEF76FFF001BB842F4D9D7
:1017A00085E741F2883805E0FEF766FF801B40457B
:1017B0003FF67DAFBB6803F00C03042BF4D1F2E6D7
:1017C00000200240001002404FF0007292FAA2F294
:1017D000B2FA82F242F02002C2F34212012A00F071
:1017E000BB804FF0007292FAA2F2B2FA82F24FF08E
:1017F000007292FAA2F2B2FA82F242F02002C2F32E
:101800004212032A564A0CBFD2F89410D1694FF005
:10181000007225E7524A11689DE741F2883805E0D9
:10182000FEF72AFF801B40453FF641AFBB6803F03F
:101830000C03082BF4D1B6E641F2883805E0FEF738
:101840001BFF801B40453FF632AFBB6803F00C0323
:101850000C2BF4D1A7E64FF4003292FAA2F2B2FABE
:1018600082F242F02002C2F34212012A68D04FF401
:10187000003292FAA2F2B2FA82F24FF4003292FAF5
:10188000A2F2B2FA82F242F02002C2F34212032A1A
:10189000334A0CBFD2F89410D1694FF40032DFE61E
:1018A0002F4A116854E64FF0007292FAA2F2B2FA8F
:1018B00082F242F02002C2F34212012A43D04FF0DA
:1018C000007292FAA2F2B2FA82F24FF0007292FA29
:1018D000A2F2B2FA82F242F02002C2F34212032ACA
:1018E0001F4A0CBFD2F89410D1694FF0007230E655
:1018F0004FF4806292FAA2F2B2FA82F242F020022F
:10190000C2F34212012A24D04FF4806292FAA2F26A
:10191000B2FA82F24FF4806292FAA2F2B2FA82F242
:1019200042F02002C2F34212032A0D4A0CBFD2F841
:101930009410D1694FF4806292E6094A1168E2E698
:10194000074A1168A9E7064A1168CEE7044A1168F8
:1019500085E6034A1168EDE7014A116857E700BFC1
:10196000001002403B4B9A6802F00C02042A10B4AB
:1019700052D09A6802F00C02082A50D09A6812F0ED
:101980000C0F1ED1334B1A68120754BFD3F89410B2
:101990001968304B304A9B6854BFC1F30321C1F32F
:1019A000031113F00C0F52F821100CBF0846002051
:1019B000284B9A6802F00C020C2A0FD05DF8044BF9
:1019C00070479A6802F00C020C2A34D0214B9A68B6
:1019D00002F00C0200200C2A0146EFD1DA68DC6824
:1019E00002F00302C4F30214022A04F1010428D015
:1019F000032A17D0D868B1FBF4F1C0F3062000FB2E
:101A000001F0144B5DF8044BDB68C3F34163013311
:101A10005B00B0FBF3F0704710480021C8E71048A6
:101A20000021C5E7D8680E4BC0F30620B3FBF4F4E1
:101A300000FB04F0E5E7DB6803F00303012BC5D1ED
:101A4000A0E7D868054BC0F30620B3FBF4F400FB15
:101A500004F0D6E700100240E47E00080024F40001
:101A600000127A0008B5FFF77DFF094BF0229B6852
:101A700092FAA2F2B2FA82F203F0F003D2B223FA9F
:101A800002F20449044B8A5CD040186008BD00BFD4
:101A900000100240D47E00088C01001008B5FFF74A
:101AA000E1FF084A4FF4E063926893FAA3F3B3FAB4
:101AB00083F302F4E062DBB222FA03F3024AD35C5E
:101AC000D84008BD00100240B87E000808B5FFF7F6
:101AD000C9FF084A4FF46053926893FAA3F3B3FA2C
:101AE00083F302F46052DBB222FA03F3024AD35CBE
:101AF000D84008BD00100240B87E0008704700BF03
:101B00000368164A186A10B4012404FA01F120EAA5
:101B100001001862186A934241EA0001196217D065
:101B200002F50062934213D002F5406293420FD057
:101B300002F5806293420BD002F58062934207D097
:101B40001A685DF8044B42F0010200201A607047E9
:101B50005A6C42F400425A64F2E700BF002C014084
:101B6000344A0368904270B445D0B0F1804F24D01D
:101B7000A2F59432904220D002F5806290421CD0AF
:101B800002F58062904218D002F59432904242D021
:101B900002F54062904214D002F58062904210D06B
:101BA00002F5806290420CD08C680A680360C462BF
:101BB00082620123436170BC70474A6823F070035E
:101BC0001343CA688D680C6823F440731A431A4B98
:101BD00002609842C562846207D003F58063984230
:101BE00003D003F580639842E3D10B6903630123BB
:101BF000436170BC70474C68CA6823F070031C4393
:101C000024F44074224302608B68C3620B688362D1
:101C10000B690363EBE74C68CA688E680D6823F0B4
:101C200070031C4324F4407422430260C662856240
:101C3000DBE700BF002C01400040014010B5044626
:101C4000B0B190F8393003F0FF0263B121460223AE
:101C500051F8040B84F83930FFF782FF012384F830
:101C60003930002010BD80F83820FFF747FFEDE73E
:101C7000012010BD704700BF2DE9F843064680687B
:101C800031693468F269D4F80090AE4BD6F80C8014
:101C9000B769AD4D08437169084340EA020109EA9A
:101CA00003030B432360636823F4405343EA0803B0
:101CB000AC4263604BD0A068336AA44920F4306022
:101CC0003B4303438C42A3606DD0A14B9C4200F088
:101CD000BD80A04B9C4200F096809F4B9C421CD044
:101CE0009E4B9C4206D0B2F5004F00F0B880012018
:101CF000BDE8F88303F5E033D3F8883003F440738C
:101D0000B3F5807F79D012D9B3F5007F00F08680DB
:101D1000B3F5407F00F0AD80E5E703F5E233D3F89B
:101D2000883003F0C003402B67D000F29D80002B69
:101D3000D9D1B2F5004F00F0C980FFF7AFFE73684C
:101D4000B0FBF3F083B2E3600020BDE8F883A26843
:101D5000834B22F430621743A760D3F8884004F421
:101D60004064B4F5806F00F0E48040F2D880B4F5B0
:101D7000006F00F09180B4F5406FB8D108244FF4A3
:101D80000043726802EB42019942B0D8B3EB023FC4
:101D9000ADD8082C00F2C180DFE804F0BCBFB7BFAB
:101DA000AABFBFBF9B006E4B6E49D3F8883003F0CB
:101DB0000303CB5CB2F5004F3FD0082B97D801A1AD
:101DC00051F823F03B1D0008351E0008231E0008B3
:101DD000EF1C0008011E0008EF1C0008EF1C0008A3
:101DE000EF1C0008E91D000873684FF40042B2FBC5
:101DF000F3F3E3600020BDE8F883B2F5004F4ED066
:101E0000FFF7B0FD9BE703F5E433D3F8883003F028
:101E10003003102BF1D08AD9202B3AD1B2F5004FE4
:101E20004ED07368504AB2FBF3F39BB2E3600020DC
:101E3000BDE8F883FFF74AFE81E7082B0FD8DFE8FB
:101E400003F045423F0E2E0E0E0E1B0003F5E63347
:101E50004649D3F8883003F00C03CB5CAAE7002393
:101E60000120E360BDE8F883802BD7D0C02B7FF43E
:101E70003AAFB2F5004FB7D173684FF48032B2FB7E
:101E8000F3F292B2C2F3420322F00F021343002096
:101E9000E7E7302BEDD026E70224334B71E7FFF75D
:101EA00061FD736834684000B0FBF3F39AB2C2F38B
:101EB000420322F00F0213430020E360BDE8F883E1
:101EC00073682B4ADBE7FFF701FEEAE7FFF7E6FD61
:101ED000E7E74FF40003B3FBF2F30020254AA3F534
:101EE000407191423FF603AF3268D360BDE8F8839A
:101EF000FFF738FD050E04020023726820462946CC
:101F000005F000FD03460020E8E71B4B0020B3FB73
:101F1000F2F3E3E7FFF7C2FDECE70120DEE7002C78
:101F20007FF4E5AEFFF7BAFD0346002B7FF429AF3F
:101F300060E7FFF717FD03460424002B7FF421AF71
:101F400058E700BFF369FFEF008000400038014010
:101F50000044004000480040004C00400050004059
:101F600000100240D07E00080024F400C07E00086B
:101F70000048E801FFFC0F00000024F4436ADA0780
:101F800010B406D50268816A546824F400342143F1
:101F900051609C0706D50268C16A546824F48034F5
:101FA00021435160590706D50268016B546824F437
:101FB0008024214351601A0706D50268416B54689A
:101FC00024F4004421435160DC0606D50268816B8D
:101FD000946824F4805421439160990606D50268E0
:101FE000C16B946824F40054214391605A0609D5CA
:101FF0000268016C546824F480140C43B1F5801F0E
:1020000054600BD01B0606D50368816C5A6822F415
:1020100000220A435A605DF8044B70475468416CD3
:1020200024F4C00421435160ECE700BF2DE9F041E6
:10203000174606460C461D46FEF71EFB80468FB926
:10204000326801E0691C18D1D3692340A342F9D159
:102050000020BDE8F081C5B1FEF70EFBC8EB000023
:10206000854211D3326801E06B1CF4D1D36923405F
:10207000A342F9D00020BDE8F08135B1FEF7FCFAAB
:10208000C8EB00008542DBD23268136823F080037E
:102090001360136823F020031360136823F4807324
:1020A00013609068012120F001000023906003205C
:1020B00086F8691086F86830BDE8F0810022036870
:1020C00010B5C26619680907044609D41B685B0786
:1020D0000FD40123002084F8693084F8680010BD13
:1020E0004FF400116FF07E43FFF7A0FF68B10320AB
:1020F00010BD20464FF4800100226FF07E43FFF7B1
:1021000095FF0028E5D0032010BD2368DEE700BF5F
:1021100010B5044628B390F8693003F0FF0213B3FA
:102120002368022284F869201A6822F001021A60EA
:102130002046FFF7A1FD012813D0636AC3B92368C5
:102140005A6822F490425A609A6822F02A029A60F1
:102150001A6842F0010220461A60BDE81040FFF7FD
:10216000ADBF012010BD80F86820FFF783FDD7E7E1
:102170002046FFF703FFE2E7254B26491A681207BE
:10218000234A54BFD3F894001868936854BFC0F32F
:102190000320C0F3031003F00C03082B51F82010A8
:1021A00010D00C2B10D01C4A042B14BF0B46134626
:1021B000174A1A4891681A4AC1F30311415CCB408F
:1021C00013607047174BF3E7D068D36800F0030241
:1021D000C3F30213022A03F1010312D0032A14D11C
:1021E0001049B1FBF3F30A4AD068D268C2F34162E6
:1021F0000132C0F30620520000FB03F3B3FBF2F3FD
:10220000D6E70549B1FBF3F3EDE7B1FBF3F3EAE7FA
:1022100000100240E47E00080024F400D47E000890
:102220008C01001000127A00F0B5002397B0194617
:102230000446402206A80193029303930493059356
:1022400000F03CFE4FF4806393FAA3F3B3FA83F3F8
:1022500043F02003C3F34213012B61D04FF480639A
:1022600093FAA3F3B3FA83F34FF4806393FAA3F3DF
:10227000B3FA83F343F02003C3F34213032B2C4B35
:102280000CBFD3F89430DB694FF4806191FAA1F16F
:10229000B1FA81F101F01F0123FA01F111F00101FE
:1022A00002D0002017B0F0BD16AD012345F8543D13
:1022B0002846FFF7FFF803230693002C33D04FF492
:1022C000A0230793182207234FF0000E02210424B5
:1022D000032601270DEB02001393CDF824E010969E
:1022E0000F911197129214941594FEF75DFB03461B
:1022F0000028D6D10F222846214603930493059344
:1023000002960192FFF7D6F803460028C9D11022A1
:1023100006A80C930F930692FEF746FB3846C1E7DA
:10232000034B1B68B0E74FF480330793CAE700BF45
:1023300000100240F0B5002397B01946402206A8CD
:102340000193029303930493059300F0B7FD0422D5
:10235000012306A806920893FEF726FB20B91B4B23
:102360001A6842F004021A600123002402224FF08E
:10237000130E072106A86027282604250C93109326
:102380001193CDF818E0079409940D940E970F92CD
:102390001592129613911495FEF706FB034610B1A1
:1023A000204617B0F0BD032229460F240DEB05008F
:1023B00003930493059301940292FFF77BF8D0F105
:1023C000010038BF002017B0F0BD00BF0010024070
:1023D00008B50120FFF728FF00B108BDFFF7AAFFED
:1023E0000028FAD1FEE700BF174B1848D3F8882021
:1023F00070B542F47002164CC3F888202268154D5F
:10240000002142F001022260A160226822F0A8525D
:1024100022F410224FF400662260E66026684FF036
:10242000006226F480262660A1619A600560FEF7AE
:1024300009F9FFF7CDFFA36B43F00803A363A36B78
:1024400023F00803A36370BD00ED00E08C010010D1
:102450000010024000093D00F8B5144B90F91970C6
:10246000026804698668C5681A604FF4006100223A
:10247000DC60013744695E609D601C6119629A618D
:10248000DA6110D090F9182001320CBF04220C221E
:102490005A610648FFF73CFE00B9F8BD0448BDE8A4
:1024A000F84000F0F7B808225A61F2E73004001053
:1024B000147F0008F0B5044687B008460E46574919
:1024C000154600F051F956490746284600F04CF9E8
:1024D0000146384600F036F9411C206000F0868045
:1024E000504B4FF416529842A26056D04E4B984231
:1024F00032D04E4B984268D103F5E4339A6D42F4E2
:1025000080229A659B6D03F480230293029A022332
:1025100063603046414900F0F3F82846404900F036
:10252000EFF8721C03D03046012100F055FA6B1C05
:1025300003D02846012100F04FFA0023E360236115
:102540006361267665762046FFF786FF364A236864
:10255000934230D007B0F0BD03F5E6339A6D42F4F4
:1025600000329A659B6D03F400330193019A0123B5
:1025700063602F4B9842CCD103F5C833DA6D42F03B
:102580000102DA65DB6D03F001030593059B4FF44F
:1025900016420523A2606360BBE703F558431A6E39
:1025A00042F480421A661B6E03F4804300930023BA
:1025B000009A6360DDE71F4B1F4821461C2201245F
:1025C0001C6000F070FC07B0F0BD1C4B984214D1A9
:1025D00003F5E2339A6D42F400229A659B6D03F491
:1025E000002303930323039A636092E71448154979
:1025F000552200F043F8206872E7134B9842B8D197
:1026000003F5E0339A6D42F480129A659B6D03F4F2
:10261000801304930423049A63607AE7A881000876
:10262000308100080038014000440040004800406C
:1026300000800040A0030010A0040010004C0040E7
:102640002C7F0008487F0008005000400268D369D2
:102650009B06FCD5024B908C1A60C0B2704700BF3D
:10266000300400100268D3691B06FCD5024BC9B2C6
:1026700011851A60704700BF3004001010B40C467A
:1026800013460146224602485DF8044B00F002B8AA
:10269000F07F00080FB400B5064B83B004AA1B6896
:1026A00052F8041BD868019200F0DAFD012000F016
:1026B00021FA00BFF001001038B50D46044600F0C5
:1026C000ABF8013510D094F9003001330DD02369F7
:1026D00062681A602046012100F0BAF82046002105
:1026E000BDE8384000F0B0B838BD03480349352292
:1026F000FFF7C4FFEBE700BF248000083C80000820
:10270000431C10B5044619D091F90030581C04D16F
:102710000FE011F90C3F5A1C0BD09C42F9D1204616
:10272000896800F029F920460021BDE8104000F03A
:1027300053B90348BDE81040FFF7ACBF10BD00BF60
:10274000AC800008884208B50AD0431C07D001318C
:1027500006D00448FFF79EFF4FF0FF3008BD084643
:1027600008BD00BFC080000808B5431C0DD091F91A
:1027700000305A1C04D109E011F90C3F5A1C05D055
:102780009842F9D14868411C00D008BD0248FFF7C3
:1027900081FF4FF0FF30F8E7D4800008014800F0D7
:1027A0007FB900BF2881000838B5054600F04EF912
:1027B000044600F04BF9001BA842FAD338BD00BF15
:1027C00007EE100ADFED047A67EE277AFDEEE77A6E
:1027D00017EE900AFFF7E8BF002474494FF47A73AC
:1027E00003FB00F0FFF7E0BF431C10B5044608D020
:1027F0002046002100F0C0F804F00F040120A040A2
:1028000010BD034803492722FFF738FFF0E700BF58
:10281000208200083482000870B504464B1C0D4627
:10282000217010D0C1F3031000F032F8064628469C
:10283000FFF7DAFF06F1100206F118032836606090
:10284000A260E360266170BD90F9000000F0C4B89A
:1028500038B5054690F90000431C0C460BD0012CFE
:1028600004D00021BDE8384000F086B82146BDE81C
:10287000384000F081B8044804494722FFF7FEFEC3
:1028800095F90000EBE700BF2480000834820008BF
:1028900000B587B007285AD8DFE800F012212F3D95
:1028A0004B5959042D4B2E48DA6C42F08002DA6401
:1028B000DB6C03F080030593059B07B05DF804FB18
:1028C000264BDA6C42F00102DA64DB6C03F00103A0
:1028D0000093009B4FF0904007B05DF804FB1F4B46
:1028E0002048DA6C42F00202DA64DB6C03F0020387
:1028F0000193019B07B05DF804FB184B1A48DA6C92
:1029000042F00402DA64DB6C03F004030293029BDE
:1029100007B05DF804FB114B1448DA6C42F0080272
:10292000DA64DB6C03F008030393039B07B05DF8E4
:1029300004FB0A4B0E48DA6C42F01002DA64DB6CDE
:1029400003F010030493049B07B05DF804FB0948EF
:10295000FFF7A0FE002007B05DF804FB0010024066
:10296000001C00480004004800080048000C004813
:1029700000100048D482000830B5431C87B00546DB
:102980000C461CD0C5F30310FFF782FF05F00F05BE
:1029900004F00F0201210D4B01FA05F553F8223026
:1029A00001950322C4F3021501A9C4F3C3140293D1
:1029B000039505940492FDF779FE07B030BD0448F5
:1029C00004495F22FFF75AFEDCE700BF9C82000843
:1029D00020820008F882000838B5431C04460D46E2
:1029E00018D0C4F30310FFF753FF04F00F04C268BC
:1029F000022D4FEA44044FF0030198BFA54001FAAD
:102A000004F422EA0404C460C26888BF00251543A8
:102A1000C56038BD024803498422FFF72FFEE0E776
:102A200020820008F8820008054B186800B1704742
:102A3000044A0549116001221A60FDF7A7BC00BFD6
:102A4000E8030010AC030010000C004008B5044B74
:102A50001B680BB9FFF7E8FF024B586A08BD00BFBF
:102A6000E8030010000C0040034B1B685863DA6851
:102A700042F00202DA607047AC030010034B1B689F
:102A8000DA6822F00202DA60704700BFAC0300107F
:102A9000024B1B686FF002021A617047AC03001012
:102AA00038B50368DB680446984763685B6883B1A0
:102AB00022681D6853689847281A002862680CDC51
:102AC00050681168836853600029F0D040688847D7
:102AD000EBE723689B68984738BD236852681B69F9
:102AE0001068984738BD00BF014B1868704700BF99
:102AF000F001001008B5074B044613B10021AFF3F5
:102B00000080054B1868836A03B198472046FDF79B
:102B10005BFD00BF00000000C08300088A892DE92A
:102B2000F041054610070C4657D44B68002B02DCD9
:102B30000B6C002B18DDE66AB6B102F4805200235C
:102B400092B22F682B600AB1626D10E0216A2846AC
:102B50000123B047411C024609D12B683BB11D2B14
:102B600001D0162B47D12F600020BDE8F081A3894A
:102B70005B0705D56368D21A636B0BB1236CD21A5D
:102B8000E66A216A00232846B047461CA38905D17E
:102B90002A681AB11D2A01D0162A19D100226260B2
:102BA000D9042269226004D5421C01D12B6803B9E3
:102BB0006065616B2F600029D6D004F1440399420F
:102BC00002D0284600F082F900206063BDE8F08161
:102BD00043F04003A381BDE8F0810F69002FC3D00B
:102BE00093070E6808BF4B690F6018BF0023C7EB3F
:102BF00006088B6012E0A38943F04003A3814FF0E5
:102C0000FF30BDE8F0812846216AA66A3A4643466D
:102C1000B0470028EFDD0744C0EB0808B8F1000F0B
:102C2000F1DCA1E738B50B6905460C46DBB118B1FC
:102C300083690BB900F072F80C4B9C4201D16C68AF
:102C400008E00B4B9C4201D1AC6803E0094B9C426D
:102C500008BFEC68B4F90C302BB128462146BDE81A
:102C60003840FFF75BBF002038BD00BF5C83000821
:102C70007C8300089C830008014620B9044B054969
:102C8000186800F0B5B8044B1868FFF7CBBF00BF59
:102C9000C0830008252C0008F0010010014900F055
:102CA000A7B800BF252C0008002310B50446036018
:102CB0004360836081814366C281036143618361B4
:102CC00019465C30082200F0F9F8054B6362054BA9
:102CD000A362054BE362054B2462236310BD00BF72
:102CE000E53F0008074000083F4000086340000837
:102CF00070B568234D1E5D430E4605F1740100F06A
:102D000029F9044640B1002180E842000C30A0605F
:102D100005F1680200F0D2F8204670BD836910B555
:102D2000044633BB8364C3640365124B124A1B68B9
:102D30008262984204BF0123836100F01FF8606043
:102D4000204600F01BF8A060204600F017F8042190
:102D5000E06000226068FFF7A7FFA0680921012258
:102D6000FFF7A2FFE06812210222FFF79DFF012377
:102D7000A36110BDC08300089D2C0008F8B51B4B53
:102D80001E68B369074613B93046FFF7C7FF4836D8
:102D9000B4687368013B04D4B4F90C5075B168345D
:102DA000F8E733682BB938460421FFF7A1FF3060FC
:102DB00008B13668ECE70C233B60F8BD4FF6FF73B3
:102DC000E3810123A38165662560A56065602561B7
:102DD0006561A56104F15C002946082200F06EF8E7
:102DE0006563A563A564E5642046F8BDC08300085B
:102DF0002DE9F8438046894600F14804002694B145
:102E0000A5686768013F0CD4AB89012B07D9B5F9D8
:102E10000E30013303D040462946C8470643683583
:102E2000F0E72468EBE73046BDE8F88370B50E4B59
:102E30000E4CE41AA41000251E46A54204D056F8F4
:102E4000253098470135F8E705F02AF8084C094B7A
:102E5000E41AA41000251E46A54204D056F82530D9
:102E600098470135F8E770BD3002001030020010BD
:102E70003802001030020010024B0146186800F0C2
:102E800069B800BFF001001010B5C9B20244904209
:102E9000034606D01C788C4200F10100F7D1184699
:102EA00010BD002010BD10B5431E0A44914204D04D
:102EB00011F8014B03F8014FF8E710BD0244034637
:102EC000934202D003F8011BFAE7704730B500299E
:102ED0003DD051F8042C0B1F1D49002AB8BF9B1888
:102EE0000A680C4612B95A600B6030BD93420DD28D
:102EF00019685818904201BF5A5852181A6042680F
:102F00005A60236030BD994203D80A4651680029AF
:102F1000F9D1146815199D420AD11B682344D018B1
:102F20008842136013D10868034413604B680DE0B6
:102F300002D90C23036030BD1C681819884204BFF5
:102F400008684968596004BF00191860536030BDB3
:102F5000F003001070B5CC1C24F0030408340C2CD2
:102F600038BF0C24002C064603DA0C233360002003
:102F700070BD8C42F9D3204A136810461946A1B19E
:102F80000A68121B0ED40B2A03D90A608B188C50C6
:102F90001FE08B420DBF5A684A685A60026018BF32
:102FA0000B4616E00B464968E9E7144D2B681BB940
:102FB000304600F0DFFF28603046214600F0DAFF9F
:102FC000421C0346D1D0C51C25F0030585420AD119
:102FD0001C6003F10B001A1D20F00700821A0AD0B2
:102FE0005142995070BD3046E91A00F0C3FF0130DC
:102FF000BBD02B46ECE770BDF0030010EC030010D3
:103000009368013B002B10B5936009DA9469A342E1
:1030100002DBCBB20A2B03D1BDE8104001F014BF94
:103020001368581C10601970C8B210BDF8B5064678
:103030000F461446D518AC4208D0304614F8011B90
:103040003A46FFF7DDFF431CF5D100E00020F8BD54
:103050002DE9F0439DB00D4690460393064618B106
:1030600083690BB9FFF75AFE754B9D4201D1756814
:1030700008E0744B9D4201D1B56803E0724B9D425C
:1030800008BFF568AB891C070AD52B6943B100233B
:10309000099320238DF8293030238DF82A3041E020
:1030A0003046294601F036FF0028F0D04FF0FF30BF
:1030B000C2E0039A111D12680391002ABBBF52425D
:1030C00043F0020307920792B8BF049301342378B8
:1030D0002E2B7BD0DFF88081217840460322FFF73A
:1030E000D3FE38B1049AC8EB000040238340134359
:1030F00004930134217855488DF82810062204F1F4
:103100000108FFF7C1FE002800F08580504B002B1E
:1031100078D1039B073323F0070308330393099BFC
:103120003B44099343461C4613F8012B1AB9B4EBF0
:1031300008090ED002E0252AF5D1F8E730462946E5
:1031400042464B46FFF772FF013070D0099B4B445B
:1031500009932378002B6AD000234FF0FF320493A9
:103160000793059206938DF853301A9304F10108E2
:103170004446DFF8E890217848460522FFF784FEB0
:1031800008F10108049B30B1C9EB00000122824024
:1031900013430493ECE7D80644BF20228DF8532054
:1031A000190744BF2B228DF8532022782A2A80D079
:1031B000079923461C4601332278303A092A03D85E
:1031C0000A2000FB0121F5E7079180E763782A2BAD
:1031D0000AD1039B1A1D1B680392002BB8BF4FF046
:1031E000FF330234059375E7611C00220C46013160
:1031F0002378303B092B03D80A2000FB0232F5E785
:10320000059267E703AB0093304604A92A46114BA9
:1032100000F0C4F807E003AB0093304604A92A4647
:103220000C4B00F077FB421C07467FF478AFAB896C
:103230005B063FF53BAF09981DB0BDE8F08300BFCA
:103240005C8300087C8300089C830008CE83000810
:103250009D3300082D300008CA830008C48300088D
:1032600030B51346044A05460C46106829462246E6
:10327000BDE83040FFF7ECBEF00100102DE9F0474B
:1032800088B0002B149F1299109EDDF84CA01D46AB
:10329000B8BF05F1004327F02007B6BF1D46002345
:1032A0002D231446B8BF1446462F0B7003D0452F6C
:1032B00003D1013601E0032300E002238DE8480436
:1032C00006AB039307AB049322462B4601F02CFF79
:1032D000472F804602D1119BDB0726D5462F08EBEE
:1032E000060911D198F80030302B0AD12046294622
:1032F0000022002304F03CFA18B9C6F10106CAF80E
:103300000060DAF800309944204629460022002364
:1033100004F02EFA08B1CDF81C90079B4B4504D25F
:103320005A1C079230221A70F7E7079B159AC8EBD0
:1033300003034046136008B0BDE8F08773B5034649
:103340000029B8BF494203F8022BB4BF2D222B221B
:103350000929427019DD0DF1070426460A2291FB66
:10336000F2F502FB15113031092D04F8011D294633
:10337000F4DC3031651E04F8011CB5421A460AD24D
:1033800015F8012B03F8012BF7E730241A462144E6
:1033900002F8024B5970101A02B070BD2DE9F04FBF
:1033A00091B08B4615461E461A9F044602F08CFFCC
:1033B000D0F800A0504600F058FE00230E933B6862
:1033C0000990073323F0070303F108029BF81880E4
:1033D0003A60D3E90023CBE91223DBE9120100F0C4
:1033E0009FFD0128DBE9120119D10022002304F01E
:1033F000C9F910B12D238BF84330A04BA04FB8F181
:10340000470F88BF1F460323CBF81030DBF800308E
:1034100023F00403CBF800304FF00009A1E000F0E6
:103420007FFDDBF8003048B9964A974FB8F1470F57
:1034300088BF17460322CBF81020E9E7DBF8042009
:103440009BED127B571C8DED0A7B01D1062209E012
:10345000B8F1670F02D0B8F1470F05D1002A40F04C
:10346000C7810122CBF80420DBF80420CDF81080BE
:1034700043F480638DE80C00CBF800300DF133038A
:1034800002930DAB03930EAB0593002306932046E6
:10349000DDE90A23FFF7F2FE08F0DF03472B0746BA
:1034A0000AD10D9BD81C03DBDBF80420934237DDE7
:1034B000A8F102085FFA88F8B8F1650F0D9915D8E0
:1034C000013942460BF150000D91FFF737FF0E9A7C
:1034D0008318012A8146CBF8103003DCDBF800208A
:1034E000D10738D50133CBF8103034E0B8F1660F8E
:1034F00018D10029DBF8043009DDCBF810101BB916
:10350000DBF80020D20721D501330B441CE01BB9A6
:10351000DBF80020D00701D5023315E0012313E0CA
:103520004FF067080D9B0E9A934207DBDBF80020F3
:10353000CBF81030D10709D5013305E0002BD4BFFB
:10354000C3F1020301231344CBF810300D9BCBF8D9
:1035500058304FF000099DF8333013B12D238BF80C
:1035600043300096204659460FAA2B4600F05CF9DE
:10357000013002D14FF0FF3052E1DBF800305A0544
:1035800005D4204629463A46DBF8103008E1B8F168
:10359000650F40F2D080DBE912010022002304F025
:1035A000E7F850B320462946384A0123B047013096
:1035B000E0D00E9B0D9A9A4209DBDBF80030D80769
:1035C00005D4DBF800309F0700F1108107E12046A9
:1035D00029465246099BB0470130CBD000270E9BAD
:1035E000013B9F42EDDA204629460BF11A020123E6
:1035F000B0470130BED00137F1E70D9B002B29DC2D
:1036000020462946214A0123B0470130B2D00D9B04
:103610002BB90E9B1BB9DBF80030D907D1D520465A
:1036200029465246099BB0470130A3D04FF000080D
:103630000D9B5B4298452046294608DA0BF11A0299
:103640000123B047013095D008F10108F0E73A4670
:103650000E9BA5E0DBF858200E9B9A42A8BF1A46A5
:10366000002A914602DC4FF000081CE02046294663
:103670003A464B46B0470130F5D17BE7D983000885
:10368000D5830008E1830008DD830008E583000896
:10369000204629460BF11A020123B04701303FF4BE
:1036A00069AF08F10108DBF85830B9F1000FACBF81
:1036B000C9EB03021A469045EADB07EB03080D9AB3
:1036C0000E9B9A4210DBDBF80030DA070CD40E9A1E
:1036D0001744C8EB07030D9FD21B9342A8BF1346A4
:1036E000002B1F4608DC0EE0204629465246099B67
:1036F000B0470130EBD13DE7204629464246B0476E
:1037000001303FF437AF4FF000080AE02046294669
:103710000BF11A020123B04701303FF42BAF08F13F
:1037200001080D9A0E9B002FA3EB0203A8BFDB1B21
:103730009845EBDB45E70E9A012A01DCDB0736D51D
:10374000204629463A460123B04701303FF412AFE4
:10375000204629465246099BB04701303FF40AAF44
:10376000DBE912010022002304F002F8E8B90E9B05
:10377000204629467A1C013B1DE0204629460BF1D4
:103780001A020123B04701303FF4F4AE01370E9B1B
:10379000013B9F42F1DB204629460BF150024B468C
:1037A000B04701307FF40DAFE4E60027EFE7204695
:1037B00029463A460123B0470130ECD1DAE62046EB
:1037C00029460BF119020123B04701303FF4D2AE74
:1037D0000137DBF80C300F9A9B1A9F42EFDBDBF8C6
:1037E0000C000F9B9842B8BF184619E00027F0E77D
:1037F00043F480638DE80C00CBF800300DF1330307
:1038000002930DAB03930EAB059300230693CDF803
:1038100010802046DDE90A23FFF730FD074640E629
:1038200011B0BDE8F08F00BF2DE9F84391461F4667
:103830008A680B69DDF820809342B8BF1346C9F847
:10384000003091F8432006460C4612B10133C9F806
:1038500000302368990642BFD9F800300233C9F816
:103860000030256815F006051CD094F84330226816
:10387000003318BF012392061FD5E1185A1C3020CF
:1038800081F84300224494F8451082F84310023333
:1038900013E03046394604F119020123C0470130D4
:1038A00007D00135E368D9F800209B1A9D42F0DB70
:1038B000DBE74FF0FF30BDE8F8833046394604F1CE
:1038C0004302C0470130F4D02268D9F80050E368C1
:1038D00002F00602042A08BF5D1B2269A3680CBF20
:1038E00025EAE57500259342C4BF9B1AED184FF0F9
:1038F0000009A9450ADA3046394604F11A020123C3
:10390000C0470130D5D009F10109F2E70020BDE838
:10391000F88300002DE9FF410C461746227E6E2AEF
:10392000984606460A9B01F1430100F0AF8012D889
:10393000632A23D00AD8002A00F0BC80582A40F01D
:10394000CB8084F84520DFF804E257E0642A1ED0DB
:10395000692A1CD0C0E0732A00F0B08009D86F2A11
:103960002ED0702A40F0B880226842F020022260F7
:103970003FE0752A24D0782A3BD0ADE01A68111DAB
:103980001960136884F8423004F14205A8E0206809
:103990001A6810F0800F02D0101D186008E010F0B7
:1039A000400F02F10400186002D0B2F9003000E0CC
:1039B0001368002B3EDA2D225B4284F8432039E065
:1039C00020681A6810F0800F02D0101D186007E000
:1039D00010F0400F02F10400186001D0138800E0DD
:1039E0001368227EDFF864E16F2A0CBF08220A22E6
:1039F0001CE07822DFF858E184F845202268186836
:103A000012F0800F00F104051D6003D1550601D5A9
:103A1000038800E00368D00744BF42F02002226020
:103A20001BB9226822F0200222601022002084F8B4
:103A3000430002E0DFF814E10A226568A560002D6A
:103A4000A2BF206820F00400206003B965B10D46D4
:103A5000B3FBF2F002FB10331EF8033005F8013D12
:103A600003460028F4D100E00D46082A0BD1236854
:103A7000DA0708D5236962689A42DEBF302305F869
:103A8000013C05F1FF35491B21612EE025681A68CC
:103A9000606915F0800F03D0151D1D60136808E0E4
:103AA00015F0400F02F104051D60136801D0188065
:103AB00000E01860002323610D4616E01A68111D0E
:103AC00019601568626828460021FFF7DDF908B122
:103AD000401B6060636804E004F1420584F8422002
:103AE00001232361002384F84330CDF80080304661
:103AF000214603AA3B46FFF797FE013002D14FF063
:103B0000FF301FE0304639462A462369C04701305E
:103B1000F5D023689B0705D4E068039B9842B8BFA3
:103B200018460FE00025E368039A9B1A9D42F3DADA
:103B30003046394604F119020123C0470130DED076
:103B40000135F0E704B0BDE8F08100BFE78300086D
:103B5000F88300082DE9F04F99468B6815465A1EE8
:103B6000B2F5AE7F81BF6FF4AE7203EB020C40F290
:103B70005D138B600B680F4643F4F06387B047F822
:103B80001C3B4FF0000B06460C4698BF4FF0000C54
:103B9000B8465A46CDF80CB0CDF808B0DA46CDF8A4
:103BA00004B0A168002900F0EC802B681B78492B39
:103BB00070D016D8392B0DD8312B40D22D2B46D0B2
:103BC00002D82B2B43D0DCE02E2B00F09280302B40
:103BD00023D0D6E0452B00F09580462B77D0412BA3
:103BE0000CE0652B00F08E800AD8542B75D002D8DB
:103BF0004E2B34D0C5E0592B75D0612B46D0C0E098
:103C00006E2B2CD004D8662B61D0692B42D0B8E043
:103C1000742B62D0792B66D0B3E0206810F4807FDB
:103C20000DD020F0800020600AF1010ABCF1000FE5
:103C300000F08A8001310CF1FF3CA16084E012EBBE
:103C40000B0F40F09E80216821F4C07105E02168CF
:103C5000080640F1968021F08001216070E06AB989
:103C6000BAF1000F0CD1216801F4E060B0F5E06F0B
:103C700006D121F4F0612160012261E0022A5ED0C8
:103C8000BBF1010F1ED0BBF1040F1AE0012A78D15D
:103C9000022255E0BBF1000F0ED1BAF1000F73D133
:103CA000216801F4E060B0F5E06F71D121F4F061BA
:103CB00021604FF0010B43E0BBF1030F02D0BBF1D9
:103CC000050F5ED10BF1010B5FFA8BFB38E0BBF106
:103CD000020F56D14FF0030B32E0BBF1060F50D16B
:103CE0004FF0070B2CE0BBF1070F4AD14FF0080B48
:103CF00026E02168880544D521F420712160CDF8A3
:103D000004A01DE0216801F4A060B0F5806F04D02C
:103D1000480536D5BAF1000F3AD088055CBF019846
:103D2000CDF80C8021F4F06158BFC0EB0A0041F4DB
:103D3000C07158BF029021604FF0000A00E00322DA
:103D400088F8003008F10108A368013BA3602369EB
:103D5000013323616B68013B002B6B6003DD2B6833
:103D600001332B601DE7D4F8803105923046294697
:103D7000CDF810C09847DDF810C0059A00283FF430
:103D800010AFBAF1000F03D0236823F480732360CF
:103D9000013A012A0ED8B8450AD9D4F87C3118F86E
:103DA000011D30462A4698472369013B2361F2E70B
:103DB0000125AEE00BF1FF33062B22D8BBF1020F39
:103DC00012D9ABF1030B5FFA8BFBCBEB080BD84599
:103DD00017D0D4F87C3118F8011D30462A46984790
:103DE0002369013B2361F2E7B845E1D9D4F87C317E
:103DF00018F8011D30462A4698472369013B236184
:103E0000F2E72368DA052CD55B050CD5B845CFD988
:103E1000D4F87C3118F8011D30462A4698472369AA
:103E2000013B2361F2E718F8011C2369652903F1BE
:103E3000FF3308F1FF3B23610DD045290BD0D4F8A7
:103E40007C3130462A469847236918F8021C013B0A
:103E5000A8F1020B2361D4F87C3130462A469847FA
:103E6000D846256815F0100552D188F8005023680F
:103E700003F4C063B3F5806F05D1019BC3EB0A0364
:103E80005A426BB916E0029BA3B1039B2A46591C08
:103E900030460A2300F052FF029BDDF80C80C21A64
:103EA00004F26F13984528BF04F5B77840461B49C4
:103EB00000F074F830463946002200F02DF92268EF
:103EC000D9F8003012F0020F06460F4603D01A1D33
:103ED000C9F8002006E012F0040F03F10402C9F84B
:103EE000002003D01B68C3E900670DE0D3F8008011
:103EF00000F016F810B900F04DF803E030463946EE
:103F000003F0B0FCC8F80000E3680133E36000E0B0
:103F10000025284607B0BDE8F08F00BF09840008DF
:103F20000A4631F0004110B503461BD00F48A2F5F8
:103F30008014844210D902F1FF420C4802F5E002DD
:103F4000824209D9B1F5801F08D3094A914207D1AD
:103F5000B3FA83F0400910BD042010BD032010BD4A
:103F6000002010BD0028E6D1022010BDFFFFDF7F3A
:103F70000000F07F38B5064C002305460846236054
:103F8000FCF70EFB431C02D1236803B12B6038BD44
:103F9000BC040010004870470000C07F0EB400B59C
:103FA0009CB04FF40271ADF814106FF00041049111
:103FB00007914FF6FF711DABADF81610084953F885
:103FC000042B029006900868019302A902F080FE7B
:103FD000029B00221A701CB05DF804EB03B070471E
:103FE000F001001010B50C46B1F90E1002F062FF9E
:103FF0000028ABBF636DA3891B1823F48053ACBFAB
:104000006365A38110BD2DE9F0411D468B89DB0559
:1040100007460C46164605D5B1F90E1000220223BC
:1040200002F056F9A389B4F90E1023F48053A3814A
:10403000384632462B46BDE8F04100F059BF10B576
:104040000C46B1F90E1002F043F9431CA38915BFC9
:10405000606523F4805343F48053A38118BFA38188
:1040600010BDB1F90E1000F0C1BF034613F8012BCB
:10407000002AFBD1181A0138704770B5AAB1451E45
:1040800001396B7811F8014FA34205F1010606D101
:104090006FF00104641B1444E04202D11C46181B5B
:1040A00070BD3546002BECD1F8E7104670BD30B539
:1040B000036811F8014B01334CB11A78A2F14105A4
:1040C000192D98BF2032A242F3D0002030BD0360EA
:1040D000012030BD2DE9F0410F46904602F040FC32
:1040E00004460D46B8F1000F11D0C7F30A53C3F1CF
:1040F0006B03002B0BDD1B0503F17F55002405F539
:10410000401522462B4603F0CBF8BDE8F08120464F
:104110002946BDE8F08100002DE9F04F9FB0002353
:1041200083468A4616921A934FF000084FF0000912
:104130001991199B1A780D2A05D8092A13D2002A39
:1041400000F0BE8112E02B2A06D02D2A02D0202AB0
:104150000CD108E0012200E0002209925A1C1992B9
:104160005B782BB9ACE101331993E2E700230993A3
:10417000199C2378302B5CD16378582B01D0782B95
:104180004CD11AAB0093099B0193584619A9B14A27
:104190001BAB01F0D8FD10F00706054600F09B852B
:1041A000062E05D1013400231994099300F093BD24
:1041B0001A9A3AB11CA8352102F0C0FC58461A9947
:1041C00002F036F91B9A062E21D8DFE806F0040D1E
:1041D00008171C0D04004FF00009C84617E0DDF871
:1041E0007080DDF8749012E01D9BDDF8708002F2A3
:1041F000334223F4801343EA025908E0DFF858926F
:104200004FF0000803E06FF000494FF0FF38290736
:1042100040F1618549F0004900F05DBD199B5A1CD1
:1042200019925B78302BF9D0002B00F054850123D4
:1042300000E0002300260493199B0593039635465E
:10424000199C2778A7F13003DAB2092A10D8082D73
:10425000D8BF03994FF00A02D8BF02FB013304F123
:104260000104D4BF039302FB063601351994E7E736
:10427000584602F029F801680291584602F024F8E5
:104280000068FFF7F2FE029902462046FFF7F5FEAE
:1042900028B100203B462C46029007465DE0029084
:1042A000584602F011F80068FFF7DFFE199B0299EB
:1042B0001A1819921B5C002D47D12846302B05D1C6
:1042C000199B5A1C199201305B78F7E7A3F1310270
:1042D000082A48D8199A0290002005920446303BDB
:1042E00000F101012BD0029A0A44029207192146DB
:1042F000B94213D0013101F1FF3EBEF1080F06DCD7
:10430000039A4FF00A0E0EFB02F20392F0E7102917
:10431000DCBF4FF00A0E0EFB06F6E9E72044082842
:1043200000F1010405DC039A0A2101FB0233039327
:1043300004E0102CDCBF0A2101FB06360021199B8A
:10434000581C19905B78084602E02C4608460291FA
:10435000A3F130010929C2D90127652B01D0452BD2
:1043600060D174B905E0652B40F0C384002302934B
:10437000012728B9049B002B00F0A280044600E02E
:104380000024DDF864A00AF1010319939AF80130C2
:104390002B2B07D02D2B02D04FF0000C09E04FF053
:1043A000010C01E04FF0000C0AF1020319939AF896
:1043B0000230A3F13001092932D81946302904D13D
:1043C000199B591C19915978F8E7A1F1310EBEF1EA
:1043D000080F0B4626D8199B06933039199B03F119
:1043E000010ECDF864E05B78A3F13002092A05D80C
:1043F0004FF00A0E0EFB01313039EFE7069AC2EB9F
:104400000E0EBEF1080F44F61F6E03DC7145A8BF07
:10441000714600E07146BCF1000F04D0494202E051
:10442000CDF864A00021002C54D1002840F0538422
:10443000049A002A40F04F84002F41D14E2B20D007
:1044400002DC492B0AD03BE0692B07D06E2B18D039
:1044500036E000BF508400080000F07F19A8A6498C
:10446000FFF725FE60B3199BA449013B19A81993D6
:10447000FFF71DFE10B9199B01331993DFF89492D1
:104480001AE019A89E49FFF712FEC8B1199B1B78C4
:10449000282B0FD119A89B491CAA01F08BFE0528D7
:1044A00008D11D9BDDF8708043F0FF4949F4E00915
:1044B00000F011BCDFF860924FF0000800F00BBC78
:1044C000169BCDF864A0002B00F010840023099304
:1044D00000F003BC029B0398CB1A002D14BFAA4620
:1044E000A246102C25460493A8BF102502F062FEB8
:1044F000092D8046894613DD834B03EBC50353E941
:10450000122302F0CDFE80463046894602F052FE6C
:1045100002460B464046494602F010FD8046894659
:104520000F2C37DC049B002B00F0D58324DD162BE9
:1045300007DC754A02EBC302D2E900014B46424652
:1045400015E0049AC4F125039A4223DC6E4DC4F1B0
:104550000F0405EBC403D3E9000142464B4602F0C9
:104560009FFE049B1C1B05EBC405D5E9002302F04C
:1045700097FE80468946AEE3049B13F1160F09DBD4
:10458000614AA2EBC30240464946D2E9002302F049
:10459000B1FFEEE7049B651B1D44002D54DD15F0B3
:1045A0000F020AD0584B03EBC203D3E90001424685
:1045B0004B4602F075FE8046894635F00F0500F047
:1045C000B180B5F59A7F0BDD0024A24605940394D3
:1045D0002223CBF80030DFF83C914FF0000880E157
:1045E0004946DFF838912D11404600274E46012DEF
:1045F0000ADDEA0703D5D9E9002302F051FE0137AD
:104600006D1009F10809F2E78046A1F1547906EB33
:10461000C70642464B46D6E9000102F041FE21F0B2
:10462000004389460A461B0D38491B058B428046CC
:10463000CAD8A1F580118B4286BFDFF8E4904FF015
:10464000FF3802F154796DE06CD06D4215F00F0225
:104650000AD02D4B03EBC20340464946D3E9002361
:1046600002F048FF804689462D115BD01F2D04DDE6
:104670000024A246059403942CE115F0100F0CBF02
:1046800000236A23224E029340464946002D08DD4E
:10469000EB0703D5D6E9002302F002FE6D100836C1
:1046A000F4E7029B80468946EBB1C1F30A53C3F19C
:1046B0006B03002B0A4616DD1F2B0EDD342BDEBFED
:1046C000203B4FF0FF3101FA03F34FF00008CCBF5D
:1046D0004FF05C7903EA020905E04FF0FF3202FA7D
:1046E00003F303EA0008404649460022002303F092
:1046F0003FF80028BCD117E0DA830008688500087D
:10470000E283000810840008808500080000A07C77
:10471000288400080000F07F0000F8FF48860008A9
:10472000FFFFEF7F00230293039B009358460599F8
:104730005246234601F0D1FE059000283FF444AFD5
:10474000049A049B002AC3F100034FF00004A8BFA1
:1047500000231293A246059B5846596801F033FE88
:10476000039000283FF434AF059B1A69059B023281
:1047700003F10C0192000C30FEF795FB1BAB00938C
:104780001CAB0193584642464B46CDE90A8902F0DC
:104790005AF91A9000283FF41BAF5846012101F046
:1047A00029FF824600283FF413AF049B02991C9D09
:1047B00023EAE37308931B9B002BADBF129A089A60
:1047C000129ED618B8BFD21AA3EB01032B446FF484
:1047D0007F71A8BF089A8B42C5F1360580F28680AA
:1047E000C91A1F29A5EB0105C8BFB3494FF0010045
:1047F000D5BF00FA01F3C91A139300FA01F3D9BF28
:1048000000230693069313907719029BB742154431
:104810001D443B46A8BF3346AB42A8BF2B46002BE6
:10482000C2BFFF1AED1AF61A129B002B63D1002F9C
:104830007ADC089B002B40F08180002D00F38880FB
:10484000002E00F38F8058461A99039A02F029F837
:10485000044600283FF4BCAEC36808930023C3603D
:10486000514602F002F8002880F28A80089B002B53
:1048700040F00A82B8F1000F40F00682C9F313033A
:10488000002B40F0018229F000431B0D1B05B3F102
:10489000D66F40F2F9816369002B6DD02146012269
:1048A000584601F08FFF5146044601F0DEFF002814
:1048B00040F3EA8129F00043029A1B0D1B05002AF0
:1048C00000F08D80B3F1D66F00F38980B3F15C7F87
:1048D00000F3DC8122234FF000084FF00009CBF8F1
:1048E0000030059B002B40F0E281F4E100230693A9
:1048F0000123139388E7514658461A4601F014FFE6
:10490000824600283FF464AE584651461A9A01F098
:104910007AFE179000283FF45BAE58461A9901F0D2
:1049200087FD179B1A9382E758461A993A4601F079
:1049300049FF1A9000287FF47CAF49E65846039956
:10494000089A01F0F1FE039000287FF476AF3FE66D
:10495000584603992A4601F035FF039000287FF45A
:104960006FAF35E651465846324601F02BFF82467E
:1049700000287FF468AF2BE62369012B8EDC83E1EE
:1049800062D1089AC9F3130322B34C498B424A46B9
:104990002ED1029B414663B1494B1340B3F1D46F12
:1049A00007D81B0DC3F16B034FF0FF3000FA03F380
:1049B00001E04FF0FF3399421AD1424B9A4202D1A3
:1049C00001313FF405AE3E4B134003F580194FF023
:1049D000000859E163B9B8F1000F09D16AE7A3F5FE
:1049E00080136FEA13596FEA09594FF0FF384BE112
:1049F000069B13B113EA090F02E0139B13EA080F99
:104A000000F04281089B029A4046494653B1FFF7A5
:104A100061FB02460B46DDE90A0102F08FFA80468F
:104A2000894631E1FFF756FB02460B46DDE90A01F4
:104A300002F082FA002200238046894602F098FEA6
:104A400000287FF447AF1FE12046514602F04DF8A1
:104A500000224FF0804306460F4602F09DFE0028DC
:104A600041D0089B13B10022174B0FE0B8F1000FA3
:104A700003D1C9F313033BB90DE0B8F1010F03D122
:104A8000B9F1000F3FF426AF104B0022CDE9062309
:104A900000260D4F3CE03046394600220A4B02F01A
:104AA00071FEB8B9304639460022094B02F0F8FBD6
:104AB00006460F4610E000BFE3FBFFFFFFFF0F00BD
:104AC0000000F07FFFFFEF7F0000F03F0000F0BF2D
:104AD0000000E03F944F002607F100431496159321
:104AE000DDE9142312E0304639468F4B002202F0F4
:104AF000D7FB089B06460F4623B901F100430E90F1
:104B00000F9301E0CDE90E67DDE90E23CDE9062321
:104B100029F000452D0D854B2D059D422DD1DDE958
:104B20000A23A9F1547940464946CDE90C2301F006
:104B300017FF02460B46DDE9060102F0B1FB024613
:104B40000B464046494602F0F9F921F000431B0D9F
:104B5000774A1B05934280460CD9764B0D9A9A42B0
:104B600003D10C9B01333FF433ADDFF8C8914FF014
:104B7000FF3878E001F154793DE0029B3BB3B5F199
:104B8000D46F24D8304639465FA3D3E9002302F01E
:104B900003FEB8B13946304602F044FE002808BF93
:104BA000012002F007FB089B06460F4623B901F1DE
:104BB00000431090119301E0CDE91067DDE9102367
:104BC000CDE90623079B03F1D6635B1B0793DDE961
:104BD0000A01DDE9068901F0C3FE02460B464046A4
:104BE000494602F05DFB02460B46DDE90A0102F090
:104BF000A5F980468946029BABBB29F000431B0DFB
:104C00001B059D422FD139463046CDF8189002F051
:104C1000E1FD02F0DFFA0B4602463946304602F06B
:104C20008BF9089BDDF818C006460F462BB9B8F182
:104C3000000F02D1CCF313037BB13046394634A3C5
:104C4000D3E9002302F09EFD88BB3046394632A3EB
:104C5000D3E9002302F0B4FD04E031A3D3E900233B
:104C600002F090FD18BB58461A9901F0E1FB584636
:104C7000039901F0DDFB5846514601F0D9FB584637
:104C8000214601F0D5FB66E5029B83B12A4B0D93CB
:104C900000230C9340464946DDE90C2302F000FB5B
:104CA0008046894619B910B92223CBF800305846FE
:104CB0001A9901F0BDFB5846039901F0B9FB58461B
:104CC000514601F0B5FB5846059901F0B1FB584635
:104CD000214601F0ADFB169B13B1169A199B136088
:104CE000099B1BB1404609F1004107E04046494697
:104CF00004E0002402940127FFF731BB1FB0BDE898
:104D0000F08F00BFAFF300800000C0FFFFFFDF4166
:104D10009535A094FFFFDF3F35E5AF350000E03F5C
:104D20009535A094FFFFCF3F0000E03F0000E07FFB
:104D3000FFFF9F7CFFFFEF7F000050392DE9F04718
:104D4000404CD4F800900F463D4615F801EB09EBB6
:104D50000E04667806F0080404F0FF060CB12F4636
:104D6000F2E774462D2C03D1BD1C7C78012603E0AC
:104D70002B2C04BF7C78BD1C13B1102B0AD15AE038
:104D8000302C56D12C7804F0DF04582C4CD16C78A0
:104D900010230235002E14BF4FF000486FF000487A
:104DA0000027B8FBF3FABE4603FB1A8809EB040C94
:104DB0009CF801C01CF0040F01D0303C0BE01CF04B
:104DC000030C1BD0BCF1010F0CBF4FF0370C4FF0A0
:104DD000570CCCEB04049C4210DAB7F1FF3F0AD029
:104DE000D64506D801D1444503DC03FB0E4E01270E
:104DF00001E04FF0FF3715F8014BD7E77C1C7346F5
:104E00000AD1002E4FF0220114BF4FF000436FF083
:104E1000004301602AB911E00EB1CEF100036AB17E
:104E200007B1691E116009E03024002BB2D10823BC
:104E3000B0E70A23AEE7302CACD1A3E71846BDE8B3
:104E4000F08700BFF401001070B50D461446064609
:104E500018B183690BB9FDF761FF224B9C4201D168
:104E6000746808E0204B9C4201D1B46803E01F4BFA
:104E70009C4208BFF468A369A360A3891A0709D5F7
:104E800023693BB123682069181A63699842EDB21F
:104E90000FDB08E03046214600F03CF80028F1D056
:104EA0004FF0FF3070BD30462146FDF7BBFE0028B5
:104EB000F6D1A368013BA36023685A1C22601D70D1
:104EC00063690130984204D0A389DB0707D50A2D16
:104ED00005D130462146FDF7A5FE0028E0D1284641
:104EE00070BD00BF5C8300087C8300089C830008C1
:104EF00038B5074C054600202060084611461A4682
:104F0000FBF7BCFA431C02D1236803B12B6038BD08
:104F1000BC040010314B70B51D6806460C4625B127
:104F2000AB6913B92846FDF7F9FE2D4B9C4201D120
:104F30006C6808E02B4B9C4201D1AC6803E02A4B23
:104F40009C4208BFEC68A3899AB211071DD4D5060C
:104F500002D40922326038E0500712D5616B41B1AA
:104F600004F14403994202D03046FDF7AFFF00231D
:104F70006363A38923F02403A3810023636023696F
:104F80002360A38943F00803A38123694BB9A38954
:104F900003F42073B3F5007F03D03046214601F0BF
:104FA000A9F9A38913F0010205D00022A260626969
:104FB0005242A26103E0990758BF6269A260226968
:104FC0004AB903F0800080B230B143F04003A381BE
:104FD0004FF0FF3070BD002070BD00BFF001001029
:104FE0005C8300087C8300089C83000838B5064C6D
:104FF0000023054608462360FBF72AFA431C02D12A
:10500000236803B12B6038BDBC0400102DE9F74FB5
:1050100003690C69A3428046C0F28180013C01F122
:1050200014074FEA840E00F1140657F8245006EBDB
:105030000E030193013556F82430B3FBF5F507EB69
:105040000E09C5B34FF0000A3846B446D34650F8AF
:10505000043B9AB21B0C02FB05A26B4303EB124309
:1050600092B2C2EB0B02BCF800B04FEA134A12FA3C
:105070008BF21FFA83FBDCF80030CBEB134303EB1E
:10508000224392B242EA034248454FEA234B4CF88E
:10509000042BDCD956F80E306BB9019B043BB342AC
:1050A0001A4602D8C8F8104005E01268043B002AEE
:1050B000F8D1013CF3E7404601F0D7FB00282CDB98
:1050C000013530464FF0000E57F8041BD0F800C0F1
:1050D0008AB2C2EB0E03090C13FA8CF3C1EB1C422B
:1050E00002EB23429BB243EA02434F454FEA224E72
:1050F00040F8043BE8D956F8242006EB840362B953
:10510000043BB3421A4602D8C8F8104005E01268C2
:10511000043B002AF8D1013CF3E7284600E00020D8
:1051200003B0BDE8F08F00002DE9F04F456A97B05D
:105130008246239CCDE9022345B91020FDF79CFE51
:10514000CAF82400456085600560C560DAF824303F
:10515000196859B15A684A60012393408B605046E0
:1051600001F066F9DAF8243000221A60039BA24AA3
:10517000002BBFBF01232360039B23F00043B8BF74
:105180000393039FA4BF0023236027F000431B0D5C
:105190001B0593421DD1229A42F20F731360029BAA
:1051A00043B9964A964BC7F31300002814BF18461C
:1051B000104600E09248249B002B00F07385C378D2
:1051C00013B100F1080300E0C31C249A136000F03F
:1051D00069BDDDE90245002220462946002302F090
:1051E000C7FA804658B1229A01231360249B002BF2
:1051F00000F0468583481860013800F053BD15ABB8
:10520000009314AB0193504622462B4601F01BFC41
:10521000C7F30A5607905EB1C5F3130343F07F51FD
:10522000204641F44011A6F2FF36CDF84C801DE037
:10523000159B149E1E446FF482639E42ADBF029A7A
:10524000714B029A06F21243A3BF22FA03F06F4B8E
:105250009B1B9B1BAABF9F4002FA03F0384301F03F
:10526000A9FF0123A1F1F871013E13930022684BBD
:1052700001F062FE5AA3D3E9002302F011F85AA309
:10528000D3E9002301F05AFE044630460D4601F0F2
:10529000A1FF57A3D3E9002302F002F802460B4610
:1052A0002046294601F04AFE04460D4602F092FAD5
:1052B0002946834600222046002302F063FA58B1B3
:1052C000584601F087FF02460B462046294602F069
:1052D0004FFA08B90BF1FF3BBBF1160F0DD84D4B40
:1052E00003EBCB03D3E90001DDE9022302F068FA06
:1052F00030B10BF1FF3B002300E00123129300E0EB
:105300001290149B9E1B731E0A9345BF5B42099328
:10531000002300234CBF0A930993BBF1000F07DB66
:105320000A9BCDF834B05B440A9300230B9308E04A
:10533000099BCBEB03030993CBF100030B930023F1
:105340000D93209B092B28D8052BC4BF043B209329
:10535000209BA3F10203CCBF00250125032B21D8FC
:10536000DFE803F0020E0410002300E001230C9399
:10537000219B002B20DC0123069305931A4619E09C
:10538000002300E001230C93219B5B44069301332F
:10539000012B0593B8BF012311E0012500232093C1
:1053A0000C9501E001230C934FF0FF330693059316
:1053B00000221223219202E0219B06930593DAF842
:1053C000244000226260042101F114029A4223D891
:1053D0006268013262604900F6E700BFAFF3008007
:1053E00061436F63A787D23FB3C8608B288AC63FEB
:1053F000FB799F501344D33F0000F07F6585000880
:105400006E850008E6830008EEFBFFFF0EFCFFFF41
:105410000000F83F808500085046616800F0D3FF27
:10542000DAF8243020601B680893059B0E2B00F2ED
:105430004B81002D00F048819DED027BBBF1000FF8
:105440008DED107B31DDB34A0BF00F034FEA2B17C4
:1054500002EBC303F806D3E900450CD5AE4B51EC83
:10546000170BD3E9082302F045F807F00F07CDE941
:105470000201032600E00226DFF89C8277B1F907DB
:1054800008D520462946D8E9002301F009FF013656
:1054900004460D467F1008F10808EFE7DDE9020138
:1054A00022462B4602F026F81BE0CBF10004DCB1CB
:1054B000984B994D04F00F0203EBC203DDE9100194
:1054C000D3E9002301F0ECFE241102264CB1E207DF
:1054D00004D5D5E90023013601F0E2FE6410083559
:1054E000F4E7CDE9020100E00226129BDBB1DDE921
:1054F0000245002220462946884B02F043F990B12C
:10550000059B83B1069B002B40F3DA802946204699
:105510000022834B01F0C4FE0BF1FF37CDE90201FD
:105520000136069D01E0059D5F469DED027B3046FC
:105530008DED0E7B01F04EFEDDE90E2301F0B0FE95
:105540000022784B01F0FAFC8046A1F15079CDB9E8
:105550000022754BDDE90E0101F0EEFC42464B46A0
:10556000CDE9020102F02CF9002840F046824246C3
:1055700009F10043DDE9020102F004F9002840F0DE
:1055800036829DE0634B0C996A1E03EBC20300292F
:1055900049D0D3E900230020644901F0ABFF424623
:1055A0004B4601F0C9FCDDE90E89CDE90201089CFA
:1055B0004946404602F00EF9064601F00BFE02464F
:1055C0000B464046494601F0B7FC303604F8016B03
:1055D000DDE902238046894602F0D4F8002840F035
:1055E000408342464B4600204C4901F0A5FCDDE9D2
:1055F000022302F0C7F8002840F0D380089BE31A8A
:10560000AB425DDADDE902010022454B01F048FEC4
:105610000022CDE90201424B4046494601F040FEDE
:1056200080468946C4E7D3E9000142464B4601F073
:1056300037FE089BCDE90201DDE90E895C191D46A4
:105640004946404602F0C6F8064601F0C3FD303632
:1056500002460B464046494601F06EFC05F8016BD8
:10566000A5428046894624D10022304BDDE9020163
:1056700001F064FC02460B464046494602F0A0F8A1
:10568000002840F08E80DDE902230020274901F048
:1056900053FC02460B464046494602F073F878B187
:1056A00014F8013C302B04F1FF3240F0DA8214464A
:1056B000F6E700221A4B01F0F3FD80468946BFE76A
:1056C000DDE91023CDE90223159B002BC0F28B806E
:1056D000BBF10E0F00F387800E4B03EBCB03D3E936
:1056E0000067219B002B23DA059B002B20DC40F078
:1056F0007D81304600220C4B394601F0D1FDDDE9B9
:10570000022302F053F8059D2E46002840F07081D8
:1057100075E100BF80850008488600080000F03F62
:105720000000244000001C40000014400000E03F46
:10573000DDE90289089C32463B464046494601F075
:10574000D9FE02F047F8054601F044FD32463B46DB
:1057500001F0A6FD0B4602464946404601F0ECFB2F
:1057600005F1300E089B04F801EBC3EB040E059B1A
:105770009E452BD102460B4601F0E0FB32463B46EC
:105780008046894602F01CF870B9404649463246C8
:105790003B4601F0EDFF002800F06482EB0703D4E4
:1057A00060E2BB4600E01C4614F8012C392A04F1E3
:1057B000FF3307D1089A9342F5D1302313700BF1D0
:1057C000010B13461A7801321A704BE20022A44BE7
:1057D00001F066FD002200238046894601F0C8FFE3
:1057E0000028A8D03EE20C9A002A32D0209A012A42
:1057F0000ADC139A12B103F2334302E0149BC3F1A3
:1058000036030B9D099C18E0059B5D1E0B9BAB426C
:10581000BFBF0B9B0B95EA1A0D9BB6BF9B185D1B78
:105820000D93059BB8BF0025002BB9BF099B059AB6
:10583000099C059BBCBF9C1A0023099A1A44099233
:105840000A9A50461A4401210A9200F0D3FE0646F5
:1058500002E00B9D099C0C9E64B10A9B002B09DDA4
:10586000A342099AA8BF2346D21A09920A9AE41AB7
:10587000D31A0A930B9B002B20DD0C9BC3B1002D88
:1058800010DD31462A46504600F04EFF06463146AE
:10589000079A504600F0B7FE07990746504600F0B9
:1058A000C7FD07970B9B5A1B08D05046079902E08B
:1058B00007990B9A504600F037FF07905046012198
:1058C00000F098FE0D9B002B05460ADD29461A467E
:1058D000504600F029FF209B012B054604DD0027E0
:1058E0001BE0209B012B13DC029B8BB9039BC3F3B2
:1058F00013037BB9039B23F000473F0D3F0557B1CE
:10590000099B013309930A9B01330A93012702E0A3
:10591000002700E0029F0D9B43B12B6905EB830339
:10592000186900F01AFEC0F1200000E001200A9B77
:10593000184410F01F0008D0C0F12003042B02DD32
:10594000C0F11C0002E008D018461C30099B03443B
:1059500009930A9B034404440A93099B002B05DD29
:10596000504607991A4600F02DFF07900A9B002B1E
:1059700005DD294650461A4600F024FF0546129BD5
:10598000EBB10798294600F070FF002817DA0023D2
:10599000504607990A2200F062FD0C9B07900BF11C
:1059A000FF3B002B00F070813146002350460A2255
:1059B00000F055FD069B002B064633DC6DE1059B90
:1059C000002B26DC209B022B23DD059B0693069BE8
:1059D00073B929460522504600F041FD0546294687
:1059E000079800F042FF002809DC01E000252E4660
:1059F000219B089C6FEA030B08E0BB462E46089BE0
:105A0000089A5C1C312313700BF1010BB146002680
:105A100014E10C9B23B9059B0693089F079CCCE0DF
:105A2000059B0693002C05DD31465046224600F0CA
:105A3000C9FE0646B7B17168504600F0C4FC326931
:105A40000232044606F10C0192000C30FDF72BFAED
:105A500050462146012200F0B5FE814603E000BF1A
:105A600000002440B146089F079C29462046FFF7C6
:105A7000CDFA3146099000F13008204600F0F5FEDD
:105A80004A4605902946504600F00BFFC26803467F
:105A90003AB919462046079300F0E7FE079B0246F5
:105AA00000E0012250461946079200F0C1FC079A17
:105AB000A2B9209B93B9029B03F0010373B9B8F11B
:105AC000390F3B46079440D0059B002BC8BF099B6C
:105AD00007F10104C8BF03F131083DE0059B002B2D
